{
  "_format": "hh-sol-artifact-1",
  "contractName": "Liquibet",
  "sourceName": "contracts/LiquiBet.sol",
  "abi": [
    {
      "inputs": [
        {
          "internalType": "uint256",
          "name": "_tokenUpdateInterval",
          "type": "uint256"
        },
        {
          "internalType": "address",
          "name": "_tokenPriceFeed",
          "type": "address"
        },
        {
          "internalType": "address",
          "name": "_VRFContract",
          "type": "address"
        },
        {
          "internalType": "uint256",
          "name": "_fee",
          "type": "uint256"
        }
      ],
      "stateMutability": "nonpayable",
      "type": "constructor"
    },
    {
      "anonymous": false,
      "inputs": [
        {
          "indexed": true,
          "internalType": "bytes32",
          "name": "role",
          "type": "bytes32"
        },
        {
          "indexed": true,
          "internalType": "bytes32",
          "name": "previousAdminRole",
          "type": "bytes32"
        },
        {
          "indexed": true,
          "internalType": "bytes32",
          "name": "newAdminRole",
          "type": "bytes32"
        }
      ],
      "name": "RoleAdminChanged",
      "type": "event"
    },
    {
      "anonymous": false,
      "inputs": [
        {
          "indexed": true,
          "internalType": "bytes32",
          "name": "role",
          "type": "bytes32"
        },
        {
          "indexed": true,
          "internalType": "address",
          "name": "account",
          "type": "address"
        },
        {
          "indexed": true,
          "internalType": "address",
          "name": "sender",
          "type": "address"
        }
      ],
      "name": "RoleGranted",
      "type": "event"
    },
    {
      "anonymous": false,
      "inputs": [
        {
          "indexed": true,
          "internalType": "bytes32",
          "name": "role",
          "type": "bytes32"
        },
        {
          "indexed": true,
          "internalType": "address",
          "name": "account",
          "type": "address"
        },
        {
          "indexed": true,
          "internalType": "address",
          "name": "sender",
          "type": "address"
        }
      ],
      "name": "RoleRevoked",
      "type": "event"
    },
    {
      "inputs": [],
      "name": "DEFAULT_ADMIN_ROLE",
      "outputs": [
        {
          "internalType": "bytes32",
          "name": "",
          "type": "bytes32"
        }
      ],
      "stateMutability": "view",
      "type": "function"
    },
    {
      "inputs": [
        {
          "internalType": "uint256",
          "name": "poolId",
          "type": "uint256"
        },
        {
          "internalType": "uint8",
          "name": "tierId",
          "type": "uint8"
        },
        {
          "internalType": "uint256",
          "name": "amount",
          "type": "uint256"
        }
      ],
      "name": "buyIn",
      "outputs": [],
      "stateMutability": "payable",
      "type": "function"
    },
    {
      "inputs": [
        {
          "internalType": "bytes",
          "name": "",
          "type": "bytes"
        }
      ],
      "name": "checkUpkeep",
      "outputs": [
        {
          "internalType": "bool",
          "name": "upkeepNeeded",
          "type": "bool"
        },
        {
          "internalType": "bytes",
          "name": "performData",
          "type": "bytes"
        }
      ],
      "stateMutability": "view",
      "type": "function"
    },
    {
      "inputs": [
        {
          "internalType": "uint256",
          "name": "startDateTime",
          "type": "uint256"
        },
        {
          "internalType": "uint256",
          "name": "lockPeriod",
          "type": "uint256"
        },
        {
          "internalType": "bytes32",
          "name": "assetPairName",
          "type": "bytes32"
        },
        {
          "internalType": "address",
          "name": "priceFeedAddress",
          "type": "address"
        },
        {
          "internalType": "address",
          "name": "stakingContractAddress",
          "type": "address"
        }
      ],
      "name": "createPool",
      "outputs": [],
      "stateMutability": "nonpayable",
      "type": "function"
    },
    {
      "inputs": [],
      "name": "fee",
      "outputs": [
        {
          "internalType": "uint256",
          "name": "",
          "type": "uint256"
        }
      ],
      "stateMutability": "view",
      "type": "function"
    },
    {
      "inputs": [],
      "name": "getPoolsCount",
      "outputs": [
        {
          "internalType": "uint256",
          "name": "",
          "type": "uint256"
        }
      ],
      "stateMutability": "view",
      "type": "function"
    },
    {
      "inputs": [
        {
          "internalType": "bytes32",
          "name": "role",
          "type": "bytes32"
        }
      ],
      "name": "getRoleAdmin",
      "outputs": [
        {
          "internalType": "bytes32",
          "name": "",
          "type": "bytes32"
        }
      ],
      "stateMutability": "view",
      "type": "function"
    },
    {
      "inputs": [
        {
          "internalType": "bytes32",
          "name": "role",
          "type": "bytes32"
        },
        {
          "internalType": "address",
          "name": "account",
          "type": "address"
        }
      ],
      "name": "grantRole",
      "outputs": [],
      "stateMutability": "nonpayable",
      "type": "function"
    },
    {
      "inputs": [
        {
          "internalType": "bytes32",
          "name": "role",
          "type": "bytes32"
        },
        {
          "internalType": "address",
          "name": "account",
          "type": "address"
        }
      ],
      "name": "hasRole",
      "outputs": [
        {
          "internalType": "bool",
          "name": "",
          "type": "bool"
        }
      ],
      "stateMutability": "view",
      "type": "function"
    },
    {
      "inputs": [
        {
          "internalType": "bytes",
          "name": "performData",
          "type": "bytes"
        }
      ],
      "name": "performUpkeep",
      "outputs": [],
      "stateMutability": "nonpayable",
      "type": "function"
    },
    {
      "inputs": [
        {
          "internalType": "uint256",
          "name": "",
          "type": "uint256"
        }
      ],
      "name": "poolIds",
      "outputs": [
        {
          "internalType": "uint256",
          "name": "",
          "type": "uint256"
        }
      ],
      "stateMutability": "view",
      "type": "function"
    },
    {
      "inputs": [
        {
          "internalType": "uint256",
          "name": "",
          "type": "uint256"
        }
      ],
      "name": "poolLiquidationPrizes",
      "outputs": [
        {
          "internalType": "uint256",
          "name": "",
          "type": "uint256"
        }
      ],
      "stateMutability": "view",
      "type": "function"
    },
    {
      "inputs": [
        {
          "internalType": "uint256",
          "name": "",
          "type": "uint256"
        },
        {
          "internalType": "address",
          "name": "",
          "type": "address"
        }
      ],
      "name": "poolLotteryWinners",
      "outputs": [
        {
          "internalType": "uint256",
          "name": "",
          "type": "uint256"
        }
      ],
      "stateMutability": "view",
      "type": "function"
    },
    {
      "inputs": [
        {
          "internalType": "uint256",
          "name": "",
          "type": "uint256"
        }
      ],
      "name": "pools",
      "outputs": [
        {
          "internalType": "uint256",
          "name": "poolId",
          "type": "uint256"
        },
        {
          "components": [
            {
              "internalType": "bytes32",
              "name": "name",
              "type": "bytes32"
            },
            {
              "internalType": "address",
              "name": "priceFeedAddress",
              "type": "address"
            },
            {
              "internalType": "uint256",
              "name": "lowestPrice",
              "type": "uint256"
            },
            {
              "internalType": "uint256",
              "name": "referencePrice",
              "type": "uint256"
            }
          ],
          "internalType": "struct Liquibet.AssetPair",
          "name": "assetPair",
          "type": "tuple"
        },
        {
          "internalType": "uint256",
          "name": "startDateTime",
          "type": "uint256"
        },
        {
          "internalType": "uint256",
          "name": "lockPeriod",
          "type": "uint256"
        },
        {
          "components": [
            {
              "internalType": "bytes32",
              "name": "name",
              "type": "bytes32"
            },
            {
              "internalType": "address",
              "name": "contractAddress",
              "type": "address"
            },
            {
              "internalType": "bytes32",
              "name": "asset",
              "type": "bytes32"
            },
            {
              "internalType": "uint256",
              "name": "apy",
              "type": "uint256"
            },
            {
              "internalType": "uint256",
              "name": "amountStaked",
              "type": "uint256"
            }
          ],
          "internalType": "struct Liquibet.StakingInfo",
          "name": "stakingInfo",
          "type": "tuple"
        },
        {
          "internalType": "uint256",
          "name": "creatorFee",
          "type": "uint256"
        },
        {
          "internalType": "uint256",
          "name": "totalPlayersCount",
          "type": "uint256"
        },
        {
          "internalType": "bool",
          "name": "lockInExecuted",
          "type": "bool"
        },
        {
          "internalType": "bool",
          "name": "resolved",
          "type": "bool"
        }
      ],
      "stateMutability": "view",
      "type": "function"
    },
    {
      "inputs": [
        {
          "internalType": "bytes32",
          "name": "role",
          "type": "bytes32"
        },
        {
          "internalType": "address",
          "name": "account",
          "type": "address"
        }
      ],
      "name": "renounceRole",
      "outputs": [],
      "stateMutability": "nonpayable",
      "type": "function"
    },
    {
      "inputs": [
        {
          "internalType": "uint256",
          "name": "poolId",
          "type": "uint256"
        }
      ],
      "name": "resolution",
      "outputs": [],
      "stateMutability": "nonpayable",
      "type": "function"
    },
    {
      "inputs": [
        {
          "internalType": "bytes32",
          "name": "role",
          "type": "bytes32"
        },
        {
          "internalType": "address",
          "name": "account",
          "type": "address"
        }
      ],
      "name": "revokeRole",
      "outputs": [],
      "stateMutability": "nonpayable",
      "type": "function"
    },
    {
      "inputs": [
        {
          "internalType": "uint256",
          "name": "poolId",
          "type": "uint256"
        }
      ],
      "name": "stakePoolFunds",
      "outputs": [],
      "stateMutability": "nonpayable",
      "type": "function"
    },
    {
      "inputs": [
        {
          "internalType": "bytes4",
          "name": "interfaceId",
          "type": "bytes4"
        }
      ],
      "name": "supportsInterface",
      "outputs": [
        {
          "internalType": "bool",
          "name": "",
          "type": "bool"
        }
      ],
      "stateMutability": "view",
      "type": "function"
    },
    {
      "inputs": [
        {
          "internalType": "uint256",
          "name": "",
          "type": "uint256"
        },
        {
          "internalType": "uint256",
          "name": "",
          "type": "uint256"
        },
        {
          "internalType": "uint256",
          "name": "",
          "type": "uint256"
        }
      ],
      "name": "tierPlayers",
      "outputs": [
        {
          "internalType": "address",
          "name": "",
          "type": "address"
        }
      ],
      "stateMutability": "view",
      "type": "function"
    },
    {
      "inputs": [
        {
          "internalType": "uint256",
          "name": "",
          "type": "uint256"
        },
        {
          "internalType": "uint256",
          "name": "",
          "type": "uint256"
        }
      ],
      "name": "tiers",
      "outputs": [
        {
          "internalType": "uint256",
          "name": "buyInPrice",
          "type": "uint256"
        },
        {
          "internalType": "uint256",
          "name": "liquidationPrice",
          "type": "uint256"
        }
      ],
      "stateMutability": "view",
      "type": "function"
    },
    {
      "inputs": [],
      "name": "token",
      "outputs": [
        {
          "internalType": "contract SFT",
          "name": "",
          "type": "address"
        }
      ],
      "stateMutability": "view",
      "type": "function"
    },
    {
      "inputs": [
        {
          "internalType": "uint256",
          "name": "tokenId",
          "type": "uint256"
        }
      ],
      "name": "withdraw",
      "outputs": [],
      "stateMutability": "nonpayable",
      "type": "function"
    },
    {
      "stateMutability": "payable",
      "type": "receive"
    }
  ],
  "bytecode": "0x60c06040523480156200001157600080fd5b506040516200b9253803806200b92583398181016040528101906200003791906200031c565b8383604051620000479062000269565b62000054929190620003b0565b604051809103906000f08015801562000071573d6000803e3d6000fd5b5073ffffffffffffffffffffffffffffffffffffffff1660a08173ffffffffffffffffffffffffffffffffffffffff16815250508173ffffffffffffffffffffffffffffffffffffffff1660808173ffffffffffffffffffffffffffffffffffffffff16815250508060018190555042600481905550620000fc6000801b336200010660201b60201c565b50505050620003dd565b620001188282620001f760201b60201c565b620001f357600160008084815260200190815260200160002060000160008373ffffffffffffffffffffffffffffffffffffffff1673ffffffffffffffffffffffffffffffffffffffff16815260200190815260200160002060006101000a81548160ff021916908315150217905550620001986200026160201b60201c565b73ffffffffffffffffffffffffffffffffffffffff168173ffffffffffffffffffffffffffffffffffffffff16837f2f8788117e7eff1d82e926ec794901d17c78024a50270940304540a733656f0d60405160405180910390a45b5050565b600080600084815260200190815260200160002060000160008373ffffffffffffffffffffffffffffffffffffffff1673ffffffffffffffffffffffffffffffffffffffff16815260200190815260200160002060009054906101000a900460ff16905092915050565b600033905090565b6169828062004fa383390190565b600080fd5b6000819050919050565b62000291816200027c565b81146200029d57600080fd5b50565b600081519050620002b18162000286565b92915050565b600073ffffffffffffffffffffffffffffffffffffffff82169050919050565b6000620002e482620002b7565b9050919050565b620002f681620002d7565b81146200030257600080fd5b50565b6000815190506200031681620002eb565b92915050565b6000806000806080858703121562000339576200033862000277565b5b60006200034987828801620002a0565b94505060206200035c8782880162000305565b93505060406200036f8782880162000305565b92505060606200038287828801620002a0565b91505092959194509250565b62000399816200027c565b82525050565b620003aa81620002d7565b82525050565b6000604082019050620003c760008301856200038e565b620003d660208301846200039f565b9392505050565b60805160a051614b846200041f6000396000818161066701528181610aba01528181611926015281816121c30152612e95015260006130990152614b846000f3fe6080604052600436106101445760003560e01c8063975d83ab116100b6578063da3fcb341161006f578063da3fcb34146104cb578063ddca3f43146104e7578063defb8f0e14610512578063e44c29b11461053b578063f5a467b614610578578063fc0c546a146105a15761014b565b8063975d83ab1461038c578063a217fddf146103c9578063ac4afa38146103f4578063b4ac686014610439578063ca8999ca14610464578063d547741f146104a25761014b565b806336568abe1161010857806336568abe146102595780634585e33b1461028257806348321e8a146102ab57806369883b4e146102d45780636e04ff0d1461031157806391d148541461034f5761014b565b806301ffc9a714610150578063248a9ca31461018d5780632e1a7d4d146101ca5780632f2ff15d146101f3578063313959181461021c5761014b565b3661014b57005b600080fd5b34801561015c57600080fd5b506101776004803603810190610172919061342f565b6105cc565b6040516101849190613477565b60405180910390f35b34801561019957600080fd5b506101b460048036038101906101af91906134c8565b610646565b6040516101c19190613504565b60405180910390f35b3480156101d657600080fd5b506101f160048036038101906101ec9190613555565b610665565b005b3480156101ff57600080fd5b5061021a600480360381019061021591906135e0565b610ba3565b005b34801561022857600080fd5b50610243600480360381019061023e9190613620565b610bc4565b604051610250919061366f565b60405180910390f35b34801561026557600080fd5b50610280600480360381019061027b91906135e0565b610be9565b005b34801561028e57600080fd5b506102a960048036038101906102a491906136ef565b610c6c565b005b3480156102b757600080fd5b506102d260048036038101906102cd9190613555565b610f84565b005b3480156102e057600080fd5b506102fb60048036038101906102f69190613555565b6111b2565b604051610308919061366f565b60405180910390f35b34801561031d57600080fd5b50610338600480360381019061033391906136ef565b6111d6565b6040516103469291906137d5565b60405180910390f35b34801561035b57600080fd5b50610376600480360381019061037191906135e0565b6114d9565b6040516103839190613477565b60405180910390f35b34801561039857600080fd5b506103b360048036038101906103ae9190613555565b611543565b6040516103c0919061366f565b60405180910390f35b3480156103d557600080fd5b506103de61155b565b6040516103eb9190613504565b60405180910390f35b34801561040057600080fd5b5061041b60048036038101906104169190613555565b611562565b604051610430999897969594939291906138ef565b60405180910390f35b34801561044557600080fd5b5061044e6116d0565b60405161045b919061366f565b60405180910390f35b34801561047057600080fd5b5061048b6004803603810190610486919061397f565b6116dd565b6040516104999291906139bf565b60405180910390f35b3480156104ae57600080fd5b506104c960048036038101906104c491906135e0565b61171e565b005b6104e560048036038101906104e09190613a21565b61173f565b005b3480156104f357600080fd5b506104fc611aa4565b604051610509919061366f565b60405180910390f35b34801561051e57600080fd5b5061053960048036038101906105349190613a74565b611aaa565b005b34801561054757600080fd5b50610562600480360381019061055d9190613aef565b611ece565b60405161056f9190613b51565b60405180910390f35b34801561058457600080fd5b5061059f600480360381019061059a9190613555565b611f29565b005b3480156105ad57600080fd5b506105b66121c1565b6040516105c39190613bcb565b60405180910390f35b60007f7965db0b000000000000000000000000000000000000000000000000000000007bffffffffffffffffffffffffffffffffffffffffffffffffffffffff1916827bffffffffffffffffffffffffffffffffffffffffffffffffffffffff1916148061063f575061063e826121e5565b5b9050919050565b6000806000838152602001908152602001600020600101549050919050565b7f000000000000000000000000000000000000000000000000000000000000000073ffffffffffffffffffffffffffffffffffffffff16634f558e79826040518263ffffffff1660e01b81526004016106be919061366f565b60206040518083038186803b1580156106d657600080fd5b505afa1580156106ea573d6000803e3d6000fd5b505050506040513d601f19601f8201168201806040525081019061070e9190613c12565b61074d576040517f08c379a000000000000000000000000000000000000000000000000000000000815260040161074490613cc2565b60405180910390fd5b60006107588261224f565b9050600061076583612265565b905060006008600084815260200190815260200160002060003373ffffffffffffffffffffffffffffffffffffffff1673ffffffffffffffffffffffffffffffffffffffff168152602001908152602001600020549050600060026000858152602001908152602001600020604051806101200160405290816000820154815260200160018201604051806080016040529081600082015481526020016001820160009054906101000a900473ffffffffffffffffffffffffffffffffffffffff1673ffffffffffffffffffffffffffffffffffffffff1673ffffffffffffffffffffffffffffffffffffffff1681526020016002820154815260200160038201548152505081526020016005820154815260200160068201548152602001600782016040518060a0016040529081600082015481526020016001820160009054906101000a900473ffffffffffffffffffffffffffffffffffffffff1673ffffffffffffffffffffffffffffffffffffffff1673ffffffffffffffffffffffffffffffffffffffff16815260200160028201548152602001600382015481526020016004820154815250508152602001600c8201548152602001600d8201548152602001600e820160009054906101000a900460ff16151515158152602001600e820160019054906101000a900460ff1615151515815250509050600060056000868152602001908152602001600020848154811061098857610987613ce2565b5b906000526020600020906002020160405180604001604052908160008201548152602001600182015481525050905060006109cf826020015184602001516040015161227b565b6109ec5760076000878152602001908152602001600020546109ef565b60005b9050610a146040518060600160405280602c8152602001614b23602c91398286612288565b60008482610a229190613d40565b11610a62576040517f08c379a0000000000000000000000000000000000000000000000000000000008152600401610a5990613de2565b60405180910390fd5b60006008600088815260200190815260200160002060003373ffffffffffffffffffffffffffffffffffffffff1673ffffffffffffffffffffffffffffffffffffffff168152602001908152602001600020819055507f000000000000000000000000000000000000000000000000000000000000000073ffffffffffffffffffffffffffffffffffffffff1663f5298aca338960016040518463ffffffff1660e01b8152600401610b1693929190613e3d565b600060405180830381600087803b158015610b3057600080fd5b505af1158015610b44573d6000803e3d6000fd5b505050503373ffffffffffffffffffffffffffffffffffffffff166108fc8583610b6e9190613d40565b9081150290604051600060405180830381858888f19350505050158015610b99573d6000803e3d6000fd5b5050505050505050565b610bac82610646565b610bb581612327565b610bbf838361233b565b505050565b6008602052816000526040600020602052806000526040600020600091509150505481565b610bf161241b565b73ffffffffffffffffffffffffffffffffffffffff168173ffffffffffffffffffffffffffffffffffffffff1614610c5e576040517f08c379a0000000000000000000000000000000000000000000000000000000008152600401610c5590613ee6565b60405180910390fd5b610c688282612423565b5050565b60008282810190610c7d9190613555565b90506000811415610c9857610c90612504565b426004819055505b6001811415610d765760005b600380549050811015610d7457600060026000838152602001908152602001600020905080600e0160009054906101000a900460ff16158015610cf55750610cf48160050154826006015461271d565b5b15610d6057610d2a8160010160010160009054906101000a900473ffffffffffffffffffffffffffffffffffffffff1661273c565b8160010160030181905550610d428160000154610f84565b600181600e0160006101000a81548160ff0219169083151502179055505b508080610d6c90613f06565b915050610ca4565b505b6002811415610f7f5760005b600380549050811015610f7d57600060026000838152602001908152602001600020604051806101200160405290816000820154815260200160018201604051806080016040529081600082015481526020016001820160009054906101000a900473ffffffffffffffffffffffffffffffffffffffff1673ffffffffffffffffffffffffffffffffffffffff1673ffffffffffffffffffffffffffffffffffffffff1681526020016002820154815260200160038201548152505081526020016005820154815260200160068201548152602001600782016040518060a0016040529081600082015481526020016001820160009054906101000a900473ffffffffffffffffffffffffffffffffffffffff1673ffffffffffffffffffffffffffffffffffffffff1673ffffffffffffffffffffffffffffffffffffffff16815260200160028201548152602001600382015481526020016004820154815250508152602001600c8201548152602001600d8201548152602001600e820160009054906101000a900460ff16151515158152602001600e820160019054906101000a900460ff1615151515815250509050806101000151158015610f565750610f54816040015182606001516127e2565b155b15610f6957610f688160000151611f29565b5b508080610f7590613f06565b915050610d82565b505b505050565b6000801b610f9181612327565b600060026000848152602001908152602001600020604051806101200160405290816000820154815260200160018201604051806080016040529081600082015481526020016001820160009054906101000a900473ffffffffffffffffffffffffffffffffffffffff1673ffffffffffffffffffffffffffffffffffffffff1673ffffffffffffffffffffffffffffffffffffffff1681526020016002820154815260200160038201548152505081526020016005820154815260200160068201548152602001600782016040518060a0016040529081600082015481526020016001820160009054906101000a900473ffffffffffffffffffffffffffffffffffffffff1673ffffffffffffffffffffffffffffffffffffffff1673ffffffffffffffffffffffffffffffffffffffff16815260200160028201548152602001600382015481526020016004820154815250508152602001600c8201548152602001600d8201548152602001600e820160009054906101000a900460ff16151515158152602001600e820160019054906101000a900460ff1615151515815250509050600081608001516020015190508073ffffffffffffffffffffffffffffffffffffffff16633a4b66f18360800151608001516040518263ffffffff1660e01b81526004016000604051808303818588803b15801561119357600080fd5b505af11580156111a7573d6000803e3d6000fd5b505050505050505050565b600381815481106111c257600080fd5b906000526020600020016000915090505481565b600060606000600454141580156111fb5750600454615460426111f99190613d40565b115b15611230576001915060006040516020016112169190613f70565b6040516020818303038152906040529050600191506114d2565b60005b6003805490508110156114a957600060026000838152602001908152602001600020604051806101200160405290816000820154815260200160018201604051806080016040529081600082015481526020016001820160009054906101000a900473ffffffffffffffffffffffffffffffffffffffff1673ffffffffffffffffffffffffffffffffffffffff1673ffffffffffffffffffffffffffffffffffffffff1681526020016002820154815260200160038201548152505081526020016005820154815260200160068201548152602001600782016040518060a0016040529081600082015481526020016001820160009054906101000a900473ffffffffffffffffffffffffffffffffffffffff1673ffffffffffffffffffffffffffffffffffffffff1673ffffffffffffffffffffffffffffffffffffffff16815260200160028201548152602001600382015481526020016004820154815250508152602001600c8201548152602001600d8201548152602001600e820160009054906101000a900460ff16151515158152602001600e820160019054906101000a900460ff16151515158152505090508060e0015115801561140557506114048160400151826060015161271d565b5b1561143c576001935060016040516020016114209190613f70565b60405160208183030381529060405292506001935050506114d2565b80610100015115801561145e575061145c816040015182606001516127e2565b155b15611495576001935060026040516020016114799190613f70565b60405160208183030381529060405292506001935050506114d2565b5080806114a190613f06565b915050611233565b506000915060036040516020016114c09190613f70565b60405160208183030381529060405290505b9250929050565b600080600084815260200190815260200160002060000160008373ffffffffffffffffffffffffffffffffffffffff1673ffffffffffffffffffffffffffffffffffffffff16815260200190815260200160002060009054906101000a900460ff16905092915050565b60076020528060005260406000206000915090505481565b6000801b81565b600260205280600052604060002060009150905080600001549080600101604051806080016040529081600082015481526020016001820160009054906101000a900473ffffffffffffffffffffffffffffffffffffffff1673ffffffffffffffffffffffffffffffffffffffff1673ffffffffffffffffffffffffffffffffffffffff1681526020016002820154815260200160038201548152505090806005015490806006015490806007016040518060a0016040529081600082015481526020016001820160009054906101000a900473ffffffffffffffffffffffffffffffffffffffff1673ffffffffffffffffffffffffffffffffffffffff1673ffffffffffffffffffffffffffffffffffffffff16815260200160028201548152602001600382015481526020016004820154815250509080600c01549080600d01549080600e0160009054906101000a900460ff169080600e0160019054906101000a900460ff16905089565b6000600380549050905090565b600560205281600052604060002081815481106116f957600080fd5b9060005260206000209060020201600091509150508060000154908060010154905082565b61172782610646565b61173081612327565b61173a8383612423565b505050565b60008111611782576040517f08c379a000000000000000000000000000000000000000000000000000000000815260040161177990613ffd565b60405180910390fd5b600060026000858152602001908152602001600020905060008160050154116117e0576040517f08c379a00000000000000000000000000000000000000000000000000000000081526004016117d790614069565b60405180910390fd5b8060050154421115611827576040517f08c379a000000000000000000000000000000000000000000000000000000000815260040161181e906140d5565b60405180910390fd5b60056000858152602001908152602001600020805490508360ff1610611882576040517f08c379a000000000000000000000000000000000000000000000000000000000815260040161187990614167565b60405180910390fd5b600154600560008681526020019081526020016000208460ff16815481106118ad576118ac613ce2565b5b906000526020600020906002020160000154836118ca9190614187565b6118d49190613d40565b341015611916576040517f08c379a000000000000000000000000000000000000000000000000000000000815260040161190d90614253565b60405180910390fd5b600061192285856127fa565b90507f000000000000000000000000000000000000000000000000000000000000000073ffffffffffffffffffffffffffffffffffffffff1663731133e93383866040518463ffffffff1660e01b815260040161198193929190614299565b600060405180830381600087803b15801561199b57600080fd5b505af11580156119af573d6000803e3d6000fd5b50505050600154346119c191906142e3565b8260070160040160008282546119d79190613d40565b9250508190555060015482600c0160008282546119f49190613d40565b925050819055506006600086815260200190815260200160002060008560ff168152602001908152602001600020339080600181540180825580915050600190039060005260206000200160009091909190916101000a81548173ffffffffffffffffffffffffffffffffffffffff021916908373ffffffffffffffffffffffffffffffffffffffff16021790555081600d016000815480929190611a9890613f06565b91905055505050505050565b60015481565b6000831415611aee576040517f08c379a0000000000000000000000000000000000000000000000000000000008152600401611ae590614363565b60405180910390fd5b600073ffffffffffffffffffffffffffffffffffffffff168273ffffffffffffffffffffffffffffffffffffffff161415611b5e576040517f08c379a0000000000000000000000000000000000000000000000000000000008152600401611b55906143cf565b60405180910390fd5b600073ffffffffffffffffffffffffffffffffffffffff168173ffffffffffffffffffffffffffffffffffffffff161415611bce576040517f08c379a0000000000000000000000000000000000000000000000000000000008152600401611bc590614461565b60405180910390fd5b6000611bd98361273c565b9050600060405180608001604052808681526020018573ffffffffffffffffffffffffffffffffffffffff1681526020018381526020018381525090506000611c218461281f565b9050600060405180610120016040528060038054905081526020018481526020018a8152602001898152602001838152602001600081526020016000815260200160001515815260200160001515815250905060006001600380549050611c889190613d40565b9050611c948183612900565b600560008281526020019081526020016000206040518060400160405280666a94d74f4300008152602001600781525090806001815401808255809150506001900390600052602060002090600202016000909190919091506000820151816000015560208201518160010155505060056000828152602001908152602001600020604051806040016040528066d529ae9e8600008152602001600c815250908060018154018082558091505060019003906000526020600020906002020160009091909190915060008201518160000155602082015181600101555050600560008281526020019081526020016000206040518060400160405280670429d069189e000081526020016013815250908060018154018082558091505060019003906000526020600020906002020160009091909190915060008201518160000155602082015181600101555050600560008281526020019081526020016000206040518060400160405280670c7d713b49da00008152602001601c8152509080600181540180825580915050600190039060005260206000209060020201600090919091909150600082015181600001556020820151816001015550506005600082815260200190815260200160002060405180604001604052806729a2241af62c00008152602001602681525090806001815401808255809150506001900390600052602060002090600202016000909190919091506000820151816000015560208201518160010155505050505050505050505050565b60066020528260005260406000206020528160005260406000208181548110611ef657600080fd5b90600052602060002001600092509250509054906101000a900473ffffffffffffffffffffffffffffffffffffffff1681565b6000801b611f3681612327565b6000600260008481526020019081526020016000209050611f5f816005015482600601546127e2565b611f9e576040517f08c379a0000000000000000000000000000000000000000000000000000000008152600401611f95906144f3565b60405180910390fd5b60008160070160010160009054906101000a900473ffffffffffffffffffffffffffffffffffffffff16905060008173ffffffffffffffffffffffffffffffffffffffff16633ccfd60b6040518163ffffffff1660e01b8152600401602060405180830381600087803b15801561201457600080fd5b505af1158015612028573d6000803e3d6000fd5b505050506040513d601f19601f8201168201806040525081019061204c9190614528565b90506000612061828560070160040154612aa1565b905061208e6040518060600160405280603d8152602001614ab5603d913985600701600401548484612ac6565b60008111156121745760006120a78786600d0154612b68565b90506120e86040518060400160405280601281526020017f6c6f74746572792077696e6e65723a202573000000000000000000000000000081525082612d4f565b600073ffffffffffffffffffffffffffffffffffffffff168173ffffffffffffffffffffffffffffffffffffffff161461217257816008600089815260200190815260200160002060008373ffffffffffffffffffffffffffffffffffffffff1673ffffffffffffffffffffffffffffffffffffffff168152602001908152602001600020819055505b505b612185868560010160020154612deb565b6007600088815260200190815260200160002081905550600184600e0160016101000a81548160ff021916908315150217905550505050505050565b7f000000000000000000000000000000000000000000000000000000000000000081565b60007f01ffc9a7000000000000000000000000000000000000000000000000000000007bffffffffffffffffffffffffffffffffffffffffffffffffffffffff1916827bffffffffffffffffffffffffffffffffffffffffffffffffffffffff1916149050919050565b6000600a8261225e9190614584565b9050919050565b6000600a8261227491906145b5565b9050919050565b6000818310905092915050565b6123228383836040516024016122a09392919061462a565b6040516020818303038152906040527fca47c4eb000000000000000000000000000000000000000000000000000000007bffffffffffffffffffffffffffffffffffffffffffffffffffffffff19166020820180517bffffffffffffffffffffffffffffffffffffffffffffffffffffffff8381831617835250505050612fcf565b505050565b6123388161233361241b565b612ff8565b50565b61234582826114d9565b61241757600160008084815260200190815260200160002060000160008373ffffffffffffffffffffffffffffffffffffffff1673ffffffffffffffffffffffffffffffffffffffff16815260200190815260200160002060006101000a81548160ff0219169083151502179055506123bc61241b565b73ffffffffffffffffffffffffffffffffffffffff168173ffffffffffffffffffffffffffffffffffffffff16837f2f8788117e7eff1d82e926ec794901d17c78024a50270940304540a733656f0d60405160405180910390a45b5050565b600033905090565b61242d82826114d9565b1561250057600080600084815260200190815260200160002060000160008373ffffffffffffffffffffffffffffffffffffffff1673ffffffffffffffffffffffffffffffffffffffff16815260200190815260200160002060006101000a81548160ff0219169083151502179055506124a561241b565b73ffffffffffffffffffffffffffffffffffffffff168173ffffffffffffffffffffffffffffffffffffffff16837ff6391f5c32d9c69d2a47ea670b442974b53935d1edc7fd64eb21e047a839171b60405160405180910390a45b5050565b60005b60038054905081101561271a57600060026000838152602001908152602001600020604051806101200160405290816000820154815260200160018201604051806080016040529081600082015481526020016001820160009054906101000a900473ffffffffffffffffffffffffffffffffffffffff1673ffffffffffffffffffffffffffffffffffffffff1673ffffffffffffffffffffffffffffffffffffffff1681526020016002820154815260200160038201548152505081526020016005820154815260200160068201548152602001600782016040518060a0016040529081600082015481526020016001820160009054906101000a900473ffffffffffffffffffffffffffffffffffffffff1673ffffffffffffffffffffffffffffffffffffffff1673ffffffffffffffffffffffffffffffffffffffff16815260200160028201548152602001600382015481526020016004820154815250508152602001600c8201548152602001600d8201548152602001600e820160009054906101000a900460ff16151515158152602001600e820160019054906101000a900460ff16151515158152505090506126cb8160400151826060015161271d565b156127065760006126e382602001516020015161273c565b90508082602001516040015111156127045780826020015160400181815250505b505b50808061271290613f06565b915050612507565b50565b60008242118015612734575061273383836127e2565b5b905092915050565b60008082905060008173ffffffffffffffffffffffffffffffffffffffff1663feaf968c6040518163ffffffff1660e01b815260040160a06040518083038186803b15801561278a57600080fd5b505afa15801561279e573d6000803e3d6000fd5b505050506040513d601f19601f820116820180604052508101906127c291906146e0565b505050915050600081126127d657806127d9565b60005b92505050919050565b600081836127f09190613d40565b4210905092915050565b60008160ff16600a8461280d9190614187565b6128179190613d40565b905092915050565b612827613382565b600082905060008060008373ffffffffffffffffffffffffffffffffffffffff1663b40cd21d6040518163ffffffff1660e01b8152600401606060405180830381600087803b15801561287957600080fd5b505af115801561288d573d6000803e3d6000fd5b505050506040513d601f19601f820116820180604052508101906128b19190614770565b9250925092506040518060a001604052808481526020018773ffffffffffffffffffffffffffffffffffffffff1681526020018381526020018281526020016000815250945050505050919050565b60038290806001815401808255809150506001900390600052602060002001600090919091909150558060026000848152602001908152602001600020600082015181600001556020820151816001016000820151816000015560208201518160010160006101000a81548173ffffffffffffffffffffffffffffffffffffffff021916908373ffffffffffffffffffffffffffffffffffffffff1602179055506040820151816002015560608201518160030155505060408201518160050155606082015181600601556080820151816007016000820151816000015560208201518160010160006101000a81548173ffffffffffffffffffffffffffffffffffffffff021916908373ffffffffffffffffffffffffffffffffffffffff160217905550604082015181600201556060820151816003015560808201518160040155505060a082015181600c015560c082015181600d015560e082015181600e0160006101000a81548160ff02191690831515021790555061010082015181600e0160016101000a81548160ff0219169083151502179055509050505050565b6000828211612abb578183612ab691906142e3565b612abe565b60005b905092915050565b612b6284848484604051602401612ae094939291906147c3565b6040516020818303038152906040527fa7a87853000000000000000000000000000000000000000000000000000000007bffffffffffffffffffffffffffffffffffffffffffffffffffffffff19166020820180517bffffffffffffffffffffffffffffffffffffffffffffffffffffffff8381831617835250505050612fcf565b50505050565b6000808267ffffffffffffffff811115612b8557612b8461480f565b5b604051908082528060200260200182016040528015612bb35781602001602082028036833780820191505090505b509050600080600090505b60056000878152602001908152602001600020805490508160ff161015612cfa5760005b6006600088815260200190815260200160002060008360ff16815260200190815260200160002080549050811015612ce6576006600088815260200190815260200160002060008360ff1681526020019081526020016000208181548110612c4d57612c4c613ce2565b5b9060005260206000200160009054906101000a900473ffffffffffffffffffffffffffffffffffffffff16848481518110612c8b57612c8a613ce2565b5b602002602001019073ffffffffffffffffffffffffffffffffffffffff16908173ffffffffffffffffffffffffffffffffffffffff16815250508280612cd090613f06565b9350508080612cde90613f06565b915050612be2565b508080612cf29061483e565b915050612bbe565b50600082511115612d425760008251612d11613095565b612d1b91906145b5565b9050828181518110612d3057612d2f613ce2565b5b60200260200101519350505050612d49565b6000925050505b92915050565b612de78282604051602401612d65929190614868565b6040516020818303038152906040527f319af333000000000000000000000000000000000000000000000000000000007bffffffffffffffffffffffffffffffffffffffffffffffffffffffff19166020820180517bffffffffffffffffffffffffffffffffffffffffffffffffffffffff8381831617835250505050612fcf565b5050565b600080600080600090505b60056000878152602001908152602001600020805490508160ff161015612f80576000600560008881526020019081526020016000208260ff1681548110612e4157612e40613ce2565b5b90600052602060002090600202016040518060400160405290816000820154815260200160018201548152505090506000612e7c88846127fa565b9050612e8c82602001518861227b565b15612f6b5760007f000000000000000000000000000000000000000000000000000000000000000073ffffffffffffffffffffffffffffffffffffffff1663bd85b039836040518263ffffffff1660e01b8152600401612eec919061366f565b60206040518083038186803b158015612f0457600080fd5b505afa158015612f18573d6000803e3d6000fd5b505050506040513d601f19601f82011682018060405250810190612f3c9190614528565b90508086612f4a9190613d40565b9550808360000151612f5c9190614187565b85612f679190613d40565b9450505b50508080612f789061483e565b915050612df6565b506000821115612fc257612fad604051806060016040528060318152602001614af2603191398284612288565b8181612fb99190614584565b92505050612fc9565b6000925050505b92915050565b60008151905060006a636f6e736f6c652e6c6f679050602083016000808483855afa5050505050565b61300282826114d9565b613091576130278173ffffffffffffffffffffffffffffffffffffffff166014613146565b6130358360001c6020613146565b60405160200161304692919061496c565b6040516020818303038152906040526040517f08c379a000000000000000000000000000000000000000000000000000000000815260040161308891906149a6565b60405180910390fd5b5050565b60007f000000000000000000000000000000000000000000000000000000000000000073ffffffffffffffffffffffffffffffffffffffff1663f6eaffc860006040518263ffffffff1660e01b81526004016130f19190614a03565b60206040518083038186803b15801561310957600080fd5b505afa15801561311d573d6000803e3d6000fd5b505050506040513d601f19601f820116820180604052508101906131419190614528565b905090565b6060600060028360026131599190614187565b6131639190613d40565b67ffffffffffffffff81111561317c5761317b61480f565b5b6040519080825280601f01601f1916602001820160405280156131ae5781602001600182028036833780820191505090505b5090507f3000000000000000000000000000000000000000000000000000000000000000816000815181106131e6576131e5613ce2565b5b60200101907effffffffffffffffffffffffffffffffffffffffffffffffffffffffffffff1916908160001a9053507f78000000000000000000000000000000000000000000000000000000000000008160018151811061324a57613249613ce2565b5b60200101907effffffffffffffffffffffffffffffffffffffffffffffffffffffffffffff1916908160001a9053506000600184600261328a9190614187565b6132949190613d40565b90505b6001811115613334577f3031323334353637383961626364656600000000000000000000000000000000600f8616601081106132d6576132d5613ce2565b5b1a60f81b8282815181106132ed576132ec613ce2565b5b60200101907effffffffffffffffffffffffffffffffffffffffffffffffffffffffffffff1916908160001a905350600485901c94508061332d90614a1e565b9050613297565b5060008414613378576040517f08c379a000000000000000000000000000000000000000000000000000000000815260040161336f90614a94565b60405180910390fd5b8091505092915050565b6040518060a0016040528060008019168152602001600073ffffffffffffffffffffffffffffffffffffffff1681526020016000801916815260200160008152602001600081525090565b600080fd5b600080fd5b60007fffffffff0000000000000000000000000000000000000000000000000000000082169050919050565b61340c816133d7565b811461341757600080fd5b50565b60008135905061342981613403565b92915050565b600060208284031215613445576134446133cd565b5b60006134538482850161341a565b91505092915050565b60008115159050919050565b6134718161345c565b82525050565b600060208201905061348c6000830184613468565b92915050565b6000819050919050565b6134a581613492565b81146134b057600080fd5b50565b6000813590506134c28161349c565b92915050565b6000602082840312156134de576134dd6133cd565b5b60006134ec848285016134b3565b91505092915050565b6134fe81613492565b82525050565b600060208201905061351960008301846134f5565b92915050565b6000819050919050565b6135328161351f565b811461353d57600080fd5b50565b60008135905061354f81613529565b92915050565b60006020828403121561356b5761356a6133cd565b5b600061357984828501613540565b91505092915050565b600073ffffffffffffffffffffffffffffffffffffffff82169050919050565b60006135ad82613582565b9050919050565b6135bd816135a2565b81146135c857600080fd5b50565b6000813590506135da816135b4565b92915050565b600080604083850312156135f7576135f66133cd565b5b6000613605858286016134b3565b9250506020613616858286016135cb565b9150509250929050565b60008060408385031215613637576136366133cd565b5b600061364585828601613540565b9250506020613656858286016135cb565b9150509250929050565b6136698161351f565b82525050565b60006020820190506136846000830184613660565b92915050565b600080fd5b600080fd5b600080fd5b60008083601f8401126136af576136ae61368a565b5b8235905067ffffffffffffffff8111156136cc576136cb61368f565b5b6020830191508360018202830111156136e8576136e7613694565b5b9250929050565b60008060208385031215613706576137056133cd565b5b600083013567ffffffffffffffff811115613724576137236133d2565b5b61373085828601613699565b92509250509250929050565b600081519050919050565b600082825260208201905092915050565b60005b8381101561377657808201518184015260208101905061375b565b83811115613785576000848401525b50505050565b6000601f19601f8301169050919050565b60006137a78261373c565b6137b18185613747565b93506137c1818560208601613758565b6137ca8161378b565b840191505092915050565b60006040820190506137ea6000830185613468565b81810360208301526137fc818461379c565b90509392505050565b61380e81613492565b82525050565b61381d816135a2565b82525050565b61382c8161351f565b82525050565b6080820160008201516138486000850182613805565b50602082015161385b6020850182613814565b50604082015161386e6040850182613823565b5060608201516138816060850182613823565b50505050565b60a08201600082015161389d6000850182613805565b5060208201516138b06020850182613814565b5060408201516138c36040850182613805565b5060608201516138d66060850182613823565b5060808201516138e96080850182613823565b50505050565b600061020082019050613905600083018c613660565b613912602083018b613832565b61391f60a083018a613660565b61392c60c0830189613660565b61393960e0830188613887565b613947610180830187613660565b6139556101a0830186613660565b6139636101c0830185613468565b6139716101e0830184613468565b9a9950505050505050505050565b60008060408385031215613996576139956133cd565b5b60006139a485828601613540565b92505060206139b585828601613540565b9150509250929050565b60006040820190506139d46000830185613660565b6139e16020830184613660565b9392505050565b600060ff82169050919050565b6139fe816139e8565b8114613a0957600080fd5b50565b600081359050613a1b816139f5565b92915050565b600080600060608486031215613a3a57613a396133cd565b5b6000613a4886828701613540565b9350506020613a5986828701613a0c565b9250506040613a6a86828701613540565b9150509250925092565b600080600080600060a08688031215613a9057613a8f6133cd565b5b6000613a9e88828901613540565b9550506020613aaf88828901613540565b9450506040613ac0888289016134b3565b9350506060613ad1888289016135cb565b9250506080613ae2888289016135cb565b9150509295509295909350565b600080600060608486031215613b0857613b076133cd565b5b6000613b1686828701613540565b9350506020613b2786828701613540565b9250506040613b3886828701613540565b9150509250925092565b613b4b816135a2565b82525050565b6000602082019050613b666000830184613b42565b92915050565b6000819050919050565b6000613b91613b8c613b8784613582565b613b6c565b613582565b9050919050565b6000613ba382613b76565b9050919050565b6000613bb582613b98565b9050919050565b613bc581613baa565b82525050565b6000602082019050613be06000830184613bbc565b92915050565b613bef8161345c565b8114613bfa57600080fd5b50565b600081519050613c0c81613be6565b92915050565b600060208284031215613c2857613c276133cd565b5b6000613c3684828501613bfd565b91505092915050565b600082825260208201905092915050565b7f546f6b656e207769746820676976656e20696420646f65736e2774206578697360008201527f7400000000000000000000000000000000000000000000000000000000000000602082015250565b6000613cac602183613c3f565b9150613cb782613c50565b604082019050919050565b60006020820190508181036000830152613cdb81613c9f565b9050919050565b7f4e487b7100000000000000000000000000000000000000000000000000000000600052603260045260246000fd5b7f4e487b7100000000000000000000000000000000000000000000000000000000600052601160045260246000fd5b6000613d4b8261351f565b9150613d568361351f565b9250827fffffffffffffffffffffffffffffffffffffffffffffffffffffffffffffffff03821115613d8b57613d8a613d11565b5b828201905092915050565b7f596f752068617665206e6f2077696e6e696e677320746f207769746864726177600082015250565b6000613dcc602083613c3f565b9150613dd782613d96565b602082019050919050565b60006020820190508181036000830152613dfb81613dbf565b9050919050565b6000819050919050565b6000613e27613e22613e1d84613e02565b613b6c565b61351f565b9050919050565b613e3781613e0c565b82525050565b6000606082019050613e526000830186613b42565b613e5f6020830185613660565b613e6c6040830184613e2e565b949350505050565b7f416363657373436f6e74726f6c3a2063616e206f6e6c792072656e6f756e636560008201527f20726f6c657320666f722073656c660000000000000000000000000000000000602082015250565b6000613ed0602f83613c3f565b9150613edb82613e74565b604082019050919050565b60006020820190508181036000830152613eff81613ec3565b9050919050565b6000613f118261351f565b91507fffffffffffffffffffffffffffffffffffffffffffffffffffffffffffffffff821415613f4457613f43613d11565b5b600182019050919050565b6000819050919050565b613f6a613f658261351f565b613f4f565b82525050565b6000613f7c8284613f59565b60208201915081905092915050565b7f4d696e7420616d6f756e74206d757374206265206c6172676572207468616e2060008201527f7a65726f00000000000000000000000000000000000000000000000000000000602082015250565b6000613fe7602483613c3f565b9150613ff282613f8b565b604082019050919050565b6000602082019050818103600083015261401681613fda565b9050919050565b7f506f6f6c20646f6573206e6f7420657869737400000000000000000000000000600082015250565b6000614053601383613c3f565b915061405e8261401d565b602082019050919050565b6000602082019050818103600083015261408281614046565b9050919050565b7f506f6f6c206275792d696e20706572696f6420656e6465640000000000000000600082015250565b60006140bf601883613c3f565b91506140ca82614089565b602082019050919050565b600060208201905081810360008301526140ee816140b2565b9050919050565b7f5469657220646f65736e277420657869737420696e2074686520676976656e2060008201527f706f6f6c00000000000000000000000000000000000000000000000000000000602082015250565b6000614151602483613c3f565b915061415c826140f5565b604082019050919050565b6000602082019050818103600083015261418081614144565b9050919050565b60006141928261351f565b915061419d8361351f565b9250817fffffffffffffffffffffffffffffffffffffffffffffffffffffffffffffffff04831182151516156141d6576141d5613d11565b5b828202905092915050565b7f4e6f7420656e6f7567682066756e647320666f722063686f73656e207469657260008201527f206c6576656c0000000000000000000000000000000000000000000000000000602082015250565b600061423d602683613c3f565b9150614248826141e1565b604082019050919050565b6000602082019050818103600083015261426c81614230565b9050919050565b50565b6000614283600083613747565b915061428e82614273565b600082019050919050565b60006080820190506142ae6000830186613b42565b6142bb6020830185613660565b6142c86040830184613660565b81810360608301526142d981614276565b9050949350505050565b60006142ee8261351f565b91506142f98361351f565b92508282101561430c5761430b613d11565b5b828203905092915050565b7f41737365742070616972206e616d652069732072657175697265640000000000600082015250565b600061434d601b83613c3f565b915061435882614317565b602082019050919050565b6000602082019050818103600083015261437c81614340565b9050919050565b7f5072696365206665656420616464726573732069732072657175697265640000600082015250565b60006143b9601e83613c3f565b91506143c482614383565b602082019050919050565b600060208201905081810360008301526143e8816143ac565b9050919050565b7f5374616b696e6720636f6e74726163742061646472657373206973207265717560008201527f6972656400000000000000000000000000000000000000000000000000000000602082015250565b600061444b602483613c3f565b9150614456826143ef565b604082019050919050565b6000602082019050818103600083015261447a8161443e565b9050919050565b7f506f6f6c206c6f636b696e6720706572696f64206973207374696c6c20696e2060008201527f6566666563740000000000000000000000000000000000000000000000000000602082015250565b60006144dd602683613c3f565b91506144e882614481565b604082019050919050565b6000602082019050818103600083015261450c816144d0565b9050919050565b60008151905061452281613529565b92915050565b60006020828403121561453e5761453d6133cd565b5b600061454c84828501614513565b91505092915050565b7f4e487b7100000000000000000000000000000000000000000000000000000000600052601260045260246000fd5b600061458f8261351f565b915061459a8361351f565b9250826145aa576145a9614555565b5b828204905092915050565b60006145c08261351f565b91506145cb8361351f565b9250826145db576145da614555565b5b828206905092915050565b600081519050919050565b60006145fc826145e6565b6146068185613c3f565b9350614616818560208601613758565b61461f8161378b565b840191505092915050565b6000606082019050818103600083015261464481866145f1565b90506146536020830185613660565b6146606040830184613660565b949350505050565b600069ffffffffffffffffffff82169050919050565b61468781614668565b811461469257600080fd5b50565b6000815190506146a48161467e565b92915050565b6000819050919050565b6146bd816146aa565b81146146c857600080fd5b50565b6000815190506146da816146b4565b92915050565b600080600080600060a086880312156146fc576146fb6133cd565b5b600061470a88828901614695565b955050602061471b888289016146cb565b945050604061472c88828901614513565b935050606061473d88828901614513565b925050608061474e88828901614695565b9150509295509295909350565b60008151905061476a8161349c565b92915050565b600080600060608486031215614789576147886133cd565b5b60006147978682870161475b565b93505060206147a88682870161475b565b92505060406147b986828701614513565b9150509250925092565b600060808201905081810360008301526147dd81876145f1565b90506147ec6020830186613660565b6147f96040830185613660565b6148066060830184613660565b95945050505050565b7f4e487b7100000000000000000000000000000000000000000000000000000000600052604160045260246000fd5b6000614849826139e8565b915060ff82141561485d5761485c613d11565b5b600182019050919050565b6000604082019050818103600083015261488281856145f1565b90506148916020830184613b42565b9392505050565b600081905092915050565b7f416363657373436f6e74726f6c3a206163636f756e7420000000000000000000600082015250565b60006148d9601783614898565b91506148e4826148a3565b601782019050919050565b60006148fa826145e6565b6149048185614898565b9350614914818560208601613758565b80840191505092915050565b7f206973206d697373696e6720726f6c6520000000000000000000000000000000600082015250565b6000614956601183614898565b915061496182614920565b601182019050919050565b6000614977826148cc565b915061498382856148ef565b915061498e82614949565b915061499a82846148ef565b91508190509392505050565b600060208201905081810360008301526149c081846145f1565b905092915050565b6000819050919050565b60006149ed6149e86149e3846149c8565b613b6c565b61351f565b9050919050565b6149fd816149d2565b82525050565b6000602082019050614a1860008301846149f4565b92915050565b6000614a298261351f565b91506000821415614a3d57614a3c613d11565b5b600182039050919050565b7f537472696e67733a20686578206c656e67746820696e73756666696369656e74600082015250565b6000614a7e602083613c3f565b9150614a8982614a48565b602082019050919050565b60006020820190508181036000830152614aad81614a71565b905091905056fe616d6f756e74207374616b65643a2025732c20616d6f756e742066726f6d207374616b696e673a2025732c206c6f7474657279207072697a653a202573746f74616c4c69717569646174656446756e64733a2025732c2077696e6e696e67506c6179657273436f756e743a2025736c69717569646174696f6e57696e6e696e67733a2025732c206c6f747465727957696e6e696e67733a202573a26469706673582212205f3b053145a658529bbd7e9fcc922f22a9f6e11cc18ee9e50552fc7d08c89af964736f6c6343000809003360806040526040518060c00160405280604051806080016040528060538152602001620068dc60539139815260200160405180608001604052806053815260200162006790605391398152602001604051806080016040528060538152602001620068366053913981526020016040518060800160405280605381526020016200692f60539139815260200160405180608001604052806053815260200162006889605391398152602001604051806080016040528060538152602001620067e360539139815250600b906006620000d992919062000503565b50348015620000e757600080fd5b50604051620069823803806200698283398181016040528101906200010d9190620007c5565b604051806020016040528060008152506200012e816200036560201b60201c565b506200014f620001436200038160201b60201c565b6200038960201b60201c565b816006819055504260078190555080600560006101000a81548173ffffffffffffffffffffffffffffffffffffffff021916908373ffffffffffffffffffffffffffffffffffffffff160217905550620001ae6200044f60201b60201c565b600881905550600b600581548110620001cc57620001cb6200080c565b5b9060005260206000200160096000600160ff168152602001908152602001600020908054620001fb906200086a565b620002089291906200056a565b50600b6005815481106200022157620002206200080c565b5b9060005260206000200160096000600260ff16815260200190815260200160002090805462000250906200086a565b6200025d9291906200056a565b50600b6005815481106200027657620002756200080c565b5b9060005260206000200160096000600360ff168152602001908152602001600020908054620002a5906200086a565b620002b29291906200056a565b50600b600581548110620002cb57620002ca6200080c565b5b9060005260206000200160096000600460ff168152602001908152602001600020908054620002fa906200086a565b620003079291906200056a565b50600b60058154811062000320576200031f6200080c565b5b9060005260206000200160096000600560ff1681526020019081526020016000209080546200034f906200086a565b6200035c9291906200056a565b505050620009aa565b80600290805190602001906200037d92919062000602565b5050565b600033905090565b6000600360009054906101000a900473ffffffffffffffffffffffffffffffffffffffff16905081600360006101000a81548173ffffffffffffffffffffffffffffffffffffffff021916908373ffffffffffffffffffffffffffffffffffffffff1602179055508173ffffffffffffffffffffffffffffffffffffffff168173ffffffffffffffffffffffffffffffffffffffff167f8be0079c531659141344cd1fd0a4f28419497f9722a3daafe3b4186f6b6457e060405160405180910390a35050565b600080600560009054906101000a900473ffffffffffffffffffffffffffffffffffffffff1673ffffffffffffffffffffffffffffffffffffffff1663feaf968c6040518163ffffffff1660e01b815260040160a06040518083038186803b158015620004bb57600080fd5b505afa158015620004d0573d6000803e3d6000fd5b505050506040513d601f19601f82011682018060405250810190620004f6919062000922565b5050509150508091505090565b82805482825590600052602060002090810192821562000557579160200282015b82811115620005565782518290805190602001906200054592919062000602565b509160200191906001019062000524565b5b50905062000566919062000693565b5090565b82805462000578906200086a565b90600052602060002090601f0160209004810192826200059c5760008555620005ef565b82601f10620005af5780548555620005ef565b82800160010185558215620005ef57600052602060002091601f016020900482015b82811115620005ee578254825591600101919060010190620005d1565b5b509050620005fe9190620006bb565b5090565b82805462000610906200086a565b90600052602060002090601f01602090048101928262000634576000855562000680565b82601f106200064f57805160ff191683800117855562000680565b8280016001018555821562000680579182015b828111156200067f57825182559160200191906001019062000662565b5b5090506200068f9190620006bb565b5090565b5b80821115620006b75760008181620006ad9190620006da565b5060010162000694565b5090565b5b80821115620006d6576000816000905550600101620006bc565b5090565b508054620006e8906200086a565b6000825580601f10620006fc57506200071d565b601f0160209004906000526020600020908101906200071c9190620006bb565b5b50565b600080fd5b6000819050919050565b6200073a8162000725565b81146200074657600080fd5b50565b6000815190506200075a816200072f565b92915050565b600073ffffffffffffffffffffffffffffffffffffffff82169050919050565b60006200078d8262000760565b9050919050565b6200079f8162000780565b8114620007ab57600080fd5b50565b600081519050620007bf8162000794565b92915050565b60008060408385031215620007df57620007de62000720565b5b6000620007ef8582860162000749565b92505060206200080285828601620007ae565b9150509250929050565b7f4e487b7100000000000000000000000000000000000000000000000000000000600052603260045260246000fd5b7f4e487b7100000000000000000000000000000000000000000000000000000000600052602260045260246000fd5b600060028204905060018216806200088357607f821691505b602082108114156200089a57620008996200083b565b5b50919050565b600069ffffffffffffffffffff82169050919050565b620008c181620008a0565b8114620008cd57600080fd5b50565b600081519050620008e181620008b6565b92915050565b6000819050919050565b620008fc81620008e7565b81146200090857600080fd5b50565b6000815190506200091c81620008f1565b92915050565b600080600080600060a0868803121562000941576200094062000720565b5b60006200095188828901620008d0565b955050602062000964888289016200090b565b9450506040620009778882890162000749565b93505060606200098a8882890162000749565b92505060806200099d88828901620008d0565b9150509295509295909350565b615dd680620009ba6000396000f3fe608060405234801561001057600080fd5b50600436106101ce5760003560e01c80636b20c45411610104578063a22cb465116100a2578063e985e9c511610071578063e985e9c51461051e578063f242432a1461054e578063f2fde38b1461056a578063f5298aca14610586576101ce565b8063a22cb46514610496578063a2f69a59146104b2578063bd85b039146104d0578063cc286b8b14610500576101ce565b8063731133e9116100de578063731133e9146104205780638da5cb5b1461043c5780638e15f4731461045a5780639dd5848514610478576101ce565b80636b20c454146103c95780636e04ff0d146103e5578063715018a614610416576101ce565b80633eb50beb116101715780634e1273f41161014b5780634e1273f41461032f5780634f558e791461035f57806357f7789e1461038f578063590f2113146103ab576101ce565b80633eb50beb146102d75780633f3b3b27146102f55780634585e33b14610313576101ce565b80631d0806ae116101ad5780631d0806ae146102635780631d2a0561146102815780631f7fdffa1461029f5780632eb2c2d6146102bb576101ce565b8062fdd58e146101d357806301ffc9a7146102035780630e89341c14610233575b600080fd5b6101ed60048036038101906101e89190614116565b6105a2565b6040516101fa9190614165565b60405180910390f35b61021d600480360381019061021891906141d8565b61066b565b60405161022a9190614220565b60405180910390f35b61024d6004803603810190610248919061423b565b61074d565b60405161025a9190614301565b60405180910390f35b61026b6107f2565b604051610278919061433c565b60405180910390f35b6102896107f8565b6040516102969190614373565b60405180910390f35b6102b960048036038101906102b4919061458b565b6107fd565b005b6102d560048036038101906102d09190614646565b610817565b005b6102df6108b8565b6040516102ec9190614373565b60405180910390f35b6102fd6108bd565b60405161030a9190614165565b60405180910390f35b61032d60048036038101906103289190614770565b6108c3565b005b61034960048036038101906103449190614880565b6120ee565b60405161035691906149b6565b60405180910390f35b6103796004803603810190610374919061423b565b612207565b6040516103869190614220565b60405180910390f35b6103a960048036038101906103a49190614a79565b61221b565b005b6103b361224f565b6040516103c09190614b34565b60405180910390f35b6103e360048036038101906103de9190614b4f565b612275565b005b6103ff60048036038101906103fa9190614770565b612312565b60405161040d929190614c2f565b60405180910390f35b61041e612331565b005b61043a60048036038101906104359190614c5f565b612345565b005b61044461235f565b6040516104519190614cf1565b60405180910390f35b610462612389565b60405161046f919061433c565b60405180910390f35b610480612439565b60405161048d9190614373565b60405180910390f35b6104b060048036038101906104ab9190614d38565b61243e565b005b6104ba612454565b6040516104c79190614373565b60405180910390f35b6104ea60048036038101906104e5919061423b565b612459565b6040516104f79190614165565b60405180910390f35b610508612476565b6040516105159190614373565b60405180910390f35b61053860048036038101906105339190614d78565b61247b565b6040516105459190614220565b60405180910390f35b61056860048036038101906105639190614db8565b61250f565b005b610584600480360381019061057f9190614e4f565b6125b0565b005b6105a0600480360381019061059b9190614e7c565b612634565b005b60008073ffffffffffffffffffffffffffffffffffffffff168373ffffffffffffffffffffffffffffffffffffffff161415610613576040517f08c379a000000000000000000000000000000000000000000000000000000000815260040161060a90614f41565b60405180910390fd5b60008083815260200190815260200160002060008473ffffffffffffffffffffffffffffffffffffffff1673ffffffffffffffffffffffffffffffffffffffff16815260200190815260200160002054905092915050565b60007fd9b67a26000000000000000000000000000000000000000000000000000000007bffffffffffffffffffffffffffffffffffffffffffffffffffffffff1916827bffffffffffffffffffffffffffffffffffffffffffffffffffffffff1916148061073657507f0e89341c000000000000000000000000000000000000000000000000000000007bffffffffffffffffffffffffffffffffffffffffffffffffffffffff1916827bffffffffffffffffffffffffffffffffffffffffffffffffffffffff1916145b806107465750610745826126d1565b5b9050919050565b606060096000838152602001908152602001600020805461076d90614f90565b80601f016020809104026020016040519081016040528092919081815260200182805461079990614f90565b80156107e65780601f106107bb576101008083540402835291602001916107e6565b820191906000526020600020905b8154815290600101906020018083116107c957829003601f168201915b50505050509050919050565b60085481565b600281565b61080561273b565b610811848484846127b9565b50505050565b61081f6129e6565b73ffffffffffffffffffffffffffffffffffffffff168573ffffffffffffffffffffffffffffffffffffffff16148061086557506108648561085f6129e6565b61247b565b5b6108a4576040517f08c379a000000000000000000000000000000000000000000000000000000000815260040161089b90615034565b60405180910390fd5b6108b185858585856129ee565b5050505050565b600481565b60075481565b600654600754426108d49190615083565b11156120a6574260078190555060006108eb612389565b9050600854811261093a576109346040518060400160405280601c81526020017f4e4f204c49515549444154494f4e202d3e2072657475726e696e672100000000815250612d10565b506120ea565b600260085461094991906150e6565b811215610e1c5761098e6040518060400160405280601781526020017f416c6c205346547320676574206c697175696461746564000000000000000000815250612d10565b610a43600160ff16600b6000815481106109ab576109aa615150565b5b9060005260206000200180546109c090614f90565b80601f01602080910402602001604051908101604052809291908181526020018280546109ec90614f90565b8015610a395780601f10610a0e57610100808354040283529160200191610a39565b820191906000526020600020905b815481529060010190602001808311610a1c57829003601f168201915b505050505061221b565b610af8600260ff16600b600081548110610a6057610a5f615150565b5b906000526020600020018054610a7590614f90565b80601f0160208091040260200160405190810160405280929190818152602001828054610aa190614f90565b8015610aee5780601f10610ac357610100808354040283529160200191610aee565b820191906000526020600020905b815481529060010190602001808311610ad157829003601f168201915b505050505061221b565b610bad600360ff16600b600081548110610b1557610b14615150565b5b906000526020600020018054610b2a90614f90565b80601f0160208091040260200160405190810160405280929190818152602001828054610b5690614f90565b8015610ba35780601f10610b7857610100808354040283529160200191610ba3565b820191906000526020600020905b815481529060010190602001808311610b8657829003601f168201915b505050505061221b565b610c62600460ff16600b600081548110610bca57610bc9615150565b5b906000526020600020018054610bdf90614f90565b80601f0160208091040260200160405190810160405280929190818152602001828054610c0b90614f90565b8015610c585780601f10610c2d57610100808354040283529160200191610c58565b820191906000526020600020905b815481529060010190602001808311610c3b57829003601f168201915b505050505061221b565b610d17600560ff16600b600081548110610c7f57610c7e615150565b5b906000526020600020018054610c9490614f90565b80601f0160208091040260200160405190810160405280929190818152602001828054610cc090614f90565b8015610d0d5780601f10610ce257610100808354040283529160200191610d0d565b820191906000526020600020905b815481529060010190602001808311610cf057829003601f168201915b505050505061221b565b6001600a6000600160ff1660ff16815260200190815260200160002060006101000a81548160ff0219169083151502179055506001600a6000600260ff1660ff16815260200190815260200160002060006101000a81548160ff0219169083151502179055506001600a6000600360ff1660ff16815260200190815260200160002060006101000a81548160ff0219169083151502179055506001600a6000600460ff1660ff16815260200190815260200160002060006101000a81548160ff0219169083151502179055506001600a6000600560ff1660ff16815260200190815260200160002060006101000a81548160ff021916908315150217905550506120ea565b60036004600854610e2d91906150e6565b610e37919061517f565b8112156112c657610ef3600160ff16600b600081548110610e5b57610e5a615150565b5b906000526020600020018054610e7090614f90565b80601f0160208091040260200160405190810160405280929190818152602001828054610e9c90614f90565b8015610ee95780601f10610ebe57610100808354040283529160200191610ee9565b820191906000526020600020905b815481529060010190602001808311610ecc57829003601f168201915b505050505061221b565b610fa8600260ff16600b600081548110610f1057610f0f615150565b5b906000526020600020018054610f2590614f90565b80601f0160208091040260200160405190810160405280929190818152602001828054610f5190614f90565b8015610f9e5780601f10610f7357610100808354040283529160200191610f9e565b820191906000526020600020905b815481529060010190602001808311610f8157829003601f168201915b505050505061221b565b61105d600360ff16600b600081548110610fc557610fc4615150565b5b906000526020600020018054610fda90614f90565b80601f016020809104026020016040519081016040528092919081815260200182805461100690614f90565b80156110535780601f1061102857610100808354040283529160200191611053565b820191906000526020600020905b81548152906001019060200180831161103657829003601f168201915b505050505061221b565b611112600460ff16600b60008154811061107a57611079615150565b5b90600052602060002001805461108f90614f90565b80601f01602080910402602001604051908101604052809291908181526020018280546110bb90614f90565b80156111085780601f106110dd57610100808354040283529160200191611108565b820191906000526020600020905b8154815290600101906020018083116110eb57829003601f168201915b505050505061221b565b600a6000600560ff1660ff16815260200190815260200160002060009054906101000a900460ff166111f4576111f3600560ff16600b60018154811061115b5761115a615150565b5b90600052602060002001805461117090614f90565b80601f016020809104026020016040519081016040528092919081815260200182805461119c90614f90565b80156111e95780601f106111be576101008083540402835291602001916111e9565b820191906000526020600020905b8154815290600101906020018083116111cc57829003601f168201915b505050505061221b565b5b6001600a6000600160ff1660ff16815260200190815260200160002060006101000a81548160ff0219169083151502179055506001600a6000600260ff1660ff16815260200190815260200160002060006101000a81548160ff0219169083151502179055506001600a6000600360ff1660ff16815260200190815260200160002060006101000a81548160ff0219169083151502179055506001600a6000600460ff1660ff16815260200190815260200160002060006101000a81548160ff021916908315150217905550506120ea565b600460056008546112d791906150e6565b6112e1919061517f565b81121561176a5761139d600160ff16600b60008154811061130557611304615150565b5b90600052602060002001805461131a90614f90565b80601f016020809104026020016040519081016040528092919081815260200182805461134690614f90565b80156113935780601f1061136857610100808354040283529160200191611393565b820191906000526020600020905b81548152906001019060200180831161137657829003601f168201915b505050505061221b565b611452600260ff16600b6000815481106113ba576113b9615150565b5b9060005260206000200180546113cf90614f90565b80601f01602080910402602001604051908101604052809291908181526020018280546113fb90614f90565b80156114485780601f1061141d57610100808354040283529160200191611448565b820191906000526020600020905b81548152906001019060200180831161142b57829003601f168201915b505050505061221b565b611507600360ff16600b60008154811061146f5761146e615150565b5b90600052602060002001805461148490614f90565b80601f01602080910402602001604051908101604052809291908181526020018280546114b090614f90565b80156114fd5780601f106114d2576101008083540402835291602001916114fd565b820191906000526020600020905b8154815290600101906020018083116114e057829003601f168201915b505050505061221b565b600a6000600460ff1660ff16815260200190815260200160002060009054906101000a900460ff166115e9576115e8600460ff16600b6001815481106115505761154f615150565b5b90600052602060002001805461156590614f90565b80601f016020809104026020016040519081016040528092919081815260200182805461159190614f90565b80156115de5780601f106115b3576101008083540402835291602001916115de565b820191906000526020600020905b8154815290600101906020018083116115c157829003601f168201915b505050505061221b565b5b600a6000600560ff1660ff16815260200190815260200160002060009054906101000a900460ff166116cb576116ca600560ff16600b60028154811061163257611631615150565b5b90600052602060002001805461164790614f90565b80601f016020809104026020016040519081016040528092919081815260200182805461167390614f90565b80156116c05780601f10611695576101008083540402835291602001916116c0565b820191906000526020600020905b8154815290600101906020018083116116a357829003601f168201915b505050505061221b565b5b6001600a6000600160ff1660ff16815260200190815260200160002060006101000a81548160ff0219169083151502179055506001600a6000600260ff1660ff16815260200190815260200160002060006101000a81548160ff0219169083151502179055506001600a6000600360ff1660ff16815260200190815260200160002060006101000a81548160ff021916908315150217905550506120ea565b6009600a60085461177b91906150e6565b611785919061517f565b811215611c0857611841600160ff16600b6000815481106117a9576117a8615150565b5b9060005260206000200180546117be90614f90565b80601f01602080910402602001604051908101604052809291908181526020018280546117ea90614f90565b80156118375780601f1061180c57610100808354040283529160200191611837565b820191906000526020600020905b81548152906001019060200180831161181a57829003601f168201915b505050505061221b565b6118f6600260ff16600b60008154811061185e5761185d615150565b5b90600052602060002001805461187390614f90565b80601f016020809104026020016040519081016040528092919081815260200182805461189f90614f90565b80156118ec5780601f106118c1576101008083540402835291602001916118ec565b820191906000526020600020905b8154815290600101906020018083116118cf57829003601f168201915b505050505061221b565b600a6000600360ff1660ff16815260200190815260200160002060009054906101000a900460ff166119d8576119d7600360ff16600b60018154811061193f5761193e615150565b5b90600052602060002001805461195490614f90565b80601f016020809104026020016040519081016040528092919081815260200182805461198090614f90565b80156119cd5780601f106119a2576101008083540402835291602001916119cd565b820191906000526020600020905b8154815290600101906020018083116119b057829003601f168201915b505050505061221b565b5b600a6000600460ff1660ff16815260200190815260200160002060009054906101000a900460ff16611aba57611ab9600460ff16600b600281548110611a2157611a20615150565b5b906000526020600020018054611a3690614f90565b80601f0160208091040260200160405190810160405280929190818152602001828054611a6290614f90565b8015611aaf5780601f10611a8457610100808354040283529160200191611aaf565b820191906000526020600020905b815481529060010190602001808311611a9257829003601f168201915b505050505061221b565b5b600a6000600560ff1660ff16815260200190815260200160002060009054906101000a900460ff16611b9c57611b9b600560ff16600b600381548110611b0357611b02615150565b5b906000526020600020018054611b1890614f90565b80601f0160208091040260200160405190810160405280929190818152602001828054611b4490614f90565b8015611b915780601f10611b6657610100808354040283529160200191611b91565b820191906000526020600020905b815481529060010190602001808311611b7457829003601f168201915b505050505061221b565b5b6001600a6000600160ff1660ff16815260200190815260200160002060006101000a81548160ff0219169083151502179055506001600a6000600260ff1660ff16815260200190815260200160002060006101000a81548160ff021916908315150217905550506120ea565b60136014600854611c1991906150e6565b611c23919061517f565b8112156120a057611cdf600160ff16600b600081548110611c4757611c46615150565b5b906000526020600020018054611c5c90614f90565b80601f0160208091040260200160405190810160405280929190818152602001828054611c8890614f90565b8015611cd55780601f10611caa57610100808354040283529160200191611cd5565b820191906000526020600020905b815481529060010190602001808311611cb857829003601f168201915b505050505061221b565b600a6000600260ff1660ff16815260200190815260200160002060009054906101000a900460ff16611dc157611dc0600260ff16600b600181548110611d2857611d27615150565b5b906000526020600020018054611d3d90614f90565b80601f0160208091040260200160405190810160405280929190818152602001828054611d6990614f90565b8015611db65780601f10611d8b57610100808354040283529160200191611db6565b820191906000526020600020905b815481529060010190602001808311611d9957829003601f168201915b505050505061221b565b5b600a6000600360ff1660ff16815260200190815260200160002060009054906101000a900460ff16611ea357611ea2600360ff16600b600281548110611e0a57611e09615150565b5b906000526020600020018054611e1f90614f90565b80601f0160208091040260200160405190810160405280929190818152602001828054611e4b90614f90565b8015611e985780601f10611e6d57610100808354040283529160200191611e98565b820191906000526020600020905b815481529060010190602001808311611e7b57829003601f168201915b505050505061221b565b5b600a6000600460ff1660ff16815260200190815260200160002060009054906101000a900460ff16611f8557611f84600460ff16600b600381548110611eec57611eeb615150565b5b906000526020600020018054611f0190614f90565b80601f0160208091040260200160405190810160405280929190818152602001828054611f2d90614f90565b8015611f7a5780601f10611f4f57610100808354040283529160200191611f7a565b820191906000526020600020905b815481529060010190602001808311611f5d57829003601f168201915b505050505061221b565b5b600a6000600560ff1660ff16815260200190815260200160002060009054906101000a900460ff1661206757612066600560ff16600b600481548110611fce57611fcd615150565b5b906000526020600020018054611fe390614f90565b80601f016020809104026020016040519081016040528092919081815260200182805461200f90614f90565b801561205c5780601f106120315761010080835404028352916020019161205c565b820191906000526020600020905b81548152906001019060200180831161203f57829003601f168201915b505050505061221b565b5b6001600a6000600160ff1660ff16815260200190815260200160002060006101000a81548160ff021916908315150217905550506120ea565b506120e9565b6120e46040518060400160405280601181526020017f20494e54455256414c204e4f5420555021000000000000000000000000000000815250612d10565b6120ea565b5b5050565b60608151835114612134576040517f08c379a000000000000000000000000000000000000000000000000000000000815260040161212b90615308565b60405180910390fd5b6000835167ffffffffffffffff81111561215157612150614393565b5b60405190808252806020026020018201604052801561217f5781602001602082028036833780820191505090505b50905060005b84518110156121fc576121cc8582815181106121a4576121a3615150565b5b60200260200101518583815181106121bf576121be615150565b5b60200260200101516105a2565b8282815181106121df576121de615150565b5b602002602001018181525050806121f590615328565b9050612185565b508091505092915050565b60008061221383612459565b119050919050565b61222361273b565b8060096000848152602001908152602001600020908051906020019061224a929190613fcb565b505050565b600560009054906101000a900473ffffffffffffffffffffffffffffffffffffffff1681565b61227d6129e6565b73ffffffffffffffffffffffffffffffffffffffff168373ffffffffffffffffffffffffffffffffffffffff1614806122c357506122c2836122bd6129e6565b61247b565b5b612302576040517f08c379a00000000000000000000000000000000000000000000000000000000081526004016122f990615034565b60405180910390fd5b61230d838383612da9565b505050565b60006060600654600754426123279190615083565b1191509250929050565b61233961273b565b6123436000613078565b565b61234d61273b565b6123598484848461313e565b50505050565b6000600360009054906101000a900473ffffffffffffffffffffffffffffffffffffffff16905090565b600080600560009054906101000a900473ffffffffffffffffffffffffffffffffffffffff1673ffffffffffffffffffffffffffffffffffffffff1663feaf968c6040518163ffffffff1660e01b815260040160a06040518083038186803b1580156123f457600080fd5b505afa158015612408573d6000803e3d6000fd5b505050506040513d601f19601f8201168201806040525081019061242c91906153f4565b5050509150508091505090565b600181565b6124506124496129e6565b83836132ef565b5050565b600381565b600060046000838152602001908152602001600020549050919050565b600581565b6000600160008473ffffffffffffffffffffffffffffffffffffffff1673ffffffffffffffffffffffffffffffffffffffff16815260200190815260200160002060008373ffffffffffffffffffffffffffffffffffffffff1673ffffffffffffffffffffffffffffffffffffffff16815260200190815260200160002060009054906101000a900460ff16905092915050565b6125176129e6565b73ffffffffffffffffffffffffffffffffffffffff168573ffffffffffffffffffffffffffffffffffffffff16148061255d575061255c856125576129e6565b61247b565b5b61259c576040517f08c379a000000000000000000000000000000000000000000000000000000000815260040161259390615034565b60405180910390fd5b6125a9858585858561345c565b5050505050565b6125b861273b565b600073ffffffffffffffffffffffffffffffffffffffff168173ffffffffffffffffffffffffffffffffffffffff161415612628576040517f08c379a000000000000000000000000000000000000000000000000000000000815260040161261f906154e1565b60405180910390fd5b61263181613078565b50565b61263c6129e6565b73ffffffffffffffffffffffffffffffffffffffff168373ffffffffffffffffffffffffffffffffffffffff16148061268257506126818361267c6129e6565b61247b565b5b6126c1576040517f08c379a00000000000000000000000000000000000000000000000000000000081526004016126b890615034565b60405180910390fd5b6126cc8383836136f8565b505050565b60007f01ffc9a7000000000000000000000000000000000000000000000000000000007bffffffffffffffffffffffffffffffffffffffffffffffffffffffff1916827bffffffffffffffffffffffffffffffffffffffffffffffffffffffff1916149050919050565b6127436129e6565b73ffffffffffffffffffffffffffffffffffffffff1661276161235f565b73ffffffffffffffffffffffffffffffffffffffff16146127b7576040517f08c379a00000000000000000000000000000000000000000000000000000000081526004016127ae9061554d565b60405180910390fd5b565b600073ffffffffffffffffffffffffffffffffffffffff168473ffffffffffffffffffffffffffffffffffffffff161415612829576040517f08c379a0000000000000000000000000000000000000000000000000000000008152600401612820906155df565b60405180910390fd5b815183511461286d576040517f08c379a000000000000000000000000000000000000000000000000000000000815260040161286490615671565b60405180910390fd5b60006128776129e6565b90506128888160008787878761393f565b60005b8451811015612941578381815181106128a7576128a6615150565b5b60200260200101516000808784815181106128c5576128c4615150565b5b6020026020010151815260200190815260200160002060008873ffffffffffffffffffffffffffffffffffffffff1673ffffffffffffffffffffffffffffffffffffffff16815260200190815260200160002060008282546129279190615691565b92505081905550808061293990615328565b91505061288b565b508473ffffffffffffffffffffffffffffffffffffffff16600073ffffffffffffffffffffffffffffffffffffffff168273ffffffffffffffffffffffffffffffffffffffff167f4a39dc06d4c0dbc64b70af90fd698a233a518aa5d07e595d983b8c0526c8f7fb87876040516129b99291906156e7565b60405180910390a46129d081600087878787613955565b6129df8160008787878761395d565b5050505050565b600033905090565b8151835114612a32576040517f08c379a0000000000000000000000000000000000000000000000000000000008152600401612a2990615671565b60405180910390fd5b600073ffffffffffffffffffffffffffffffffffffffff168473ffffffffffffffffffffffffffffffffffffffff161415612aa2576040517f08c379a0000000000000000000000000000000000000000000000000000000008152600401612a9990615790565b60405180910390fd5b6000612aac6129e6565b9050612abc81878787878761393f565b60005b8451811015612c6d576000858281518110612add57612adc615150565b5b602002602001015190506000858381518110612afc57612afb615150565b5b60200260200101519050600080600084815260200190815260200160002060008b73ffffffffffffffffffffffffffffffffffffffff1673ffffffffffffffffffffffffffffffffffffffff16815260200190815260200160002054905081811015612b9d576040517f08c379a0000000000000000000000000000000000000000000000000000000008152600401612b9490615822565b60405180910390fd5b81810360008085815260200190815260200160002060008c73ffffffffffffffffffffffffffffffffffffffff1673ffffffffffffffffffffffffffffffffffffffff168152602001908152602001600020819055508160008085815260200190815260200160002060008b73ffffffffffffffffffffffffffffffffffffffff1673ffffffffffffffffffffffffffffffffffffffff1681526020019081526020016000206000828254612c529190615691565b9250508190555050505080612c6690615328565b9050612abf565b508473ffffffffffffffffffffffffffffffffffffffff168673ffffffffffffffffffffffffffffffffffffffff168273ffffffffffffffffffffffffffffffffffffffff167f4a39dc06d4c0dbc64b70af90fd698a233a518aa5d07e595d983b8c0526c8f7fb8787604051612ce49291906156e7565b60405180910390a4612cfa818787878787613955565b612d0881878787878761395d565b505050505050565b612da681604051602401612d249190614301565b6040516020818303038152906040527f41304fac000000000000000000000000000000000000000000000000000000007bffffffffffffffffffffffffffffffffffffffffffffffffffffffff19166020820180517bffffffffffffffffffffffffffffffffffffffffffffffffffffffff8381831617835250505050613b44565b50565b600073ffffffffffffffffffffffffffffffffffffffff168373ffffffffffffffffffffffffffffffffffffffff161415612e19576040517f08c379a0000000000000000000000000000000000000000000000000000000008152600401612e10906158b4565b60405180910390fd5b8051825114612e5d576040517f08c379a0000000000000000000000000000000000000000000000000000000008152600401612e5490615671565b60405180910390fd5b6000612e676129e6565b9050612e878185600086866040518060200160405280600081525061393f565b60005b8351811015612fd4576000848281518110612ea857612ea7615150565b5b602002602001015190506000848381518110612ec757612ec6615150565b5b60200260200101519050600080600084815260200190815260200160002060008973ffffffffffffffffffffffffffffffffffffffff1673ffffffffffffffffffffffffffffffffffffffff16815260200190815260200160002054905081811015612f68576040517f08c379a0000000000000000000000000000000000000000000000000000000008152600401612f5f90615946565b60405180910390fd5b81810360008085815260200190815260200160002060008a73ffffffffffffffffffffffffffffffffffffffff1673ffffffffffffffffffffffffffffffffffffffff168152602001908152602001600020819055505050508080612fcc90615328565b915050612e8a565b50600073ffffffffffffffffffffffffffffffffffffffff168473ffffffffffffffffffffffffffffffffffffffff168273ffffffffffffffffffffffffffffffffffffffff167f4a39dc06d4c0dbc64b70af90fd698a233a518aa5d07e595d983b8c0526c8f7fb868660405161304c9291906156e7565b60405180910390a461307281856000868660405180602001604052806000815250613955565b50505050565b6000600360009054906101000a900473ffffffffffffffffffffffffffffffffffffffff16905081600360006101000a81548173ffffffffffffffffffffffffffffffffffffffff021916908373ffffffffffffffffffffffffffffffffffffffff1602179055508173ffffffffffffffffffffffffffffffffffffffff168173ffffffffffffffffffffffffffffffffffffffff167f8be0079c531659141344cd1fd0a4f28419497f9722a3daafe3b4186f6b6457e060405160405180910390a35050565b600073ffffffffffffffffffffffffffffffffffffffff168473ffffffffffffffffffffffffffffffffffffffff1614156131ae576040517f08c379a00000000000000000000000000000000000000000000000000000000081526004016131a5906155df565b60405180910390fd5b60006131b86129e6565b905060006131c585613b6d565b905060006131d285613b6d565b90506131e38360008985858961393f565b8460008088815260200190815260200160002060008973ffffffffffffffffffffffffffffffffffffffff1673ffffffffffffffffffffffffffffffffffffffff16815260200190815260200160002060008282546132429190615691565b925050819055508673ffffffffffffffffffffffffffffffffffffffff16600073ffffffffffffffffffffffffffffffffffffffff168473ffffffffffffffffffffffffffffffffffffffff167fc3d58168c5ae7397731d063d5bbf3d657854427343f4c083240f7aacaa2d0f6289896040516132c0929190615966565b60405180910390a46132d783600089858589613955565b6132e683600089898989613be7565b50505050505050565b8173ffffffffffffffffffffffffffffffffffffffff168373ffffffffffffffffffffffffffffffffffffffff16141561335e576040517f08c379a000000000000000000000000000000000000000000000000000000000815260040161335590615a01565b60405180910390fd5b80600160008573ffffffffffffffffffffffffffffffffffffffff1673ffffffffffffffffffffffffffffffffffffffff16815260200190815260200160002060008473ffffffffffffffffffffffffffffffffffffffff1673ffffffffffffffffffffffffffffffffffffffff16815260200190815260200160002060006101000a81548160ff0219169083151502179055508173ffffffffffffffffffffffffffffffffffffffff168373ffffffffffffffffffffffffffffffffffffffff167f17307eab39ab6107e8899845ad3d59bd9653f200f220920489ca2b5937696c318360405161344f9190614220565b60405180910390a3505050565b600073ffffffffffffffffffffffffffffffffffffffff168473ffffffffffffffffffffffffffffffffffffffff1614156134cc576040517f08c379a00000000000000000000000000000000000000000000000000000000081526004016134c390615790565b60405180910390fd5b60006134d66129e6565b905060006134e385613b6d565b905060006134f085613b6d565b905061350083898985858961393f565b600080600088815260200190815260200160002060008a73ffffffffffffffffffffffffffffffffffffffff1673ffffffffffffffffffffffffffffffffffffffff16815260200190815260200160002054905085811015613597576040517f08c379a000000000000000000000000000000000000000000000000000000000815260040161358e90615822565b60405180910390fd5b85810360008089815260200190815260200160002060008b73ffffffffffffffffffffffffffffffffffffffff1673ffffffffffffffffffffffffffffffffffffffff168152602001908152602001600020819055508560008089815260200190815260200160002060008a73ffffffffffffffffffffffffffffffffffffffff1673ffffffffffffffffffffffffffffffffffffffff168152602001908152602001600020600082825461364c9190615691565b925050819055508773ffffffffffffffffffffffffffffffffffffffff168973ffffffffffffffffffffffffffffffffffffffff168573ffffffffffffffffffffffffffffffffffffffff167fc3d58168c5ae7397731d063d5bbf3d657854427343f4c083240f7aacaa2d0f628a8a6040516136c9929190615966565b60405180910390a46136df848a8a86868a613955565b6136ed848a8a8a8a8a613be7565b505050505050505050565b600073ffffffffffffffffffffffffffffffffffffffff168373ffffffffffffffffffffffffffffffffffffffff161415613768576040517f08c379a000000000000000000000000000000000000000000000000000000000815260040161375f906158b4565b60405180910390fd5b60006137726129e6565b9050600061377f84613b6d565b9050600061378c84613b6d565b90506137ac8387600085856040518060200160405280600081525061393f565b600080600087815260200190815260200160002060008873ffffffffffffffffffffffffffffffffffffffff1673ffffffffffffffffffffffffffffffffffffffff16815260200190815260200160002054905084811015613843576040517f08c379a000000000000000000000000000000000000000000000000000000000815260040161383a90615946565b60405180910390fd5b84810360008088815260200190815260200160002060008973ffffffffffffffffffffffffffffffffffffffff1673ffffffffffffffffffffffffffffffffffffffff16815260200190815260200160002081905550600073ffffffffffffffffffffffffffffffffffffffff168773ffffffffffffffffffffffffffffffffffffffff168573ffffffffffffffffffffffffffffffffffffffff167fc3d58168c5ae7397731d063d5bbf3d657854427343f4c083240f7aacaa2d0f628989604051613910929190615966565b60405180910390a461393684886000868660405180602001604052806000815250613955565b50505050505050565b61394d868686868686613dce565b505050505050565b505050505050565b61397c8473ffffffffffffffffffffffffffffffffffffffff16613fa0565b15613b3c578373ffffffffffffffffffffffffffffffffffffffff1663bc197c8187878686866040518663ffffffff1660e01b81526004016139c2959493929190615a21565b602060405180830381600087803b1580156139dc57600080fd5b505af1925050508015613a0d57506040513d601f19601f82011682018060405250810190613a0a9190615a9e565b60015b613ab357613a19615ad8565b806308c379a01415613a765750613a2e615afa565b80613a395750613a78565b806040517f08c379a0000000000000000000000000000000000000000000000000000000008152600401613a6d9190614301565b60405180910390fd5b505b6040517f08c379a0000000000000000000000000000000000000000000000000000000008152600401613aaa90615c02565b60405180910390fd5b63bc197c8160e01b7bffffffffffffffffffffffffffffffffffffffffffffffffffffffff1916817bffffffffffffffffffffffffffffffffffffffffffffffffffffffff191614613b3a576040517f08c379a0000000000000000000000000000000000000000000000000000000008152600401613b3190615c94565b60405180910390fd5b505b505050505050565b60008151905060006a636f6e736f6c652e6c6f679050602083016000808483855afa5050505050565b60606000600167ffffffffffffffff811115613b8c57613b8b614393565b5b604051908082528060200260200182016040528015613bba5781602001602082028036833780820191505090505b5090508281600081518110613bd257613bd1615150565b5b60200260200101818152505080915050919050565b613c068473ffffffffffffffffffffffffffffffffffffffff16613fa0565b15613dc6578373ffffffffffffffffffffffffffffffffffffffff1663f23a6e6187878686866040518663ffffffff1660e01b8152600401613c4c959493929190615cb4565b602060405180830381600087803b158015613c6657600080fd5b505af1925050508015613c9757506040513d601f19601f82011682018060405250810190613c949190615a9e565b60015b613d3d57613ca3615ad8565b806308c379a01415613d005750613cb8615afa565b80613cc35750613d02565b806040517f08c379a0000000000000000000000000000000000000000000000000000000008152600401613cf79190614301565b60405180910390fd5b505b6040517f08c379a0000000000000000000000000000000000000000000000000000000008152600401613d3490615c02565b60405180910390fd5b63f23a6e6160e01b7bffffffffffffffffffffffffffffffffffffffffffffffffffffffff1916817bffffffffffffffffffffffffffffffffffffffffffffffffffffffff191614613dc4576040517f08c379a0000000000000000000000000000000000000000000000000000000008152600401613dbb90615c94565b60405180910390fd5b505b505050505050565b613ddc868686868686613fc3565b600073ffffffffffffffffffffffffffffffffffffffff168573ffffffffffffffffffffffffffffffffffffffff161415613e8e5760005b8351811015613e8c57828181518110613e3057613e2f615150565b5b602002602001015160046000868481518110613e4f57613e4e615150565b5b602002602001015181526020019081526020016000206000828254613e749190615691565b9250508190555080613e8590615328565b9050613e14565b505b600073ffffffffffffffffffffffffffffffffffffffff168473ffffffffffffffffffffffffffffffffffffffff161415613f985760005b8351811015613f96576000848281518110613ee457613ee3615150565b5b602002602001015190506000848381518110613f0357613f02615150565b5b6020026020010151905060006004600084815260200190815260200160002054905081811015613f68576040517f08c379a0000000000000000000000000000000000000000000000000000000008152600401613f5f90615d80565b60405180910390fd5b818103600460008581526020019081526020016000208190555050505080613f8f90615328565b9050613ec6565b505b505050505050565b6000808273ffffffffffffffffffffffffffffffffffffffff163b119050919050565b505050505050565b828054613fd790614f90565b90600052602060002090601f016020900481019282613ff95760008555614040565b82601f1061401257805160ff1916838001178555614040565b82800160010185558215614040579182015b8281111561403f578251825591602001919060010190614024565b5b50905061404d9190614051565b5090565b5b8082111561406a576000816000905550600101614052565b5090565b6000604051905090565b600080fd5b600080fd5b600073ffffffffffffffffffffffffffffffffffffffff82169050919050565b60006140ad82614082565b9050919050565b6140bd816140a2565b81146140c857600080fd5b50565b6000813590506140da816140b4565b92915050565b6000819050919050565b6140f3816140e0565b81146140fe57600080fd5b50565b600081359050614110816140ea565b92915050565b6000806040838503121561412d5761412c614078565b5b600061413b858286016140cb565b925050602061414c85828601614101565b9150509250929050565b61415f816140e0565b82525050565b600060208201905061417a6000830184614156565b92915050565b60007fffffffff0000000000000000000000000000000000000000000000000000000082169050919050565b6141b581614180565b81146141c057600080fd5b50565b6000813590506141d2816141ac565b92915050565b6000602082840312156141ee576141ed614078565b5b60006141fc848285016141c3565b91505092915050565b60008115159050919050565b61421a81614205565b82525050565b60006020820190506142356000830184614211565b92915050565b60006020828403121561425157614250614078565b5b600061425f84828501614101565b91505092915050565b600081519050919050565b600082825260208201905092915050565b60005b838110156142a2578082015181840152602081019050614287565b838111156142b1576000848401525b50505050565b6000601f19601f8301169050919050565b60006142d382614268565b6142dd8185614273565b93506142ed818560208601614284565b6142f6816142b7565b840191505092915050565b6000602082019050818103600083015261431b81846142c8565b905092915050565b6000819050919050565b61433681614323565b82525050565b6000602082019050614351600083018461432d565b92915050565b600060ff82169050919050565b61436d81614357565b82525050565b60006020820190506143886000830184614364565b92915050565b600080fd5b7f4e487b7100000000000000000000000000000000000000000000000000000000600052604160045260246000fd5b6143cb826142b7565b810181811067ffffffffffffffff821117156143ea576143e9614393565b5b80604052505050565b60006143fd61406e565b905061440982826143c2565b919050565b600067ffffffffffffffff82111561442957614428614393565b5b602082029050602081019050919050565b600080fd5b600061445261444d8461440e565b6143f3565b905080838252602082019050602084028301858111156144755761447461443a565b5b835b8181101561449e578061448a8882614101565b845260208401935050602081019050614477565b5050509392505050565b600082601f8301126144bd576144bc61438e565b5b81356144cd84826020860161443f565b91505092915050565b600080fd5b600067ffffffffffffffff8211156144f6576144f5614393565b5b6144ff826142b7565b9050602081019050919050565b82818337600083830152505050565b600061452e614529846144db565b6143f3565b90508281526020810184848401111561454a576145496144d6565b5b61455584828561450c565b509392505050565b600082601f8301126145725761457161438e565b5b813561458284826020860161451b565b91505092915050565b600080600080608085870312156145a5576145a4614078565b5b60006145b3878288016140cb565b945050602085013567ffffffffffffffff8111156145d4576145d361407d565b5b6145e0878288016144a8565b935050604085013567ffffffffffffffff8111156146015761460061407d565b5b61460d878288016144a8565b925050606085013567ffffffffffffffff81111561462e5761462d61407d565b5b61463a8782880161455d565b91505092959194509250565b600080600080600060a0868803121561466257614661614078565b5b6000614670888289016140cb565b9550506020614681888289016140cb565b945050604086013567ffffffffffffffff8111156146a2576146a161407d565b5b6146ae888289016144a8565b935050606086013567ffffffffffffffff8111156146cf576146ce61407d565b5b6146db888289016144a8565b925050608086013567ffffffffffffffff8111156146fc576146fb61407d565b5b6147088882890161455d565b9150509295509295909350565b600080fd5b60008083601f8401126147305761472f61438e565b5b8235905067ffffffffffffffff81111561474d5761474c614715565b5b6020830191508360018202830111156147695761476861443a565b5b9250929050565b6000806020838503121561478757614786614078565b5b600083013567ffffffffffffffff8111156147a5576147a461407d565b5b6147b18582860161471a565b92509250509250929050565b600067ffffffffffffffff8211156147d8576147d7614393565b5b602082029050602081019050919050565b60006147fc6147f7846147bd565b6143f3565b9050808382526020820190506020840283018581111561481f5761481e61443a565b5b835b81811015614848578061483488826140cb565b845260208401935050602081019050614821565b5050509392505050565b600082601f8301126148675761486661438e565b5b81356148778482602086016147e9565b91505092915050565b6000806040838503121561489757614896614078565b5b600083013567ffffffffffffffff8111156148b5576148b461407d565b5b6148c185828601614852565b925050602083013567ffffffffffffffff8111156148e2576148e161407d565b5b6148ee858286016144a8565b9150509250929050565b600081519050919050565b600082825260208201905092915050565b6000819050602082019050919050565b61492d816140e0565b82525050565b600061493f8383614924565b60208301905092915050565b6000602082019050919050565b6000614963826148f8565b61496d8185614903565b935061497883614914565b8060005b838110156149a95781516149908882614933565b975061499b8361494b565b92505060018101905061497c565b5085935050505092915050565b600060208201905081810360008301526149d08184614958565b905092915050565b600067ffffffffffffffff8211156149f3576149f2614393565b5b6149fc826142b7565b9050602081019050919050565b6000614a1c614a17846149d8565b6143f3565b905082815260208101848484011115614a3857614a376144d6565b5b614a4384828561450c565b509392505050565b600082601f830112614a6057614a5f61438e565b5b8135614a70848260208601614a09565b91505092915050565b60008060408385031215614a9057614a8f614078565b5b6000614a9e85828601614101565b925050602083013567ffffffffffffffff811115614abf57614abe61407d565b5b614acb85828601614a4b565b9150509250929050565b6000819050919050565b6000614afa614af5614af084614082565b614ad5565b614082565b9050919050565b6000614b0c82614adf565b9050919050565b6000614b1e82614b01565b9050919050565b614b2e81614b13565b82525050565b6000602082019050614b496000830184614b25565b92915050565b600080600060608486031215614b6857614b67614078565b5b6000614b76868287016140cb565b935050602084013567ffffffffffffffff811115614b9757614b9661407d565b5b614ba3868287016144a8565b925050604084013567ffffffffffffffff811115614bc457614bc361407d565b5b614bd0868287016144a8565b9150509250925092565b600081519050919050565b600082825260208201905092915050565b6000614c0182614bda565b614c0b8185614be5565b9350614c1b818560208601614284565b614c24816142b7565b840191505092915050565b6000604082019050614c446000830185614211565b8181036020830152614c568184614bf6565b90509392505050565b60008060008060808587031215614c7957614c78614078565b5b6000614c87878288016140cb565b9450506020614c9887828801614101565b9350506040614ca987828801614101565b925050606085013567ffffffffffffffff811115614cca57614cc961407d565b5b614cd68782880161455d565b91505092959194509250565b614ceb816140a2565b82525050565b6000602082019050614d066000830184614ce2565b92915050565b614d1581614205565b8114614d2057600080fd5b50565b600081359050614d3281614d0c565b92915050565b60008060408385031215614d4f57614d4e614078565b5b6000614d5d858286016140cb565b9250506020614d6e85828601614d23565b9150509250929050565b60008060408385031215614d8f57614d8e614078565b5b6000614d9d858286016140cb565b9250506020614dae858286016140cb565b9150509250929050565b600080600080600060a08688031215614dd457614dd3614078565b5b6000614de2888289016140cb565b9550506020614df3888289016140cb565b9450506040614e0488828901614101565b9350506060614e1588828901614101565b925050608086013567ffffffffffffffff811115614e3657614e3561407d565b5b614e428882890161455d565b9150509295509295909350565b600060208284031215614e6557614e64614078565b5b6000614e73848285016140cb565b91505092915050565b600080600060608486031215614e9557614e94614078565b5b6000614ea3868287016140cb565b9350506020614eb486828701614101565b9250506040614ec586828701614101565b9150509250925092565b7f455243313135353a2061646472657373207a65726f206973206e6f742061207660008201527f616c6964206f776e657200000000000000000000000000000000000000000000602082015250565b6000614f2b602a83614273565b9150614f3682614ecf565b604082019050919050565b60006020820190508181036000830152614f5a81614f1e565b9050919050565b7f4e487b7100000000000000000000000000000000000000000000000000000000600052602260045260246000fd5b60006002820490506001821680614fa857607f821691505b60208210811415614fbc57614fbb614f61565b5b50919050565b7f455243313135353a2063616c6c6572206973206e6f7420746f6b656e206f776e60008201527f6572206e6f7220617070726f7665640000000000000000000000000000000000602082015250565b600061501e602f83614273565b915061502982614fc2565b604082019050919050565b6000602082019050818103600083015261504d81615011565b9050919050565b7f4e487b7100000000000000000000000000000000000000000000000000000000600052601160045260246000fd5b600061508e826140e0565b9150615099836140e0565b9250828210156150ac576150ab615054565b5b828203905092915050565b7f4e487b7100000000000000000000000000000000000000000000000000000000600052601260045260246000fd5b60006150f182614323565b91506150fc83614323565b92508261510c5761510b6150b7565b5b600160000383147f80000000000000000000000000000000000000000000000000000000000000008314161561514557615144615054565b5b828205905092915050565b7f4e487b7100000000000000000000000000000000000000000000000000000000600052603260045260246000fd5b600061518a82614323565b915061519583614323565b9250827f7fffffffffffffffffffffffffffffffffffffffffffffffffffffffffffffff04821160008413600084131616156151d4576151d3615054565b5b817f8000000000000000000000000000000000000000000000000000000000000000058312600084126000841316161561521157615210615054565b5b827f8000000000000000000000000000000000000000000000000000000000000000058212600084136000841216161561524e5761524d615054565b5b827f7fffffffffffffffffffffffffffffffffffffffffffffffffffffffffffffff058212600084126000841216161561528b5761528a615054565b5b828202905092915050565b7f455243313135353a206163636f756e747320616e6420696473206c656e67746860008201527f206d69736d617463680000000000000000000000000000000000000000000000602082015250565b60006152f2602983614273565b91506152fd82615296565b604082019050919050565b60006020820190508181036000830152615321816152e5565b9050919050565b6000615333826140e0565b91507fffffffffffffffffffffffffffffffffffffffffffffffffffffffffffffffff82141561536657615365615054565b5b600182019050919050565b600069ffffffffffffffffffff82169050919050565b61539081615371565b811461539b57600080fd5b50565b6000815190506153ad81615387565b92915050565b6153bc81614323565b81146153c757600080fd5b50565b6000815190506153d9816153b3565b92915050565b6000815190506153ee816140ea565b92915050565b600080600080600060a086880312156154105761540f614078565b5b600061541e8882890161539e565b955050602061542f888289016153ca565b9450506040615440888289016153df565b9350506060615451888289016153df565b92505060806154628882890161539e565b9150509295509295909350565b7f4f776e61626c653a206e6577206f776e657220697320746865207a65726f206160008201527f6464726573730000000000000000000000000000000000000000000000000000602082015250565b60006154cb602683614273565b91506154d68261546f565b604082019050919050565b600060208201905081810360008301526154fa816154be565b9050919050565b7f4f776e61626c653a2063616c6c6572206973206e6f7420746865206f776e6572600082015250565b6000615537602083614273565b915061554282615501565b602082019050919050565b600060208201905081810360008301526155668161552a565b9050919050565b7f455243313135353a206d696e7420746f20746865207a65726f2061646472657360008201527f7300000000000000000000000000000000000000000000000000000000000000602082015250565b60006155c9602183614273565b91506155d48261556d565b604082019050919050565b600060208201905081810360008301526155f8816155bc565b9050919050565b7f455243313135353a2069647320616e6420616d6f756e7473206c656e6774682060008201527f6d69736d61746368000000000000000000000000000000000000000000000000602082015250565b600061565b602883614273565b9150615666826155ff565b604082019050919050565b6000602082019050818103600083015261568a8161564e565b9050919050565b600061569c826140e0565b91506156a7836140e0565b9250827fffffffffffffffffffffffffffffffffffffffffffffffffffffffffffffffff038211156156dc576156db615054565b5b828201905092915050565b600060408201905081810360008301526157018185614958565b905081810360208301526157158184614958565b90509392505050565b7f455243313135353a207472616e7366657220746f20746865207a65726f20616460008201527f6472657373000000000000000000000000000000000000000000000000000000602082015250565b600061577a602583614273565b91506157858261571e565b604082019050919050565b600060208201905081810360008301526157a98161576d565b9050919050565b7f455243313135353a20696e73756666696369656e742062616c616e636520666f60008201527f72207472616e7366657200000000000000000000000000000000000000000000602082015250565b600061580c602a83614273565b9150615817826157b0565b604082019050919050565b6000602082019050818103600083015261583b816157ff565b9050919050565b7f455243313135353a206275726e2066726f6d20746865207a65726f206164647260008201527f6573730000000000000000000000000000000000000000000000000000000000602082015250565b600061589e602383614273565b91506158a982615842565b604082019050919050565b600060208201905081810360008301526158cd81615891565b9050919050565b7f455243313135353a206275726e20616d6f756e7420657863656564732062616c60008201527f616e636500000000000000000000000000000000000000000000000000000000602082015250565b6000615930602483614273565b915061593b826158d4565b604082019050919050565b6000602082019050818103600083015261595f81615923565b9050919050565b600060408201905061597b6000830185614156565b6159886020830184614156565b9392505050565b7f455243313135353a2073657474696e6720617070726f76616c2073746174757360008201527f20666f722073656c660000000000000000000000000000000000000000000000602082015250565b60006159eb602983614273565b91506159f68261598f565b604082019050919050565b60006020820190508181036000830152615a1a816159de565b9050919050565b600060a082019050615a366000830188614ce2565b615a436020830187614ce2565b8181036040830152615a558186614958565b90508181036060830152615a698185614958565b90508181036080830152615a7d8184614bf6565b90509695505050505050565b600081519050615a98816141ac565b92915050565b600060208284031215615ab457615ab3614078565b5b6000615ac284828501615a89565b91505092915050565b60008160e01c9050919050565b600060033d1115615af75760046000803e615af4600051615acb565b90505b90565b600060443d1015615b0a57615b8d565b615b1261406e565b60043d036004823e80513d602482011167ffffffffffffffff82111715615b3a575050615b8d565b808201805167ffffffffffffffff811115615b585750505050615b8d565b80602083010160043d038501811115615b75575050505050615b8d565b615b84826020018501866143c2565b82955050505050505b90565b7f455243313135353a207472616e7366657220746f206e6f6e204552433131353560008201527f526563656976657220696d706c656d656e746572000000000000000000000000602082015250565b6000615bec603483614273565b9150615bf782615b90565b604082019050919050565b60006020820190508181036000830152615c1b81615bdf565b9050919050565b7f455243313135353a204552433131353552656365697665722072656a6563746560008201527f6420746f6b656e73000000000000000000000000000000000000000000000000602082015250565b6000615c7e602883614273565b9150615c8982615c22565b604082019050919050565b60006020820190508181036000830152615cad81615c71565b9050919050565b600060a082019050615cc96000830188614ce2565b615cd66020830187614ce2565b615ce36040830186614156565b615cf06060830185614156565b8181036080830152615d028184614bf6565b90509695505050505050565b7f455243313135353a206275726e20616d6f756e74206578636565647320746f7460008201527f616c537570706c79000000000000000000000000000000000000000000000000602082015250565b6000615d6a602883614273565b9150615d7582615d0e565b604082019050919050565b60006020820190508181036000830152615d9981615d5d565b905091905056fea2646970667358221220bc89b0175469304e7b8898b43f6673e457d155c65c9cad836a53f4ef2a533b1e64736f6c6343000809003368747470733a2f2f6c697175696265742e696e667572612d697066732e696f2f697066732f516d65344e74536936417531513338746d324c4a504b316b33444c436f624e314245667465546779674c7445435068747470733a2f2f6c697175696265742e696e667572612d697066732e696f2f697066732f516d654d345a5569684c457152344a6d56363133515634363642594d46414564617651736250794b65396e77663968747470733a2f2f6c697175696265742e696e667572612d697066732e696f2f697066732f516d586670466f7533664a4750576e5033414154444c6a75554579675255394d4d39317662365a34666b7337536368747470733a2f2f6c697175696265742e696e667572612d697066732e696f2f697066732f516d505457637748484c514d4a3162533633673937576934426e6768334e776336346b4762426a7a62466146563968747470733a2f2f6c697175696265742e696e667572612d697066732e696f2f697066732f516d5443444e6d617a325547483565386552786f3575474b31737831534577656876545469486b4d6f4e4d7a466b68747470733a2f2f6c697175696265742e696e667572612d697066732e696f2f697066732f516d566d75566534504778706b48506e6361636974753576634d3243455a48784a4b615243464355755268627936",
  "linkReferences": {},
  "deployedLinkReferences": {}
}