{
  "_format": "hh-sol-artifact-1",
  "contractName": "Liquibet",
  "sourceName": "contracts/LiquiBet.sol",
  "abi": [
    {
      "inputs": [
        {
          "internalType": "uint256",
          "name": "_tokenUpdateInterval",
          "type": "uint256"
        },
        {
          "internalType": "address",
          "name": "_tokenPriceFeed",
          "type": "address"
        },
        {
          "internalType": "address",
          "name": "_VRFContract",
          "type": "address"
        },
        {
          "internalType": "uint256",
          "name": "_fee",
          "type": "uint256"
        }
      ],
      "stateMutability": "nonpayable",
      "type": "constructor"
    },
    {
      "anonymous": false,
      "inputs": [
        {
          "indexed": true,
          "internalType": "bytes32",
          "name": "role",
          "type": "bytes32"
        },
        {
          "indexed": true,
          "internalType": "bytes32",
          "name": "previousAdminRole",
          "type": "bytes32"
        },
        {
          "indexed": true,
          "internalType": "bytes32",
          "name": "newAdminRole",
          "type": "bytes32"
        }
      ],
      "name": "RoleAdminChanged",
      "type": "event"
    },
    {
      "anonymous": false,
      "inputs": [
        {
          "indexed": true,
          "internalType": "bytes32",
          "name": "role",
          "type": "bytes32"
        },
        {
          "indexed": true,
          "internalType": "address",
          "name": "account",
          "type": "address"
        },
        {
          "indexed": true,
          "internalType": "address",
          "name": "sender",
          "type": "address"
        }
      ],
      "name": "RoleGranted",
      "type": "event"
    },
    {
      "anonymous": false,
      "inputs": [
        {
          "indexed": true,
          "internalType": "bytes32",
          "name": "role",
          "type": "bytes32"
        },
        {
          "indexed": true,
          "internalType": "address",
          "name": "account",
          "type": "address"
        },
        {
          "indexed": true,
          "internalType": "address",
          "name": "sender",
          "type": "address"
        }
      ],
      "name": "RoleRevoked",
      "type": "event"
    },
    {
      "inputs": [],
      "name": "DEFAULT_ADMIN_ROLE",
      "outputs": [
        {
          "internalType": "bytes32",
          "name": "",
          "type": "bytes32"
        }
      ],
      "stateMutability": "view",
      "type": "function"
    },
    {
      "inputs": [],
      "name": "VRFOracle",
      "outputs": [
        {
          "internalType": "contract VRFv2Consumer",
          "name": "",
          "type": "address"
        }
      ],
      "stateMutability": "view",
      "type": "function"
    },
    {
      "inputs": [
        {
          "internalType": "uint256",
          "name": "poolId",
          "type": "uint256"
        },
        {
          "internalType": "uint8",
          "name": "tierId",
          "type": "uint8"
        },
        {
          "internalType": "uint256",
          "name": "amount",
          "type": "uint256"
        }
      ],
      "name": "buyIn",
      "outputs": [],
      "stateMutability": "payable",
      "type": "function"
    },
    {
      "inputs": [
        {
          "internalType": "bytes",
          "name": "",
          "type": "bytes"
        }
      ],
      "name": "checkUpkeep",
      "outputs": [
        {
          "internalType": "bool",
          "name": "upkeepNeeded",
          "type": "bool"
        },
        {
          "internalType": "bytes",
          "name": "performData",
          "type": "bytes"
        }
      ],
      "stateMutability": "view",
      "type": "function"
    },
    {
      "inputs": [
        {
          "internalType": "uint256",
          "name": "startDateTime",
          "type": "uint256"
        },
        {
          "internalType": "uint256",
          "name": "lockPeriod",
          "type": "uint256"
        },
        {
          "internalType": "bytes32",
          "name": "assetPairName",
          "type": "bytes32"
        },
        {
          "internalType": "address",
          "name": "priceFeedAddress",
          "type": "address"
        },
        {
          "internalType": "address",
          "name": "stakingContractAddress",
          "type": "address"
        }
      ],
      "name": "createPool",
      "outputs": [],
      "stateMutability": "nonpayable",
      "type": "function"
    },
    {
      "inputs": [],
      "name": "fee",
      "outputs": [
        {
          "internalType": "uint256",
          "name": "",
          "type": "uint256"
        }
      ],
      "stateMutability": "view",
      "type": "function"
    },
    {
      "inputs": [
        {
          "internalType": "bytes32",
          "name": "role",
          "type": "bytes32"
        }
      ],
      "name": "getRoleAdmin",
      "outputs": [
        {
          "internalType": "bytes32",
          "name": "",
          "type": "bytes32"
        }
      ],
      "stateMutability": "view",
      "type": "function"
    },
    {
      "inputs": [
        {
          "internalType": "bytes32",
          "name": "role",
          "type": "bytes32"
        },
        {
          "internalType": "address",
          "name": "account",
          "type": "address"
        }
      ],
      "name": "grantRole",
      "outputs": [],
      "stateMutability": "nonpayable",
      "type": "function"
    },
    {
      "inputs": [
        {
          "internalType": "bytes32",
          "name": "role",
          "type": "bytes32"
        },
        {
          "internalType": "address",
          "name": "account",
          "type": "address"
        }
      ],
      "name": "hasRole",
      "outputs": [
        {
          "internalType": "bool",
          "name": "",
          "type": "bool"
        }
      ],
      "stateMutability": "view",
      "type": "function"
    },
    {
      "inputs": [
        {
          "internalType": "bytes",
          "name": "performData",
          "type": "bytes"
        }
      ],
      "name": "performUpkeep",
      "outputs": [],
      "stateMutability": "nonpayable",
      "type": "function"
    },
    {
      "inputs": [
        {
          "internalType": "uint256",
          "name": "",
          "type": "uint256"
        }
      ],
      "name": "poolIds",
      "outputs": [
        {
          "internalType": "uint256",
          "name": "",
          "type": "uint256"
        }
      ],
      "stateMutability": "view",
      "type": "function"
    },
    {
      "inputs": [
        {
          "internalType": "uint256",
          "name": "",
          "type": "uint256"
        }
      ],
      "name": "poolLiquidationPrizes",
      "outputs": [
        {
          "internalType": "uint256",
          "name": "",
          "type": "uint256"
        }
      ],
      "stateMutability": "view",
      "type": "function"
    },
    {
      "inputs": [
        {
          "internalType": "uint256",
          "name": "",
          "type": "uint256"
        },
        {
          "internalType": "address",
          "name": "",
          "type": "address"
        }
      ],
      "name": "poolLotteryWinners",
      "outputs": [
        {
          "internalType": "uint256",
          "name": "",
          "type": "uint256"
        }
      ],
      "stateMutability": "view",
      "type": "function"
    },
    {
      "inputs": [
        {
          "internalType": "uint256",
          "name": "",
          "type": "uint256"
        }
      ],
      "name": "pools",
      "outputs": [
        {
          "internalType": "uint256",
          "name": "poolId",
          "type": "uint256"
        },
        {
          "components": [
            {
              "internalType": "bytes32",
              "name": "name",
              "type": "bytes32"
            },
            {
              "internalType": "address",
              "name": "priceFeedAddress",
              "type": "address"
            },
            {
              "internalType": "uint256",
              "name": "lowestPrice",
              "type": "uint256"
            },
            {
              "internalType": "uint256",
              "name": "referencePrice",
              "type": "uint256"
            }
          ],
          "internalType": "struct Liquibet.AssetPair",
          "name": "assetPair",
          "type": "tuple"
        },
        {
          "internalType": "uint256",
          "name": "startDateTime",
          "type": "uint256"
        },
        {
          "internalType": "uint256",
          "name": "lockPeriod",
          "type": "uint256"
        },
        {
          "components": [
            {
              "internalType": "bytes32",
              "name": "name",
              "type": "bytes32"
            },
            {
              "internalType": "address",
              "name": "contractAddress",
              "type": "address"
            },
            {
              "internalType": "bytes32",
              "name": "asset",
              "type": "bytes32"
            },
            {
              "internalType": "uint256",
              "name": "apy",
              "type": "uint256"
            },
            {
              "internalType": "uint256",
              "name": "amountStaked",
              "type": "uint256"
            }
          ],
          "internalType": "struct Liquibet.StakingInfo",
          "name": "stakingInfo",
          "type": "tuple"
        },
        {
          "internalType": "uint256",
          "name": "creatorFee",
          "type": "uint256"
        },
        {
          "internalType": "uint256",
          "name": "totalPlayersCount",
          "type": "uint256"
        },
        {
          "internalType": "bool",
          "name": "lockInExecuted",
          "type": "bool"
        },
        {
          "internalType": "bool",
          "name": "resolved",
          "type": "bool"
        }
      ],
      "stateMutability": "view",
      "type": "function"
    },
    {
      "inputs": [
        {
          "internalType": "bytes32",
          "name": "role",
          "type": "bytes32"
        },
        {
          "internalType": "address",
          "name": "account",
          "type": "address"
        }
      ],
      "name": "renounceRole",
      "outputs": [],
      "stateMutability": "nonpayable",
      "type": "function"
    },
    {
      "inputs": [
        {
          "internalType": "uint256",
          "name": "poolId",
          "type": "uint256"
        }
      ],
      "name": "resolution",
      "outputs": [],
      "stateMutability": "nonpayable",
      "type": "function"
    },
    {
      "inputs": [
        {
          "internalType": "bytes32",
          "name": "role",
          "type": "bytes32"
        },
        {
          "internalType": "address",
          "name": "account",
          "type": "address"
        }
      ],
      "name": "revokeRole",
      "outputs": [],
      "stateMutability": "nonpayable",
      "type": "function"
    },
    {
      "inputs": [
        {
          "internalType": "uint256",
          "name": "poolId",
          "type": "uint256"
        }
      ],
      "name": "stakePoolFunds",
      "outputs": [],
      "stateMutability": "nonpayable",
      "type": "function"
    },
    {
      "inputs": [
        {
          "internalType": "bytes4",
          "name": "interfaceId",
          "type": "bytes4"
        }
      ],
      "name": "supportsInterface",
      "outputs": [
        {
          "internalType": "bool",
          "name": "",
          "type": "bool"
        }
      ],
      "stateMutability": "view",
      "type": "function"
    },
    {
      "inputs": [
        {
          "internalType": "uint256",
          "name": "",
          "type": "uint256"
        },
        {
          "internalType": "uint256",
          "name": "",
          "type": "uint256"
        },
        {
          "internalType": "uint256",
          "name": "",
          "type": "uint256"
        }
      ],
      "name": "tierPlayers",
      "outputs": [
        {
          "internalType": "address",
          "name": "",
          "type": "address"
        }
      ],
      "stateMutability": "view",
      "type": "function"
    },
    {
      "inputs": [
        {
          "internalType": "uint256",
          "name": "",
          "type": "uint256"
        },
        {
          "internalType": "uint256",
          "name": "",
          "type": "uint256"
        }
      ],
      "name": "tiers",
      "outputs": [
        {
          "internalType": "uint256",
          "name": "buyInPrice",
          "type": "uint256"
        },
        {
          "internalType": "uint256",
          "name": "liquidationPrice",
          "type": "uint256"
        }
      ],
      "stateMutability": "view",
      "type": "function"
    },
    {
      "inputs": [],
      "name": "token",
      "outputs": [
        {
          "internalType": "contract SFT",
          "name": "",
          "type": "address"
        }
      ],
      "stateMutability": "view",
      "type": "function"
    },
    {
      "inputs": [
        {
          "internalType": "uint256",
          "name": "tokenId",
          "type": "uint256"
        }
      ],
      "name": "withdraw",
      "outputs": [],
      "stateMutability": "nonpayable",
      "type": "function"
    },
    {
      "stateMutability": "payable",
      "type": "receive"
    }
  ],
  "bytecode": "0x60806040523480156200001157600080fd5b506040516200639f3803806200639f833981016040819052620000349162000191565b8383604051620000449062000166565b9182526001600160a01b03166020820152604001604051809103906000f08015801562000075573d6000803e3d6000fd5b50600380546001600160a01b03199081166001600160a01b039384161790915560028054909116918416919091179055600181905542600655620000bb600033620000c5565b50505050620001da565b6000828152602081815260408083206001600160a01b038516845290915290205460ff1662000162576000828152602081815260408083206001600160a01b03851684529091529020805460ff19166001179055620001213390565b6001600160a01b0316816001600160a01b0316837f2f8788117e7eff1d82e926ec794901d17c78024a50270940304540a733656f0d60405160405180910390a45b5050565b6136dc8062002cc383390190565b80516001600160a01b03811681146200018c57600080fd5b919050565b60008060008060808587031215620001a857600080fd5b84519350620001ba6020860162000174565b9250620001ca6040860162000174565b6060959095015193969295505050565b612ad980620001ea6000396000f3fe6080604052600436106101145760003560e01c806301ffc9a714610120578063248a9ca3146101555780632e1a7d4d146101835780632f2ff15d146101a557806331395918146101c557806336568abe146101fd5780634585e33b1461021d57806348321e8a1461023d57806369883b4e1461025d5780636e04ff0d1461027d57806391d14854146102ab578063975d83ab146102cb578063a217fddf146102f8578063a42319521461030d578063ac4afa3814610345578063ca8999ca14610434578063d547741f14610469578063da3fcb3414610489578063ddca3f431461049c578063defb8f0e146104b2578063e44c29b1146104d2578063f5a467b6146104f2578063fc0c546a1461051257600080fd5b3661011b57005b600080fd5b34801561012c57600080fd5b5061014061013b366004612428565b610532565b60405190151581526020015b60405180910390f35b34801561016157600080fd5b50610175610170366004612452565b610569565b60405190815260200161014c565b34801561018f57600080fd5b506101a361019e366004612452565b61057e565b005b3480156101b157600080fd5b506101a36101c0366004612487565b610925565b3480156101d157600080fd5b506101756101e0366004612487565b600a60209081526000928352604080842090915290825290205481565b34801561020957600080fd5b506101a3610218366004612487565b610946565b34801561022957600080fd5b506101a36102383660046124b3565b6109c4565b34801561024957600080fd5b506101a3610258366004612452565b610bc3565b34801561026957600080fd5b50610175610278366004612452565b610d15565b34801561028957600080fd5b5061029d6102983660046124b3565b610d36565b60405161014c92919061257c565b3480156102b757600080fd5b506101406102c6366004612487565b610f49565b3480156102d757600080fd5b506101756102e6366004612452565b60096020526000908152604090205481565b34801561030457600080fd5b50610175600081565b34801561031957600080fd5b5060025461032d906001600160a01b031681565b6040516001600160a01b03909116815260200161014c565b34801561035157600080fd5b5061041f610360366004612452565b60046020818152600092835260409283902080548451608080820187526001840154825260028401546001600160a01b03908116838701526003850154838901529584015460608084019190915260058501546006860154895160a081018b5260078801548152600888015490991697890197909752600986015498880198909852600a85015490870152600b84015490860152600c830154600d840154600e9094015492969195919493919290919060ff8082169161010090041689565b60405161014c99989796959493929190612597565b34801561044057600080fd5b5061045461044f366004612649565b610f72565b6040805192835260208301919091520161014c565b34801561047557600080fd5b506101a3610484366004612487565b610fae565b6101a361049736600461266b565b610fca565b3480156104a857600080fd5b5061017560015481565b3480156104be57600080fd5b506101a36104cd3660046126a9565b611300565b3480156104de57600080fd5b5061032d6104ed3660046126f9565b6116f3565b3480156104fe57600080fd5b506101a361050d366004612452565b611738565b34801561051e57600080fd5b5060035461032d906001600160a01b031681565b60006001600160e01b03198216637965db0b60e01b148061056357506301ffc9a760e01b6001600160e01b03198316145b92915050565b60009081526020819052604090206001015490565b600354604051634f558e7960e01b8152600481018390526001600160a01b0390911690634f558e799060240160206040518083038186803b1580156105c257600080fd5b505afa1580156105d6573d6000803e3d6000fd5b505050506040513d601f19601f820116820180604052508101906105fa9190612725565b6106555760405162461bcd60e51b815260206004820152602160248201527f546f6b656e207769746820676976656e20696420646f65736e277420657869736044820152601d60fa1b60648201526084015b60405180910390fd5b600061066082611941565b9050600061066d8361194e565b6000838152600a602081815260408084203385528252808420548785526004808452828620835161012081018552815481528451608080820187526001840154825260028401546001600160a01b03908116838a01526003850154838901529484015460608084019190915283890192909252600584015483880152600684015482840152865160a0808201895260078087015483526008870154909716828b01526009860154828a01529985015492810192909252600b84015482820152820152600c82015496810196909652600d81015460c0870152600e015460ff808216151560e088015261010091829004161515908601528886529092528320805494955090939192918590811061078557610785612747565b60009182526020808320604080518082018252600290940290910180548452600101548383018190529186015101519193506107bf911190565b6107d7576000868152600960205260409020546107da565b60005b90506107ff6040518060600160405280602c8152602001612a78602c9139828661195b565b600061080b8583612773565b116108585760405162461bcd60e51b815260206004820181905260248201527f596f752068617665206e6f2077696e6e696e677320746f207769746864726177604482015260640161064c565b6000868152600a60209081526040808320338085529252808320929092556003549151637a94c56560e11b8152600481019190915260248101899052600160448201526001600160a01b039091169063f5298aca90606401600060405180830381600087803b1580156108ca57600080fd5b505af11580156108de573d6000803e3d6000fd5b503392506108fc91506108f390508684612773565b6040518115909202916000818181858888f1935050505015801561091b573d6000803e3d6000fd5b5050505050505050565b61092e82610569565b610937816119a2565b61094183836119af565b505050565b6001600160a01b03811633146109b65760405162461bcd60e51b815260206004820152602f60248201527f416363657373436f6e74726f6c3a2063616e206f6e6c792072656e6f756e636560448201526e103937b632b9903337b91039b2b63360891b606482015260840161064c565b6109c08282611a33565b5050565b60006109d282840184612452565b9050806109e6576109e1611a98565b426006555b8060011415610a7d5760005b600554811015610a7b576000818152600460205260409020600e81015460ff16158015610a2c5750610a2c81600501548260060154611bee565b15610a68576002810154610a48906001600160a01b0316611c0b565b60048201558054610a5890610bc3565b600e8101805460ff191660011790555b5080610a738161278b565b9150506109f2565b505b80600214156109415760005b600554811015610bbd57600081815260046020818152604092839020835161012081018552815481528451608080820187526001840154825260028401546001600160a01b03908116838701526003850154838901529584015460608084019190915283860192909252600584015483880152600684015482840152865160a0808201895260078601548252600886015490971695810195909552600984015496850196909652600a83015490840152600b8201548386015293840191909152600c81015491830191909152600d81015460c0830152600e015460ff808216151560e0840152610100918290041615801591830182905290610b9a5750610b9881604001518260600151611ca3565b155b15610baa578051610baa90611738565b5080610bb58161278b565b915050610a89565b50505050565b6000610bce816119a2565b6000828152600460208181526040808420815161012081018352815481528251608080820185526001840154825260028401546001600160a01b03908116838801526003850154838701528488015460608085019190915284880193909352600585015484870152600685015483850152855160a080820188526007870154825260088701548316988201988952600987015482890152600a87015494820194909452600b86015481840190815292850152600c85015492840192909252600d84015460c0840152600e9093015460ff808216151560e08501526101009182900416151590830152935191518351633a4b66f160e01b815293519196929594861694633a4b66f194919382820193909290919082900301818588803b158015610cf657600080fd5b505af1158015610d0a573d6000803e3d6000fd5b505050505050505050565b60058181548110610d2557600080fd5b600091825260209091200154905081565b60006060600654600014158015610d595750600654610d5742615460612773565b115b15610d885760408051600060208201526001935001604051602081830303815290604052905060019150610f42565b60005b600554811015610f1f57600081815260046020818152604092839020835161012081018552815481528451608080820187526001840154825260028401546001600160a01b03908116838701526003850154838901529584015460608084019190915283860192909252600584015483880152600684015482840152865160a0808201895260078601548252600886015490971695810195909552600984015496850196909652600a83015490840152600b8201548386015293840191909152600c81015491830191909152600d81015460c0830152600e015460ff80821615801560e0850181905261010093849004909216151592840192909252610e9e5750610e9e81604001518260600151611bee565b15610ed057604080516001602082018190529550015b6040516020818303038152906040529250600193505050610f42565b806101000151158015610ef25750610ef081604001518260600151611ca3565b155b15610f0c5760408051600260208201526001955001610eb4565b5080610f178161278b565b915050610d8b565b506040805160036020820152600093500160405160208183030381529060405290505b9250929050565b6000918252602082815260408084206001600160a01b0393909316845291905290205460ff1690565b60076020528160005260406000208181548110610f8e57600080fd5b600091825260209091206002909102018054600190910154909250905082565b610fb782610569565b610fc0816119a2565b6109418383611a33565b600081116110265760405162461bcd60e51b8152602060048201526024808201527f4d696e7420616d6f756e74206d757374206265206c6172676572207468616e206044820152637a65726f60e01b606482015260840161064c565b6000838152600460205260409020600581015461107b5760405162461bcd60e51b8152602060048201526013602482015272141bdbdb08191bd95cc81b9bdd08195e1a5cdd606a1b604482015260640161064c565b80600501544211156110ca5760405162461bcd60e51b8152602060048201526018602482015277141bdbdb08189d5e4b5a5b881c195c9a5bd908195b99195960421b604482015260640161064c565b60008481526007602052604090205460ff8416106111365760405162461bcd60e51b8152602060048201526024808201527f5469657220646f65736e277420657869737420696e2074686520676976656e206044820152631c1bdbdb60e21b606482015260840161064c565b6001546000858152600760205260409020805460ff861690811061115c5761115c612747565b9060005260206000209060020201600001548361117991906127a6565b6111839190612773565b3410156111e15760405162461bcd60e51b815260206004820152602660248201527f4e6f7420656e6f7567682066756e647320666f722063686f73656e2074696572604482015265081b195d995b60d21b606482015260840161064c565b60006111ed8585611cb8565b60035460405163731133e960e01b8152336004820152602481018390526044810186905260806064820152600060848201529192506001600160a01b03169063731133e99060a401600060405180830381600087803b15801561124f57600080fd5b505af1158015611263573d6000803e3d6000fd5b505050506001543461127591906127c5565b600b83018054600090611289908490612773565b9091555050600154600c830180546000906112a5908490612773565b9091555050600085815260086020908152604080832060ff881684528252822080546001810182559083529082200180546001600160a01b03191633179055600d83018054916112f48361278b565b91905055505050505050565b8261134b5760405162461bcd60e51b815260206004820152601b60248201527a105cdcd95d081c185a5c881b985b59481a5cc81c995c5d5a5c9959602a1b604482015260640161064c565b6001600160a01b0382166113a15760405162461bcd60e51b815260206004820152601e60248201527f5072696365206665656420616464726573732069732072657175697265640000604482015260640161064c565b6001600160a01b0381166114035760405162461bcd60e51b8152602060048201526024808201527f5374616b696e6720636f6e7472616374206164647265737320697320726571756044820152631a5c995960e21b606482015260840161064c565b600061140e83611c0b565b604080516080810182528681526001600160a01b038616602082015290810182905260608101829052909150600061144584611cd3565b6040805161012081018252600554808252602082018690529181018b9052606081018a905260808101839052600060a0820181905260c0820181905260e08201819052610100820181905292935091906114a0906001612773565b60058054600180820183557f036b6384b5eca791c62761152d0c79bb0604c104a5fb6f4eb0703f3154bb3db09091018390556000838152600460208181526040928390208851815588820151805195820195909555848201516002820180546001600160a01b039283166001600160a01b0319918216179091558686015160038401556060968701519483019490945589850151968201969096558489015160068201556080808a015180516007840155928301516008830180549190981694169390931790955591820151600985015591810151600a8401550151600b82015560a0840151600c82015560c0840151600d82015560e0840151600e90910180546101008087015115150261ff00199315159390931661ffff19909116179190911790559050600090815260076020818152604080842081518083018352666a94d74f43000081528084018581528254600181810185558489528689209351600292830285019081559251928101929092558686528451808601865266d529ae9e8600008152600c81880190815285548085018755868b5291519183028501918255519083015586865284518086018652670429d069189e00008152601381880190815285548085018755868b5291519183028501918255519083015586865284518086018652670c7d713b49da00008152601c81880190815285548085018755868b5291519183028501918255519083015595855283518085019094526729a2241af62c0000845260269484019485528254808201845592909652915193020191825551910155505050505050505050565b6008602052826000526040600020602052816000526040600020818154811061171b57600080fd5b6000918252602090912001546001600160a01b0316925083915050565b6000611743816119a2565b6000828152600460205260409020600581015460068201546117659190611ca3565b6117c05760405162461bcd60e51b815260206004820152602660248201527f506f6f6c206c6f636b696e6720706572696f64206973207374696c6c20696e206044820152651959999958dd60d21b606482015260840161064c565b600881015460408051633ccfd60b60e01b815290516001600160a01b03909216916000918391633ccfd60b9160048082019260209290919082900301818787803b15801561180d57600080fd5b505af1158015611821573d6000803e3d6000fd5b505050506040513d601f19601f8201168201806040525081019061184591906127dc565b9050600061185a828560070160040154611db5565b90506118846040518060600160405280603d8152602001612a0a603d9139600b8601548484611dd6565b801561190757600061189a8786600d0154611e1f565b90506118d0604051806040016040528060128152602001716c6f74746572792077696e6e65723a20257360701b81525082611fa2565b6001600160a01b03811615611905576000878152600a602090815260408083206001600160a01b038516845290915290208290555b505b611918868560010160020154611fe7565b600096875260096020526040909620959095555050600e01805461ff0019166101001790555050565b6000610563600a8361280b565b6000610563600a8361281f565b61094183838360405160240161197393929190612833565b60408051601f198184030181529190526020810180516001600160e01b031663ca47c4eb60e01b179052612168565b6119ac8133612189565b50565b6119b98282610f49565b6109c0576000828152602081815260408083206001600160a01b03851684529091529020805460ff191660011790556119ef3390565b6001600160a01b0316816001600160a01b0316837f2f8788117e7eff1d82e926ec794901d17c78024a50270940304540a733656f0d60405160405180910390a45050565b611a3d8282610f49565b156109c0576000828152602081815260408083206001600160a01b0385168085529252808320805460ff1916905551339285917ff6391f5c32d9c69d2a47ea670b442974b53935d1edc7fd64eb21e047a839171b9190a45050565b60005b6005548110156119ac57600081815260046020818152604092839020835161012081018552815481528451608080820187526001840154825260028401546001600160a01b0390811683870152600385015483890152958401546060808401919091528386019290925260058401548388019081526006850154838501908152885160a08082018b5260078801548252600888015490991697810197909752600986015498870198909852600a85015492860192909252600b84015485820152820193909352600c82015493810193909352600d81015460c0840152600e015460ff808216151560e085015261010091829004161515908301525191519091611ba391611bee565b15611bdb576000611bbb826020015160200151611c0b565b9050808260200151604001511115611bd95760208201516040018190525b505b5080611be68161278b565b915050611a9b565b60008242118015611c045750611c048383611ca3565b9392505050565b6000808290506000816001600160a01b031663feaf968c6040518163ffffffff1660e01b815260040160a06040518083038186803b158015611c4c57600080fd5b505afa158015611c60573d6000803e3d6000fd5b505050506040513d601f19601f82011682018060405250810190611c84919061286f565b50505091505060008112611c985780611c9b565b60005b949350505050565b6000611caf8284612773565b42109392505050565b600060ff8216611cc984600a6127a6565b611c049190612773565b6040805160a08101825260008082526020820181905291810182905260608101829052608081019190915260008290506000806000836001600160a01b031663b40cd21d6040518163ffffffff1660e01b8152600401606060405180830381600087803b158015611d4357600080fd5b505af1158015611d57573d6000803e3d6000fd5b505050506040513d601f19601f82011682018060405250810190611d7b91906128b3565b6040805160a0810182529384526001600160a01b039099166020840152978201526060810196909652505060006080850152509192915050565b6000828211611dcd57611dc882846127c5565b611c04565b50600092915050565b610bbd84848484604051602401611df094939291906128e1565b60408051601f198184030181529190526020810180516001600160e01b031663a7a8785360e01b179052612168565b600080826001600160401b03811115611e3a57611e3a612910565b604051908082528060200260200182016040528015611e63578160200160208202803683370190505b5090506000805b60008681526007602052604090205460ff82161015611f535760005b600087815260086020908152604080832060ff86168452909152902054811015611f4057600087815260086020908152604080832060ff861684529091529020805482908110611ed857611ed8612747565b9060005260206000200160009054906101000a90046001600160a01b0316848481518110611f0857611f08612747565b6001600160a01b039092166020928302919091019091015282611f2a8161278b565b9350508080611f389061278b565b915050611e86565b5080611f4b81612926565b915050611e6a565b50815115611f975760008251611f676121ed565b611f71919061281f565b9050828181518110611f8557611f85612747565b60200260200101519350505050610563565b506000949350505050565b6109c08282604051602401611fb8929190612946565b60408051601f198184030181529190526020810180516001600160e01b031663319af33360e01b179052612168565b60008080805b60008681526007602052604090205460ff8216101561212b576000868152600760205260408120805460ff841690811061202957612029612747565b6000918252602080832060408051808201909152600290930201805483526001015490820152915061205b8884611cb8565b905061206a8260200151881190565b156121165760035460405163bd85b03960e01b8152600481018390526000916001600160a01b03169063bd85b0399060240160206040518083038186803b1580156120b457600080fd5b505afa1580156120c8573d6000803e3d6000fd5b505050506040513d601f19601f820116820180604052508101906120ec91906127dc565b90506120f88187612773565b83519096506121089082906127a6565b6121129086612773565b9450505b5050808061212390612926565b915050611fed565b508115611f9757612155604051806060016040528060318152602001612a4760319139828461195b565b61215f828261280b565b92505050610563565b80516a636f6e736f6c652e6c6f67602083016000808483855afa5050505050565b6121938282610f49565b6109c0576121ab816001600160a01b0316601461228d565b6121b683602061228d565b6040516020016121c7929190612970565b60408051601f198184030181529082905262461bcd60e51b825261064c916004016129df565b600254604051631edd5ff960e31b81526000600482018190529182916001600160a01b039091169063f6eaffc89060240160206040518083038186803b15801561223657600080fd5b505afa15801561224a573d6000803e3d6000fd5b505050506040513d601f19601f8201168201806040525081019061226e91906127dc565b9050801561227b57919050565b6122866001436127c5565b4092915050565b6060600061229c8360026127a6565b6122a7906002612773565b6001600160401b038111156122be576122be612910565b6040519080825280601f01601f1916602001820160405280156122e8576020820181803683370190505b509050600360fc1b8160008151811061230357612303612747565b60200101906001600160f81b031916908160001a905350600f60fb1b8160018151811061233257612332612747565b60200101906001600160f81b031916908160001a90535060006123568460026127a6565b612361906001612773565b90505b60018111156123d9576f181899199a1a9b1b9c1cb0b131b232b360811b85600f166010811061239557612395612747565b1a60f81b8282815181106123ab576123ab612747565b60200101906001600160f81b031916908160001a90535060049490941c936123d2816129f2565b9050612364565b508315611c045760405162461bcd60e51b815260206004820181905260248201527f537472696e67733a20686578206c656e67746820696e73756666696369656e74604482015260640161064c565b60006020828403121561243a57600080fd5b81356001600160e01b031981168114611c0457600080fd5b60006020828403121561246457600080fd5b5035919050565b80356001600160a01b038116811461248257600080fd5b919050565b6000806040838503121561249a57600080fd5b823591506124aa6020840161246b565b90509250929050565b600080602083850312156124c657600080fd5b82356001600160401b03808211156124dd57600080fd5b818501915085601f8301126124f157600080fd5b81358181111561250057600080fd5b86602082850101111561251257600080fd5b60209290920196919550909350505050565b60005b8381101561253f578181015183820152602001612527565b83811115610bbd5750506000910152565b60008151808452612568816020860160208601612524565b601f01601f19169290920160200192915050565b8215158152604060208201526000611c9b6040830184612550565b6000610200820190508a82528951602083015260208a015160018060a01b03808216604085015260408c0151606085015260608c015160808501528a60a08501528960c0850152885160e08501528060208a015116610100850152505060408701516101208301526060870151610140830152608087015161016083015285610180830152846101a08301526126326101c083018515159052565b8215156101e08301529a9950505050505050505050565b6000806040838503121561265c57600080fd5b50508035926020909101359150565b60008060006060848603121561268057600080fd5b83359250602084013560ff8116811461269857600080fd5b929592945050506040919091013590565b600080600080600060a086880312156126c157600080fd5b8535945060208601359350604086013592506126df6060870161246b565b91506126ed6080870161246b565b90509295509295909350565b60008060006060848603121561270e57600080fd5b505081359360208301359350604090920135919050565b60006020828403121561273757600080fd5b81518015158114611c0457600080fd5b634e487b7160e01b600052603260045260246000fd5b634e487b7160e01b600052601160045260246000fd5b600082198211156127865761278661275d565b500190565b600060001982141561279f5761279f61275d565b5060010190565b60008160001904831182151516156127c0576127c061275d565b500290565b6000828210156127d7576127d761275d565b500390565b6000602082840312156127ee57600080fd5b5051919050565b634e487b7160e01b600052601260045260246000fd5b60008261281a5761281a6127f5565b500490565b60008261282e5761282e6127f5565b500690565b6060815260006128466060830186612550565b60208301949094525060400152919050565b80516001600160501b038116811461248257600080fd5b600080600080600060a0868803121561288757600080fd5b61289086612858565b94506020860151935060408601519250606086015191506126ed60808701612858565b6000806000606084860312156128c857600080fd5b8351925060208401519150604084015190509250925092565b6080815260006128f46080830187612550565b6020830195909552506040810192909252606090910152919050565b634e487b7160e01b600052604160045260246000fd5b600060ff821660ff81141561293d5761293d61275d565b60010192915050565b6040815260006129596040830185612550565b905060018060a01b03831660208301529392505050565b76020b1b1b2b9b9a1b7b73a3937b61d1030b1b1b7bab73a1604d1b8152600083516129a2816017850160208801612524565b7001034b99036b4b9b9b4b733903937b6329607d1b60179184019182015283516129d3816028840160208801612524565b01602801949350505050565b602081526000611c046020830184612550565b600081612a0157612a0161275d565b50600019019056fe616d6f756e74207374616b65643a2025732c20616d6f756e742066726f6d207374616b696e673a2025732c206c6f7474657279207072697a653a202573746f74616c4c69717569646174656446756e64733a2025732c2077696e6e696e67506c6179657273436f756e743a2025736c69717569646174696f6e57696e6e696e67733a2025732c206c6f747465727957696e6e696e67733a202573a2646970667358221220e42d24469281d5d31b580283dcdd8a9bfc5bf5ed3a86f6b4a0d519f5d585460264736f6c634300080900336101c0604052605361014081815260809182919062003636610160398152602001604051806080016040528060538152602001620034ea6053913981526020016040518060800160405280605381526020016200359060539139815260200160405180608001604052806053815260200162003689605391398152602001604051806080016040528060538152602001620035e36053913981526020016040518060800160405280605381526020016200353d605391399052620000c890600b90600662000469565b50348015620000d657600080fd5b50604051620036dc380380620036dc833981016040819052620000f99162000656565b604080516020810190915260008152620001138162000366565b506200011f336200037f565b600682905542600755600580546001600160a01b0319166001600160a01b0383161790556200014d620003d1565b600855600b8054600590811062000168576200016862000695565b600091825260208083206001909352600990520180547f92e85d02570a8092d09a6e3a57665bc3815a2699a4074001bf1ccabf660f5a369190620001ac90620006ab565b620001b9929190620004cd565b50600b600581548110620001d157620001d162000695565b600091825260208083206002909352600990520180547f6cde3cea4b3a3fb2488b2808bae7556f4a405e50f65e1794383bc026131b13c391906200021590620006ab565b62000222929190620004cd565b50600b6005815481106200023a576200023a62000695565b600091825260208083206003909352600990520180547fc575c31fea594a6eb97c8e9d3f9caee4c16218c6ef37e923234c0fe9014a61e791906200027e90620006ab565b6200028b929190620004cd565b50600b600581548110620002a357620002a362000695565b600091825260208083206004909352600990520180547f8dc18c4ccfd75f5c815b63770fa542fd953e8fef7e0e44bbdd4913470ce7e9cb9190620002e790620006ab565b620002f4929190620004cd565b50600b6005815481106200030c576200030c62000695565b600091825260208083206005909352600990520180547f74b05292d1d4b2b48b65261b07099d24244bcb069f138d9a6bfdcf776becac4c91906200035090620006ab565b6200035d929190620004cd565b5050506200075a565b80516200037b9060029060208401906200055f565b5050565b600380546001600160a01b038381166001600160a01b0319831681179093556040519116919082907f8be0079c531659141344cd1fd0a4f28419497f9722a3daafe3b4186f6b6457e090600090a35050565b600080600560009054906101000a90046001600160a01b03166001600160a01b031663feaf968c6040518163ffffffff1660e01b815260040160a06040518083038186803b1580156200042357600080fd5b505afa15801562000438573d6000803e3d6000fd5b505050506040513d601f19601f820116820180604052508101906200045e919062000705565b509195945050505050565b828054828255906000526020600020908101928215620004bb579160200282015b82811115620004bb5782518051620004aa9184916020909101906200055f565b50916020019190600101906200048a565b50620004c9929150620005dc565b5090565b828054620004db90620006ab565b90600052602060002090601f016020900481019282620004ff576000855562000551565b82601f1062000512578054855562000551565b828001600101855582156200055157600052602060002091601f016020900482015b828111156200055157825482559160010191906001019062000534565b50620004c9929150620005fd565b8280546200056d90620006ab565b90600052602060002090601f01602090048101928262000591576000855562000551565b82601f10620005ac57805160ff191683800117855562000551565b8280016001018555821562000551579182015b8281111562000551578251825591602001919060010190620005bf565b80821115620004c9576000620005f3828262000614565b50600101620005dc565b5b80821115620004c95760008155600101620005fe565b5080546200062290620006ab565b6000825580601f1062000633575050565b601f016020900490600052602060002090810190620006539190620005fd565b50565b600080604083850312156200066a57600080fd5b825160208401519092506001600160a01b03811681146200068a57600080fd5b809150509250929050565b634e487b7160e01b600052603260045260246000fd5b600181811c90821680620006c057607f821691505b60208210811415620006e257634e487b7160e01b600052602260045260246000fd5b50919050565b80516001600160501b03811681146200070057600080fd5b919050565b600080600080600060a086880312156200071e57600080fd5b6200072986620006e8565b94506020860151935060408601519250606086015191506200074e60808701620006e8565b90509295509295909350565b612d80806200076a6000396000f3fe608060405234801561001057600080fd5b506004361061015e5760003560e01c8062fdd58e1461016357806301ffc9a7146101895780630e89341c146101ac5780631d0806ae146101cc5780631d2a0561146101d55780631f7fdffa146101ef5780632eb2c2d6146102045780633eb50beb146102175780633f3b3b271461021f5780634585e33b146102285780634e1273f41461023b5780634f558e791461025b57806357f7789e1461027d578063590f2113146102905780636b20c454146102bb5780636e04ff0d146102ce578063715018a6146102ef578063731133e9146102f75780638da5cb5b1461030a5780638e15f473146103125780639dd584851461031a578063a22cb46514610322578063a2f69a5914610335578063bd85b0391461033d578063cc286b8b1461035d578063e985e9c514610365578063f242432a146103a1578063f2fde38b146103b4578063f5298aca146103c7575b600080fd5b610176610171366004611f73565b6103da565b6040519081526020015b60405180910390f35b61019c610197366004611fb3565b610470565b6040519015158152602001610180565b6101bf6101ba366004611fd7565b6104c2565b604051610180919061203d565b61017660085481565b6101dd600281565b60405160ff9091168152602001610180565b6102026101fd3660046121a3565b610564565b005b61020261021236600461223b565b61057e565b6101dd600481565b61017660075481565b6102026102363660046122e4565b6105ca565b61024e610249366004612355565b610dae565b604051610180919061245a565b61019c610269366004611fd7565b600090815260046020526040902054151590565b61020261028b36600461246d565b610ed7565b6005546102a3906001600160a01b031681565b6040516001600160a01b039091168152602001610180565b6102026102c93660046124bd565b610efe565b6102e16102dc3660046122e4565b610f41565b604051610180929190612530565b610202610f60565b610202610305366004612553565b610f74565b6102a3610f88565b610176610f97565b6101dd600181565b6102026103303660046125a7565b61102b565b6101dd600381565b61017661034b366004611fd7565b60009081526004602052604090205490565b6101dd600581565b61019c6103733660046125e3565b6001600160a01b03918216600090815260016020908152604080832093909416825291909152205460ff1690565b6102026103af366004612616565b611036565b6102026103c236600461267a565b61107b565b6102026103d5366004612695565b6110f4565b60006001600160a01b03831661044a5760405162461bcd60e51b815260206004820152602a60248201527f455243313135353a2061646472657373207a65726f206973206e6f742061207660448201526930b634b21037bbb732b960b11b60648201526084015b60405180910390fd5b506000908152602081815260408083206001600160a01b03949094168352929052205490565b60006001600160e01b03198216636cdb3d1360e11b14806104a157506001600160e01b031982166303a24d0760e21b145b806104bc57506301ffc9a760e01b6001600160e01b03198316145b92915050565b60008181526009602052604090208054606091906104df906126c8565b80601f016020809104026020016040519081016040528092919081815260200182805461050b906126c8565b80156105585780601f1061052d57610100808354040283529160200191610558565b820191906000526020600020905b81548152906001019060200180831161053b57829003601f168201915b50505050509050919050565b61056c611137565b61057884848484611196565b50505050565b6001600160a01b03851633148061059a575061059a8533610373565b6105b65760405162461bcd60e51b815260040161044190612703565b6105c385858585856112de565b5050505050565b6006546007546105da9042612768565b1115610d78574260075560006105ee610f97565b9050600854811261063b576106366040518060400160405280601c81526020017b4e4f204c49515549444154494f4e202d3e2072657475726e696e672160201b815250611476565b505050565b600260085461064a919061277f565b8112156108385761068960405180604001604052806017815260200176105b1b0814d1951cc819d95d081b1a5c5d5a59185d1959604a1b815250611476565b61073d600160ff16600b6000815481106106a5576106a56127bb565b9060005260206000200180546106ba906126c8565b80601f01602080910402602001604051908101604052809291908181526020018280546106e6906126c8565b80156107335780601f1061070857610100808354040283529160200191610733565b820191906000526020600020905b81548152906001019060200180831161071657829003601f168201915b5050505050610ed7565b610759600260ff16600b6000815481106106a5576106a56127bb565b610775600360ff16600b6000815481106106a5576106a56127bb565b610791600460ff16600b6000815481106106a5576106a56127bb565b6107ad600560ff16600b6000815481106106a5576106a56127bb565b5050600a60205250600080516020612d2b8339815191528054600160ff199182168117909255600080516020612d0b8339815191528054821683179055600080516020612c8b8339815191528054821683179055600080516020612ccb83398151915280548216831790556005600052600080516020612ceb83398151915280549091169091179055565b6004600854610847919061277f565b6108529060036127d1565b81121561097a57610875600160ff16600b6000815481106106a5576106a56127bb565b610891600260ff16600b6000815481106106a5576106a56127bb565b6108ad600360ff16600b6000815481106106a5576106a56127bb565b6108c9600460ff16600b6000815481106106a5576106a56127bb565b6005600052600a602052600080516020612ceb8339815191525460ff1661090657610906600560ff16600b6001815481106106a5576106a56127bb565b5050600a60205250600080516020612d2b8339815191528054600160ff199182168117909255600080516020612d0b8339815191528054821683179055600080516020612c8b83398151915280548216831790556004600052600080516020612ccb83398151915280549091169091179055565b6005600854610989919061277f565b6109949060046127d1565b811215610ac6576109b7600160ff16600b6000815481106106a5576106a56127bb565b6109d3600260ff16600b6000815481106106a5576106a56127bb565b6109ef600360ff16600b6000815481106106a5576106a56127bb565b6004600052600a602052600080516020612ccb8339815191525460ff16610a2c57610a2c600460ff16600b6001815481106106a5576106a56127bb565b6005600052600a602052600080516020612ceb8339815191525460ff16610a6957610a69600560ff16600b6002815481106106a5576106a56127bb565b5050600a60205250600080516020612d2b8339815191528054600160ff199182168117909255600080516020612d0b83398151915280548216831790556003600052600080516020612c8b83398151915280549091169091179055565b600a600854610ad5919061277f565b610ae09060096127d1565b811215610c1c57610b03600160ff16600b6000815481106106a5576106a56127bb565b610b1f600260ff16600b6000815481106106a5576106a56127bb565b6003600052600a602052600080516020612c8b8339815191525460ff16610b5c57610b5c600360ff16600b6001815481106106a5576106a56127bb565b6004600052600a602052600080516020612ccb8339815191525460ff16610b9957610b99600460ff16600b6002815481106106a5576106a56127bb565b6005600052600a602052600080516020612ceb8339815191525460ff16610bd657610bd6600560ff16600b6003815481106106a5576106a56127bb565b5050600a60205250600080516020612d2b8339815191528054600160ff1991821681179092556002600052600080516020612d0b83398151915280549091169091179055565b6014600854610c2b919061277f565b610c369060136127d1565b81121561063657610c59600160ff16600b6000815481106106a5576106a56127bb565b6002600052600a602052600080516020612d0b8339815191525460ff16610c9657610c96600260ff16600b6001815481106106a5576106a56127bb565b6003600052600a602052600080516020612c8b8339815191525460ff16610cd357610cd3600360ff16600b6002815481106106a5576106a56127bb565b6004600052600a602052600080516020612ccb8339815191525460ff16610d1057610d10600460ff16600b6003815481106106a5576106a56127bb565b6005600052600a602052600080516020612ceb8339815191525460ff16610d4d57610d4d600560ff16600b6004815481106106a5576106a56127bb565b505060016000819052600a602052600080516020612d2b833981519152805460ff1916909117905550565b610daa6040518060400160405280601181526020017020494e54455256414c204e4f542055502160781b815250611476565b5050565b60608151835114610e135760405162461bcd60e51b815260206004820152602960248201527f455243313135353a206163636f756e747320616e6420696473206c656e677468604482015268040dad2e6dac2e8c6d60bb1b6064820152608401610441565b600083516001600160401b03811115610e2e57610e2e612050565b604051908082528060200260200182016040528015610e57578160200160208202803683370190505b50905060005b8451811015610ecf57610ea2858281518110610e7b57610e7b6127bb565b6020026020010151858381518110610e9557610e956127bb565b60200260200101516103da565b828281518110610eb457610eb46127bb565b6020908102919091010152610ec881612856565b9050610e5d565b509392505050565b610edf611137565b6000828152600960209081526040909120825161063692840190611ebe565b6001600160a01b038316331480610f1a5750610f1a8333610373565b610f365760405162461bcd60e51b815260040161044190612703565b6106368383836114b9565b6000606060065460075442610f569190612768565b1191509250929050565b610f68611137565b610f726000611643565b565b610f7c611137565b61057884848484611695565b6003546001600160a01b031690565b600080600560009054906101000a90046001600160a01b03166001600160a01b031663feaf968c6040518163ffffffff1660e01b815260040160a06040518083038186803b158015610fe857600080fd5b505afa158015610ffc573d6000803e3d6000fd5b505050506040513d601f19601f820116820180604052508101906110209190612888565b509195945050505050565b610daa33838361176c565b6001600160a01b03851633148061105257506110528533610373565b61106e5760405162461bcd60e51b815260040161044190612703565b6105c3858585858561184d565b611083611137565b6001600160a01b0381166110e85760405162461bcd60e51b815260206004820152602660248201527f4f776e61626c653a206e6577206f776e657220697320746865207a65726f206160448201526564647265737360d01b6064820152608401610441565b6110f181611643565b50565b6001600160a01b03831633148061111057506111108333610373565b61112c5760405162461bcd60e51b815260040161044190612703565b610636838383611973565b33611140610f88565b6001600160a01b031614610f725760405162461bcd60e51b815260206004820181905260248201527f4f776e61626c653a2063616c6c6572206973206e6f7420746865206f776e65726044820152606401610441565b6001600160a01b0384166111bc5760405162461bcd60e51b8152600401610441906128d8565b81518351146111dd5760405162461bcd60e51b815260040161044190612919565b336111ed81600087878787611a79565b60005b84518110156112885783818151811061120b5761120b6127bb565b6020026020010151600080878481518110611228576112286127bb565b602002602001015181526020019081526020016000206000886001600160a01b03166001600160a01b0316815260200190815260200160002060008282546112709190612961565b9091555081905061128081612856565b9150506111f0565b50846001600160a01b031660006001600160a01b0316826001600160a01b0316600080516020612c6b83398151915287876040516112c7929190612979565b60405180910390a46105c381600087878787611a87565b81518351146112ff5760405162461bcd60e51b815260040161044190612919565b6001600160a01b0384166113255760405162461bcd60e51b8152600401610441906129a7565b33611334818787878787611a79565b60005b845181101561141a576000858281518110611354576113546127bb565b602002602001015190506000858381518110611372576113726127bb565b602090810291909101810151600084815280835260408082206001600160a01b038e1683529093529190912054909150818110156113c25760405162461bcd60e51b8152600401610441906129ec565b6000838152602081815260408083206001600160a01b038e8116855292528083208585039055908b168252812080548492906113ff908490612961565b925050819055505050508061141390612856565b9050611337565b50846001600160a01b0316866001600160a01b0316826001600160a01b0316600080516020612c6b8339815191528787604051611458929190612979565b60405180910390a461146e818787878787611a87565b505050505050565b6110f18160405160240161148a919061203d565b60408051601f198184030181529190526020810180516001600160e01b031663104c13eb60e21b179052611bf9565b6001600160a01b0383166114df5760405162461bcd60e51b815260040161044190612a36565b80518251146115005760405162461bcd60e51b815260040161044190612919565b600033905061152381856000868660405180602001604052806000815250611a79565b60005b83518110156115e8576000848281518110611543576115436127bb565b602002602001015190506000848381518110611561576115616127bb565b602090810291909101810151600084815280835260408082206001600160a01b038c1683529093529190912054909150818110156115b15760405162461bcd60e51b815260040161044190612a79565b6000928352602083815260408085206001600160a01b038b16865290915290922091039055806115e081612856565b915050611526565b5060006001600160a01b0316846001600160a01b0316826001600160a01b0316600080516020612c6b8339815191528686604051611627929190612979565b60405180910390a4604080516020810190915260009052610578565b600380546001600160a01b038381166001600160a01b0319831681179093556040519116919082907f8be0079c531659141344cd1fd0a4f28419497f9722a3daafe3b4186f6b6457e090600090a35050565b6001600160a01b0384166116bb5760405162461bcd60e51b8152600401610441906128d8565b3360006116c785611c1a565b905060006116d485611c1a565b90506116e583600089858589611a79565b6000868152602081815260408083206001600160a01b038b16845290915281208054879290611715908490612961565b909155505060408051878152602081018790526001600160a01b03808a169260009291871691600080516020612cab833981519152910160405180910390a461176383600089898989611c65565b50505050505050565b816001600160a01b0316836001600160a01b031614156117e05760405162461bcd60e51b815260206004820152602960248201527f455243313135353a2073657474696e6720617070726f76616c20737461747573604482015268103337b91039b2b63360b91b6064820152608401610441565b6001600160a01b03838116600081815260016020908152604080832094871680845294825291829020805460ff191686151590811790915591519182527f17307eab39ab6107e8899845ad3d59bd9653f200f220920489ca2b5937696c31910160405180910390a3505050565b6001600160a01b0384166118735760405162461bcd60e51b8152600401610441906129a7565b33600061187f85611c1a565b9050600061188c85611c1a565b905061189c838989858589611a79565b6000868152602081815260408083206001600160a01b038c168452909152902054858110156118dd5760405162461bcd60e51b8152600401610441906129ec565b6000878152602081815260408083206001600160a01b038d8116855292528083208985039055908a1682528120805488929061191a908490612961565b909155505060408051888152602081018890526001600160a01b03808b16928c82169291881691600080516020612cab833981519152910160405180910390a4611968848a8a8a8a8a611c65565b505050505050505050565b6001600160a01b0383166119995760405162461bcd60e51b815260040161044190612a36565b3360006119a584611c1a565b905060006119b284611c1a565b90506119d283876000858560405180602001604052806000815250611a79565b6000858152602081815260408083206001600160a01b038a16845290915290205484811015611a135760405162461bcd60e51b815260040161044190612a79565b6000868152602081815260408083206001600160a01b038b81168086529184528285208a8703905582518b81529384018a9052909290881691600080516020612cab833981519152910160405180910390a4604080516020810190915260009052611763565b61146e868686868686611d36565b611a99846001600160a01b0316611eaf565b1561146e5760405163bc197c8160e01b81526001600160a01b0385169063bc197c8190611ad29089908990889088908890600401612abd565b602060405180830381600087803b158015611aec57600080fd5b505af1925050508015611b1c575060408051601f3d908101601f19168201909252611b1991810190612b1b565b60015b611bc957611b28612b38565b806308c379a01415611b625750611b3d612b54565b80611b485750611b64565b8060405162461bcd60e51b8152600401610441919061203d565b505b60405162461bcd60e51b815260206004820152603460248201527f455243313135353a207472616e7366657220746f206e6f6e20455243313135356044820152732932b1b2b4bb32b91034b6b83632b6b2b73a32b960611b6064820152608401610441565b6001600160e01b0319811663bc197c8160e01b146117635760405162461bcd60e51b815260040161044190612bdd565b80516a636f6e736f6c652e6c6f67602083016000808483855afa5050505050565b60408051600180825281830190925260609160009190602080830190803683370190505090508281600081518110611c5457611c546127bb565b602090810291909101015292915050565b611c77846001600160a01b0316611eaf565b1561146e5760405163f23a6e6160e01b81526001600160a01b0385169063f23a6e6190611cb09089908990889088908890600401612c25565b602060405180830381600087803b158015611cca57600080fd5b505af1925050508015611cfa575060408051601f3d908101601f19168201909252611cf791810190612b1b565b60015b611d0657611b28612b38565b6001600160e01b0319811663f23a6e6160e01b146117635760405162461bcd60e51b815260040161044190612bdd565b6001600160a01b038516611dbd5760005b8351811015611dbb57828181518110611d6257611d626127bb565b602002602001015160046000868481518110611d8057611d806127bb565b602002602001015181526020019081526020016000206000828254611da59190612961565b90915550611db4905081612856565b9050611d47565b505b6001600160a01b03841661146e5760005b8351811015611763576000848281518110611deb57611deb6127bb565b602002602001015190506000848381518110611e0957611e096127bb565b6020026020010151905060006004600084815260200190815260200160002054905081811015611e8c5760405162461bcd60e51b815260206004820152602860248201527f455243313135353a206275726e20616d6f756e74206578636565647320746f74604482015267616c537570706c7960c01b6064820152608401610441565b60009283526004602052604090922091039055611ea881612856565b9050611dce565b6001600160a01b03163b151590565b828054611eca906126c8565b90600052602060002090601f016020900481019282611eec5760008555611f32565b82601f10611f0557805160ff1916838001178555611f32565b82800160010185558215611f32579182015b82811115611f32578251825591602001919060010190611f17565b50611f3e929150611f42565b5090565b5b80821115611f3e5760008155600101611f43565b80356001600160a01b0381168114611f6e57600080fd5b919050565b60008060408385031215611f8657600080fd5b611f8f83611f57565b946020939093013593505050565b6001600160e01b0319811681146110f157600080fd5b600060208284031215611fc557600080fd5b8135611fd081611f9d565b9392505050565b600060208284031215611fe957600080fd5b5035919050565b6000815180845260005b8181101561201657602081850181015186830182015201611ffa565b81811115612028576000602083870101525b50601f01601f19169290920160200192915050565b602081526000611fd06020830184611ff0565b634e487b7160e01b600052604160045260246000fd5b601f8201601f191681016001600160401b038111828210171561208b5761208b612050565b6040525050565b60006001600160401b038211156120ab576120ab612050565b5060051b60200190565b600082601f8301126120c657600080fd5b813560206120d382612092565b6040516120e08282612066565b83815260059390931b850182019282810191508684111561210057600080fd5b8286015b8481101561211b5780358352918301918301612104565b509695505050505050565b60006001600160401b0383111561213f5761213f612050565b604051612156601f8501601f191660200182612066565b80915083815284848401111561216b57600080fd5b83836020830137600060208583010152509392505050565b600082601f83011261219457600080fd5b611fd083833560208501612126565b600080600080608085870312156121b957600080fd5b6121c285611f57565b935060208501356001600160401b03808211156121de57600080fd5b6121ea888389016120b5565b9450604087013591508082111561220057600080fd5b61220c888389016120b5565b9350606087013591508082111561222257600080fd5b5061222f87828801612183565b91505092959194509250565b600080600080600060a0868803121561225357600080fd5b61225c86611f57565b945061226a60208701611f57565b935060408601356001600160401b038082111561228657600080fd5b61229289838a016120b5565b945060608801359150808211156122a857600080fd5b6122b489838a016120b5565b935060808801359150808211156122ca57600080fd5b506122d788828901612183565b9150509295509295909350565b600080602083850312156122f757600080fd5b82356001600160401b038082111561230e57600080fd5b818501915085601f83011261232257600080fd5b81358181111561233157600080fd5b86602082850101111561234357600080fd5b60209290920196919550909350505050565b6000806040838503121561236857600080fd5b82356001600160401b038082111561237f57600080fd5b818501915085601f83011261239357600080fd5b813560206123a082612092565b6040516123ad8282612066565b83815260059390931b85018201928281019150898411156123cd57600080fd5b948201945b838610156123f2576123e386611f57565b825294820194908201906123d2565b9650508601359250508082111561240857600080fd5b50612415858286016120b5565b9150509250929050565b600081518084526020808501945080840160005b8381101561244f57815187529582019590820190600101612433565b509495945050505050565b602081526000611fd0602083018461241f565b6000806040838503121561248057600080fd5b8235915060208301356001600160401b0381111561249d57600080fd5b8301601f810185136124ae57600080fd5b61241585823560208401612126565b6000806000606084860312156124d257600080fd5b6124db84611f57565b925060208401356001600160401b03808211156124f757600080fd5b612503878388016120b5565b9350604086013591508082111561251957600080fd5b50612526868287016120b5565b9150509250925092565b821515815260406020820152600061254b6040830184611ff0565b949350505050565b6000806000806080858703121561256957600080fd5b61257285611f57565b9350602085013592506040850135915060608501356001600160401b0381111561259b57600080fd5b61222f87828801612183565b600080604083850312156125ba57600080fd5b6125c383611f57565b9150602083013580151581146125d857600080fd5b809150509250929050565b600080604083850312156125f657600080fd5b6125ff83611f57565b915061260d60208401611f57565b90509250929050565b600080600080600060a0868803121561262e57600080fd5b61263786611f57565b945061264560208701611f57565b9350604086013592506060860135915060808601356001600160401b0381111561266e57600080fd5b6122d788828901612183565b60006020828403121561268c57600080fd5b611fd082611f57565b6000806000606084860312156126aa57600080fd5b6126b384611f57565b95602085013595506040909401359392505050565b600181811c908216806126dc57607f821691505b602082108114156126fd57634e487b7160e01b600052602260045260246000fd5b50919050565b6020808252602f908201527f455243313135353a2063616c6c6572206973206e6f7420746f6b656e206f776e60408201526e195c881b9bdc88185c1c1c9bdd9959608a1b606082015260800190565b634e487b7160e01b600052601160045260246000fd5b60008282101561277a5761277a612752565b500390565b60008261279c57634e487b7160e01b600052601260045260246000fd5b600160ff1b8214600019841416156127b6576127b6612752565b500590565b634e487b7160e01b600052603260045260246000fd5b60006001600160ff1b03818413828413808216868404861116156127f7576127f7612752565b600160ff1b600087128281168783058912161561281657612816612752565b6000871292508782058712848416161561283257612832612752565b8785058712818416161561284857612848612752565b505050929093029392505050565b600060001982141561286a5761286a612752565b5060010190565b80516001600160501b0381168114611f6e57600080fd5b600080600080600060a086880312156128a057600080fd5b6128a986612871565b94506020860151935060408601519250606086015191506128cc60808701612871565b90509295509295909350565b60208082526021908201527f455243313135353a206d696e7420746f20746865207a65726f206164647265736040820152607360f81b606082015260800190565b60208082526028908201527f455243313135353a2069647320616e6420616d6f756e7473206c656e677468206040820152670dad2e6dac2e8c6d60c31b606082015260800190565b6000821982111561297457612974612752565b500190565b60408152600061298c604083018561241f565b828103602084015261299e818561241f565b95945050505050565b60208082526025908201527f455243313135353a207472616e7366657220746f20746865207a65726f206164604082015264647265737360d81b606082015260800190565b6020808252602a908201527f455243313135353a20696e73756666696369656e742062616c616e636520666f60408201526939103a3930b739b332b960b11b606082015260800190565b60208082526023908201527f455243313135353a206275726e2066726f6d20746865207a65726f206164647260408201526265737360e81b606082015260800190565b60208082526024908201527f455243313135353a206275726e20616d6f756e7420657863656564732062616c604082015263616e636560e01b606082015260800190565b6001600160a01b0386811682528516602082015260a060408201819052600090612ae99083018661241f565b8281036060840152612afb818661241f565b90508281036080840152612b0f8185611ff0565b98975050505050505050565b600060208284031215612b2d57600080fd5b8151611fd081611f9d565b600060033d1115612b515760046000803e5060005160e01c5b90565b600060443d1015612b625790565b6040516003193d81016004833e81513d6001600160401b038083116024840183101715612b9157505050505090565b8285019150815181811115612ba95750505050505090565b843d8701016020828501011115612bc35750505050505090565b612bd260208286010187612066565b509095945050505050565b60208082526028908201527f455243313135353a204552433131353552656365697665722072656a656374656040820152676420746f6b656e7360c01b606082015260800190565b6001600160a01b03868116825285166020820152604081018490526060810183905260a060808201819052600090612c5f90830184611ff0565b97965050505050505056fe4a39dc06d4c0dbc64b70af90fd698a233a518aa5d07e595d983b8c0526c8f7fba856840544dc26124927add067d799967eac11be13e14d82cc281ea46fa39759c3d58168c5ae7397731d063d5bbf3d657854427343f4c083240f7aacaa2d0f62e1eb2b2161a492c07c5a334e48012567cba93ec021043f53c1955516a3c5a841f35035bc2b01d44bd35a1dcdc552315cffb73da35cfd60570b7b777f98036f9fbff4442b8ed600beeb8e26b1279a0f0d14c6edfaec26d968ee13c86f7d4c2ba8bbc70db1b6c7afd11e79c0fb0051300458f1a3acb8ee9789d9b6b26c61ad9bc7a26469706673582212202d2c03faba3bf6d193a1bfe16813b8f40c800031dbd25f0ee90b62eea5b02b5664736f6c6343000809003368747470733a2f2f6c697175696265742e696e667572612d697066732e696f2f697066732f516d65344e74536936417531513338746d324c4a504b316b33444c436f624e314245667465546779674c7445435068747470733a2f2f6c697175696265742e696e667572612d697066732e696f2f697066732f516d654d345a5569684c457152344a6d56363133515634363642594d46414564617651736250794b65396e77663968747470733a2f2f6c697175696265742e696e667572612d697066732e696f2f697066732f516d586670466f7533664a4750576e5033414154444c6a75554579675255394d4d39317662365a34666b7337536368747470733a2f2f6c697175696265742e696e667572612d697066732e696f2f697066732f516d505457637748484c514d4a3162533633673937576934426e6768334e776336346b4762426a7a62466146563968747470733a2f2f6c697175696265742e696e667572612d697066732e696f2f697066732f516d5443444e6d617a325547483565386552786f3575474b31737831534577656876545469486b4d6f4e4d7a466b68747470733a2f2f6c697175696265742e696e667572612d697066732e696f2f697066732f516d566d75566534504778706b48506e6361636974753576634d3243455a48784a4b615243464355755268627936",
  "linkReferences": {},
  "deployedLinkReferences": {}
}