{
  "_format": "hh-sol-artifact-1",
  "contractName": "SFT",
  "sourceName": "contracts/SFT.sol",
  "abi": [
    {
      "inputs": [
        {
          "internalType": "uint256",
          "name": "updateInterval",
          "type": "uint256"
        },
        {
          "internalType": "address",
          "name": "_pricefeed",
          "type": "address"
        }
      ],
      "stateMutability": "nonpayable",
      "type": "constructor"
    },
    {
      "anonymous": false,
      "inputs": [
        {
          "indexed": true,
          "internalType": "address",
          "name": "account",
          "type": "address"
        },
        {
          "indexed": true,
          "internalType": "address",
          "name": "operator",
          "type": "address"
        },
        {
          "indexed": false,
          "internalType": "bool",
          "name": "approved",
          "type": "bool"
        }
      ],
      "name": "ApprovalForAll",
      "type": "event"
    },
    {
      "anonymous": false,
      "inputs": [
        {
          "indexed": true,
          "internalType": "address",
          "name": "previousOwner",
          "type": "address"
        },
        {
          "indexed": true,
          "internalType": "address",
          "name": "newOwner",
          "type": "address"
        }
      ],
      "name": "OwnershipTransferred",
      "type": "event"
    },
    {
      "anonymous": false,
      "inputs": [
        {
          "indexed": true,
          "internalType": "address",
          "name": "operator",
          "type": "address"
        },
        {
          "indexed": true,
          "internalType": "address",
          "name": "from",
          "type": "address"
        },
        {
          "indexed": true,
          "internalType": "address",
          "name": "to",
          "type": "address"
        },
        {
          "indexed": false,
          "internalType": "uint256[]",
          "name": "ids",
          "type": "uint256[]"
        },
        {
          "indexed": false,
          "internalType": "uint256[]",
          "name": "values",
          "type": "uint256[]"
        }
      ],
      "name": "TransferBatch",
      "type": "event"
    },
    {
      "anonymous": false,
      "inputs": [
        {
          "indexed": true,
          "internalType": "address",
          "name": "operator",
          "type": "address"
        },
        {
          "indexed": true,
          "internalType": "address",
          "name": "from",
          "type": "address"
        },
        {
          "indexed": true,
          "internalType": "address",
          "name": "to",
          "type": "address"
        },
        {
          "indexed": false,
          "internalType": "uint256",
          "name": "id",
          "type": "uint256"
        },
        {
          "indexed": false,
          "internalType": "uint256",
          "name": "value",
          "type": "uint256"
        }
      ],
      "name": "TransferSingle",
      "type": "event"
    },
    {
      "anonymous": false,
      "inputs": [
        {
          "indexed": false,
          "internalType": "string",
          "name": "value",
          "type": "string"
        },
        {
          "indexed": true,
          "internalType": "uint256",
          "name": "id",
          "type": "uint256"
        }
      ],
      "name": "URI",
      "type": "event"
    },
    {
      "inputs": [],
      "name": "TIER_1",
      "outputs": [
        {
          "internalType": "uint8",
          "name": "",
          "type": "uint8"
        }
      ],
      "stateMutability": "view",
      "type": "function"
    },
    {
      "inputs": [],
      "name": "TIER_2",
      "outputs": [
        {
          "internalType": "uint8",
          "name": "",
          "type": "uint8"
        }
      ],
      "stateMutability": "view",
      "type": "function"
    },
    {
      "inputs": [],
      "name": "TIER_3",
      "outputs": [
        {
          "internalType": "uint8",
          "name": "",
          "type": "uint8"
        }
      ],
      "stateMutability": "view",
      "type": "function"
    },
    {
      "inputs": [],
      "name": "TIER_4",
      "outputs": [
        {
          "internalType": "uint8",
          "name": "",
          "type": "uint8"
        }
      ],
      "stateMutability": "view",
      "type": "function"
    },
    {
      "inputs": [],
      "name": "TIER_5",
      "outputs": [
        {
          "internalType": "uint8",
          "name": "",
          "type": "uint8"
        }
      ],
      "stateMutability": "view",
      "type": "function"
    },
    {
      "inputs": [
        {
          "internalType": "address",
          "name": "account",
          "type": "address"
        },
        {
          "internalType": "uint256",
          "name": "id",
          "type": "uint256"
        }
      ],
      "name": "balanceOf",
      "outputs": [
        {
          "internalType": "uint256",
          "name": "",
          "type": "uint256"
        }
      ],
      "stateMutability": "view",
      "type": "function"
    },
    {
      "inputs": [
        {
          "internalType": "address[]",
          "name": "accounts",
          "type": "address[]"
        },
        {
          "internalType": "uint256[]",
          "name": "ids",
          "type": "uint256[]"
        }
      ],
      "name": "balanceOfBatch",
      "outputs": [
        {
          "internalType": "uint256[]",
          "name": "",
          "type": "uint256[]"
        }
      ],
      "stateMutability": "view",
      "type": "function"
    },
    {
      "inputs": [
        {
          "internalType": "address",
          "name": "account",
          "type": "address"
        },
        {
          "internalType": "uint256",
          "name": "id",
          "type": "uint256"
        },
        {
          "internalType": "uint256",
          "name": "value",
          "type": "uint256"
        }
      ],
      "name": "burn",
      "outputs": [],
      "stateMutability": "nonpayable",
      "type": "function"
    },
    {
      "inputs": [
        {
          "internalType": "address",
          "name": "account",
          "type": "address"
        },
        {
          "internalType": "uint256[]",
          "name": "ids",
          "type": "uint256[]"
        },
        {
          "internalType": "uint256[]",
          "name": "values",
          "type": "uint256[]"
        }
      ],
      "name": "burnBatch",
      "outputs": [],
      "stateMutability": "nonpayable",
      "type": "function"
    },
    {
      "inputs": [
        {
          "internalType": "bytes",
          "name": "",
          "type": "bytes"
        }
      ],
      "name": "checkUpkeep",
      "outputs": [
        {
          "internalType": "bool",
          "name": "upkeepNeeded",
          "type": "bool"
        },
        {
          "internalType": "bytes",
          "name": "",
          "type": "bytes"
        }
      ],
      "stateMutability": "view",
      "type": "function"
    },
    {
      "inputs": [
        {
          "internalType": "uint256",
          "name": "id",
          "type": "uint256"
        }
      ],
      "name": "exists",
      "outputs": [
        {
          "internalType": "bool",
          "name": "",
          "type": "bool"
        }
      ],
      "stateMutability": "view",
      "type": "function"
    },
    {
      "inputs": [],
      "name": "getLatestPrice",
      "outputs": [
        {
          "internalType": "int256",
          "name": "",
          "type": "int256"
        }
      ],
      "stateMutability": "view",
      "type": "function"
    },
    {
      "inputs": [],
      "name": "initialPrice",
      "outputs": [
        {
          "internalType": "int256",
          "name": "",
          "type": "int256"
        }
      ],
      "stateMutability": "view",
      "type": "function"
    },
    {
      "inputs": [
        {
          "internalType": "address",
          "name": "account",
          "type": "address"
        },
        {
          "internalType": "address",
          "name": "operator",
          "type": "address"
        }
      ],
      "name": "isApprovedForAll",
      "outputs": [
        {
          "internalType": "bool",
          "name": "",
          "type": "bool"
        }
      ],
      "stateMutability": "view",
      "type": "function"
    },
    {
      "inputs": [],
      "name": "lastTimeStamp",
      "outputs": [
        {
          "internalType": "uint256",
          "name": "",
          "type": "uint256"
        }
      ],
      "stateMutability": "view",
      "type": "function"
    },
    {
      "inputs": [
        {
          "internalType": "address",
          "name": "to",
          "type": "address"
        },
        {
          "internalType": "uint256",
          "name": "id",
          "type": "uint256"
        },
        {
          "internalType": "uint256",
          "name": "amount",
          "type": "uint256"
        },
        {
          "internalType": "bytes",
          "name": "data",
          "type": "bytes"
        }
      ],
      "name": "mint",
      "outputs": [],
      "stateMutability": "nonpayable",
      "type": "function"
    },
    {
      "inputs": [
        {
          "internalType": "address",
          "name": "to",
          "type": "address"
        },
        {
          "internalType": "uint256[]",
          "name": "ids",
          "type": "uint256[]"
        },
        {
          "internalType": "uint256[]",
          "name": "amounts",
          "type": "uint256[]"
        },
        {
          "internalType": "bytes",
          "name": "data",
          "type": "bytes"
        }
      ],
      "name": "mintBatch",
      "outputs": [],
      "stateMutability": "nonpayable",
      "type": "function"
    },
    {
      "inputs": [],
      "name": "owner",
      "outputs": [
        {
          "internalType": "address",
          "name": "",
          "type": "address"
        }
      ],
      "stateMutability": "view",
      "type": "function"
    },
    {
      "inputs": [
        {
          "internalType": "bytes",
          "name": "",
          "type": "bytes"
        }
      ],
      "name": "performUpkeep",
      "outputs": [],
      "stateMutability": "nonpayable",
      "type": "function"
    },
    {
      "inputs": [],
      "name": "pricefeed",
      "outputs": [
        {
          "internalType": "contract AggregatorV3Interface",
          "name": "",
          "type": "address"
        }
      ],
      "stateMutability": "view",
      "type": "function"
    },
    {
      "inputs": [],
      "name": "renounceOwnership",
      "outputs": [],
      "stateMutability": "nonpayable",
      "type": "function"
    },
    {
      "inputs": [
        {
          "internalType": "address",
          "name": "from",
          "type": "address"
        },
        {
          "internalType": "address",
          "name": "to",
          "type": "address"
        },
        {
          "internalType": "uint256[]",
          "name": "ids",
          "type": "uint256[]"
        },
        {
          "internalType": "uint256[]",
          "name": "amounts",
          "type": "uint256[]"
        },
        {
          "internalType": "bytes",
          "name": "data",
          "type": "bytes"
        }
      ],
      "name": "safeBatchTransferFrom",
      "outputs": [],
      "stateMutability": "nonpayable",
      "type": "function"
    },
    {
      "inputs": [
        {
          "internalType": "address",
          "name": "from",
          "type": "address"
        },
        {
          "internalType": "address",
          "name": "to",
          "type": "address"
        },
        {
          "internalType": "uint256",
          "name": "id",
          "type": "uint256"
        },
        {
          "internalType": "uint256",
          "name": "amount",
          "type": "uint256"
        },
        {
          "internalType": "bytes",
          "name": "data",
          "type": "bytes"
        }
      ],
      "name": "safeTransferFrom",
      "outputs": [],
      "stateMutability": "nonpayable",
      "type": "function"
    },
    {
      "inputs": [
        {
          "internalType": "address",
          "name": "operator",
          "type": "address"
        },
        {
          "internalType": "bool",
          "name": "approved",
          "type": "bool"
        }
      ],
      "name": "setApprovalForAll",
      "outputs": [],
      "stateMutability": "nonpayable",
      "type": "function"
    },
    {
      "inputs": [
        {
          "internalType": "uint256",
          "name": "id",
          "type": "uint256"
        },
        {
          "internalType": "string",
          "name": "newUri",
          "type": "string"
        }
      ],
      "name": "setTokenUri",
      "outputs": [],
      "stateMutability": "nonpayable",
      "type": "function"
    },
    {
      "inputs": [
        {
          "internalType": "bytes4",
          "name": "interfaceId",
          "type": "bytes4"
        }
      ],
      "name": "supportsInterface",
      "outputs": [
        {
          "internalType": "bool",
          "name": "",
          "type": "bool"
        }
      ],
      "stateMutability": "view",
      "type": "function"
    },
    {
      "inputs": [
        {
          "internalType": "uint256",
          "name": "id",
          "type": "uint256"
        }
      ],
      "name": "totalSupply",
      "outputs": [
        {
          "internalType": "uint256",
          "name": "",
          "type": "uint256"
        }
      ],
      "stateMutability": "view",
      "type": "function"
    },
    {
      "inputs": [
        {
          "internalType": "address",
          "name": "newOwner",
          "type": "address"
        }
      ],
      "name": "transferOwnership",
      "outputs": [],
      "stateMutability": "nonpayable",
      "type": "function"
    },
    {
      "inputs": [
        {
          "internalType": "uint256",
          "name": "id",
          "type": "uint256"
        }
      ],
      "name": "uri",
      "outputs": [
        {
          "internalType": "string",
          "name": "",
          "type": "string"
        }
      ],
      "stateMutability": "view",
      "type": "function"
    }
  ],
  "bytecode": "0x6101c0604052605361014081815260809182919062003636610160398152602001604051806080016040528060538152602001620034ea6053913981526020016040518060800160405280605381526020016200359060539139815260200160405180608001604052806053815260200162003689605391398152602001604051806080016040528060538152602001620035e36053913981526020016040518060800160405280605381526020016200353d605391399052620000c890600b90600662000469565b50348015620000d657600080fd5b50604051620036dc380380620036dc833981016040819052620000f99162000656565b604080516020810190915260008152620001138162000366565b506200011f336200037f565b600682905542600755600580546001600160a01b0319166001600160a01b0383161790556200014d620003d1565b600855600b8054600590811062000168576200016862000695565b600091825260208083206001909352600990520180547f92e85d02570a8092d09a6e3a57665bc3815a2699a4074001bf1ccabf660f5a369190620001ac90620006ab565b620001b9929190620004cd565b50600b600581548110620001d157620001d162000695565b600091825260208083206002909352600990520180547f6cde3cea4b3a3fb2488b2808bae7556f4a405e50f65e1794383bc026131b13c391906200021590620006ab565b62000222929190620004cd565b50600b6005815481106200023a576200023a62000695565b600091825260208083206003909352600990520180547fc575c31fea594a6eb97c8e9d3f9caee4c16218c6ef37e923234c0fe9014a61e791906200027e90620006ab565b6200028b929190620004cd565b50600b600581548110620002a357620002a362000695565b600091825260208083206004909352600990520180547f8dc18c4ccfd75f5c815b63770fa542fd953e8fef7e0e44bbdd4913470ce7e9cb9190620002e790620006ab565b620002f4929190620004cd565b50600b6005815481106200030c576200030c62000695565b600091825260208083206005909352600990520180547f74b05292d1d4b2b48b65261b07099d24244bcb069f138d9a6bfdcf776becac4c91906200035090620006ab565b6200035d929190620004cd565b5050506200075a565b80516200037b9060029060208401906200055f565b5050565b600380546001600160a01b038381166001600160a01b0319831681179093556040519116919082907f8be0079c531659141344cd1fd0a4f28419497f9722a3daafe3b4186f6b6457e090600090a35050565b600080600560009054906101000a90046001600160a01b03166001600160a01b031663feaf968c6040518163ffffffff1660e01b815260040160a06040518083038186803b1580156200042357600080fd5b505afa15801562000438573d6000803e3d6000fd5b505050506040513d601f19601f820116820180604052508101906200045e919062000705565b509195945050505050565b828054828255906000526020600020908101928215620004bb579160200282015b82811115620004bb5782518051620004aa9184916020909101906200055f565b50916020019190600101906200048a565b50620004c9929150620005dc565b5090565b828054620004db90620006ab565b90600052602060002090601f016020900481019282620004ff576000855562000551565b82601f1062000512578054855562000551565b828001600101855582156200055157600052602060002091601f016020900482015b828111156200055157825482559160010191906001019062000534565b50620004c9929150620005fd565b8280546200056d90620006ab565b90600052602060002090601f01602090048101928262000591576000855562000551565b82601f10620005ac57805160ff191683800117855562000551565b8280016001018555821562000551579182015b8281111562000551578251825591602001919060010190620005bf565b80821115620004c9576000620005f3828262000614565b50600101620005dc565b5b80821115620004c95760008155600101620005fe565b5080546200062290620006ab565b6000825580601f1062000633575050565b601f016020900490600052602060002090810190620006539190620005fd565b50565b600080604083850312156200066a57600080fd5b825160208401519092506001600160a01b03811681146200068a57600080fd5b809150509250929050565b634e487b7160e01b600052603260045260246000fd5b600181811c90821680620006c057607f821691505b60208210811415620006e257634e487b7160e01b600052602260045260246000fd5b50919050565b80516001600160501b03811681146200070057600080fd5b919050565b600080600080600060a086880312156200071e57600080fd5b6200072986620006e8565b94506020860151935060408601519250606086015191506200074e60808701620006e8565b90509295509295909350565b612d80806200076a6000396000f3fe608060405234801561001057600080fd5b506004361061015e5760003560e01c8062fdd58e1461016357806301ffc9a7146101895780630e89341c146101ac5780631d0806ae146101cc5780631d2a0561146101d55780631f7fdffa146101ef5780632eb2c2d6146102045780633eb50beb146102175780633f3b3b271461021f5780634585e33b146102285780634e1273f41461023b5780634f558e791461025b57806357f7789e1461027d578063590f2113146102905780636b20c454146102bb5780636e04ff0d146102ce578063715018a6146102ef578063731133e9146102f75780638da5cb5b1461030a5780638e15f473146103125780639dd584851461031a578063a22cb46514610322578063a2f69a5914610335578063bd85b0391461033d578063cc286b8b1461035d578063e985e9c514610365578063f242432a146103a1578063f2fde38b146103b4578063f5298aca146103c7575b600080fd5b610176610171366004611f73565b6103da565b6040519081526020015b60405180910390f35b61019c610197366004611fb3565b610470565b6040519015158152602001610180565b6101bf6101ba366004611fd7565b6104c2565b604051610180919061203d565b61017660085481565b6101dd600281565b60405160ff9091168152602001610180565b6102026101fd3660046121a3565b610564565b005b61020261021236600461223b565b61057e565b6101dd600481565b61017660075481565b6102026102363660046122e4565b6105ca565b61024e610249366004612355565b610dae565b604051610180919061245a565b61019c610269366004611fd7565b600090815260046020526040902054151590565b61020261028b36600461246d565b610ed7565b6005546102a3906001600160a01b031681565b6040516001600160a01b039091168152602001610180565b6102026102c93660046124bd565b610efe565b6102e16102dc3660046122e4565b610f41565b604051610180929190612530565b610202610f60565b610202610305366004612553565b610f74565b6102a3610f88565b610176610f97565b6101dd600181565b6102026103303660046125a7565b61102b565b6101dd600381565b61017661034b366004611fd7565b60009081526004602052604090205490565b6101dd600581565b61019c6103733660046125e3565b6001600160a01b03918216600090815260016020908152604080832093909416825291909152205460ff1690565b6102026103af366004612616565b611036565b6102026103c236600461267a565b61107b565b6102026103d5366004612695565b6110f4565b60006001600160a01b03831661044a5760405162461bcd60e51b815260206004820152602a60248201527f455243313135353a2061646472657373207a65726f206973206e6f742061207660448201526930b634b21037bbb732b960b11b60648201526084015b60405180910390fd5b506000908152602081815260408083206001600160a01b03949094168352929052205490565b60006001600160e01b03198216636cdb3d1360e11b14806104a157506001600160e01b031982166303a24d0760e21b145b806104bc57506301ffc9a760e01b6001600160e01b03198316145b92915050565b60008181526009602052604090208054606091906104df906126c8565b80601f016020809104026020016040519081016040528092919081815260200182805461050b906126c8565b80156105585780601f1061052d57610100808354040283529160200191610558565b820191906000526020600020905b81548152906001019060200180831161053b57829003601f168201915b50505050509050919050565b61056c611137565b61057884848484611196565b50505050565b6001600160a01b03851633148061059a575061059a8533610373565b6105b65760405162461bcd60e51b815260040161044190612703565b6105c385858585856112de565b5050505050565b6006546007546105da9042612768565b1115610d78574260075560006105ee610f97565b9050600854811261063b576106366040518060400160405280601c81526020017b4e4f204c49515549444154494f4e202d3e2072657475726e696e672160201b815250611476565b505050565b600260085461064a919061277f565b8112156108385761068960405180604001604052806017815260200176105b1b0814d1951cc819d95d081b1a5c5d5a59185d1959604a1b815250611476565b61073d600160ff16600b6000815481106106a5576106a56127bb565b9060005260206000200180546106ba906126c8565b80601f01602080910402602001604051908101604052809291908181526020018280546106e6906126c8565b80156107335780601f1061070857610100808354040283529160200191610733565b820191906000526020600020905b81548152906001019060200180831161071657829003601f168201915b5050505050610ed7565b610759600260ff16600b6000815481106106a5576106a56127bb565b610775600360ff16600b6000815481106106a5576106a56127bb565b610791600460ff16600b6000815481106106a5576106a56127bb565b6107ad600560ff16600b6000815481106106a5576106a56127bb565b5050600a60205250600080516020612d2b8339815191528054600160ff199182168117909255600080516020612d0b8339815191528054821683179055600080516020612c8b8339815191528054821683179055600080516020612ccb83398151915280548216831790556005600052600080516020612ceb83398151915280549091169091179055565b6004600854610847919061277f565b6108529060036127d1565b81121561097a57610875600160ff16600b6000815481106106a5576106a56127bb565b610891600260ff16600b6000815481106106a5576106a56127bb565b6108ad600360ff16600b6000815481106106a5576106a56127bb565b6108c9600460ff16600b6000815481106106a5576106a56127bb565b6005600052600a602052600080516020612ceb8339815191525460ff1661090657610906600560ff16600b6001815481106106a5576106a56127bb565b5050600a60205250600080516020612d2b8339815191528054600160ff199182168117909255600080516020612d0b8339815191528054821683179055600080516020612c8b83398151915280548216831790556004600052600080516020612ccb83398151915280549091169091179055565b6005600854610989919061277f565b6109949060046127d1565b811215610ac6576109b7600160ff16600b6000815481106106a5576106a56127bb565b6109d3600260ff16600b6000815481106106a5576106a56127bb565b6109ef600360ff16600b6000815481106106a5576106a56127bb565b6004600052600a602052600080516020612ccb8339815191525460ff16610a2c57610a2c600460ff16600b6001815481106106a5576106a56127bb565b6005600052600a602052600080516020612ceb8339815191525460ff16610a6957610a69600560ff16600b6002815481106106a5576106a56127bb565b5050600a60205250600080516020612d2b8339815191528054600160ff199182168117909255600080516020612d0b83398151915280548216831790556003600052600080516020612c8b83398151915280549091169091179055565b600a600854610ad5919061277f565b610ae09060096127d1565b811215610c1c57610b03600160ff16600b6000815481106106a5576106a56127bb565b610b1f600260ff16600b6000815481106106a5576106a56127bb565b6003600052600a602052600080516020612c8b8339815191525460ff16610b5c57610b5c600360ff16600b6001815481106106a5576106a56127bb565b6004600052600a602052600080516020612ccb8339815191525460ff16610b9957610b99600460ff16600b6002815481106106a5576106a56127bb565b6005600052600a602052600080516020612ceb8339815191525460ff16610bd657610bd6600560ff16600b6003815481106106a5576106a56127bb565b5050600a60205250600080516020612d2b8339815191528054600160ff1991821681179092556002600052600080516020612d0b83398151915280549091169091179055565b6014600854610c2b919061277f565b610c369060136127d1565b81121561063657610c59600160ff16600b6000815481106106a5576106a56127bb565b6002600052600a602052600080516020612d0b8339815191525460ff16610c9657610c96600260ff16600b6001815481106106a5576106a56127bb565b6003600052600a602052600080516020612c8b8339815191525460ff16610cd357610cd3600360ff16600b6002815481106106a5576106a56127bb565b6004600052600a602052600080516020612ccb8339815191525460ff16610d1057610d10600460ff16600b6003815481106106a5576106a56127bb565b6005600052600a602052600080516020612ceb8339815191525460ff16610d4d57610d4d600560ff16600b6004815481106106a5576106a56127bb565b505060016000819052600a602052600080516020612d2b833981519152805460ff1916909117905550565b610daa6040518060400160405280601181526020017020494e54455256414c204e4f542055502160781b815250611476565b5050565b60608151835114610e135760405162461bcd60e51b815260206004820152602960248201527f455243313135353a206163636f756e747320616e6420696473206c656e677468604482015268040dad2e6dac2e8c6d60bb1b6064820152608401610441565b600083516001600160401b03811115610e2e57610e2e612050565b604051908082528060200260200182016040528015610e57578160200160208202803683370190505b50905060005b8451811015610ecf57610ea2858281518110610e7b57610e7b6127bb565b6020026020010151858381518110610e9557610e956127bb565b60200260200101516103da565b828281518110610eb457610eb46127bb565b6020908102919091010152610ec881612856565b9050610e5d565b509392505050565b610edf611137565b6000828152600960209081526040909120825161063692840190611ebe565b6001600160a01b038316331480610f1a5750610f1a8333610373565b610f365760405162461bcd60e51b815260040161044190612703565b6106368383836114b9565b6000606060065460075442610f569190612768565b1191509250929050565b610f68611137565b610f726000611643565b565b610f7c611137565b61057884848484611695565b6003546001600160a01b031690565b600080600560009054906101000a90046001600160a01b03166001600160a01b031663feaf968c6040518163ffffffff1660e01b815260040160a06040518083038186803b158015610fe857600080fd5b505afa158015610ffc573d6000803e3d6000fd5b505050506040513d601f19601f820116820180604052508101906110209190612888565b509195945050505050565b610daa33838361176c565b6001600160a01b03851633148061105257506110528533610373565b61106e5760405162461bcd60e51b815260040161044190612703565b6105c3858585858561184d565b611083611137565b6001600160a01b0381166110e85760405162461bcd60e51b815260206004820152602660248201527f4f776e61626c653a206e6577206f776e657220697320746865207a65726f206160448201526564647265737360d01b6064820152608401610441565b6110f181611643565b50565b6001600160a01b03831633148061111057506111108333610373565b61112c5760405162461bcd60e51b815260040161044190612703565b610636838383611973565b33611140610f88565b6001600160a01b031614610f725760405162461bcd60e51b815260206004820181905260248201527f4f776e61626c653a2063616c6c6572206973206e6f7420746865206f776e65726044820152606401610441565b6001600160a01b0384166111bc5760405162461bcd60e51b8152600401610441906128d8565b81518351146111dd5760405162461bcd60e51b815260040161044190612919565b336111ed81600087878787611a79565b60005b84518110156112885783818151811061120b5761120b6127bb565b6020026020010151600080878481518110611228576112286127bb565b602002602001015181526020019081526020016000206000886001600160a01b03166001600160a01b0316815260200190815260200160002060008282546112709190612961565b9091555081905061128081612856565b9150506111f0565b50846001600160a01b031660006001600160a01b0316826001600160a01b0316600080516020612c6b83398151915287876040516112c7929190612979565b60405180910390a46105c381600087878787611a87565b81518351146112ff5760405162461bcd60e51b815260040161044190612919565b6001600160a01b0384166113255760405162461bcd60e51b8152600401610441906129a7565b33611334818787878787611a79565b60005b845181101561141a576000858281518110611354576113546127bb565b602002602001015190506000858381518110611372576113726127bb565b602090810291909101810151600084815280835260408082206001600160a01b038e1683529093529190912054909150818110156113c25760405162461bcd60e51b8152600401610441906129ec565b6000838152602081815260408083206001600160a01b038e8116855292528083208585039055908b168252812080548492906113ff908490612961565b925050819055505050508061141390612856565b9050611337565b50846001600160a01b0316866001600160a01b0316826001600160a01b0316600080516020612c6b8339815191528787604051611458929190612979565b60405180910390a461146e818787878787611a87565b505050505050565b6110f18160405160240161148a919061203d565b60408051601f198184030181529190526020810180516001600160e01b031663104c13eb60e21b179052611bf9565b6001600160a01b0383166114df5760405162461bcd60e51b815260040161044190612a36565b80518251146115005760405162461bcd60e51b815260040161044190612919565b600033905061152381856000868660405180602001604052806000815250611a79565b60005b83518110156115e8576000848281518110611543576115436127bb565b602002602001015190506000848381518110611561576115616127bb565b602090810291909101810151600084815280835260408082206001600160a01b038c1683529093529190912054909150818110156115b15760405162461bcd60e51b815260040161044190612a79565b6000928352602083815260408085206001600160a01b038b16865290915290922091039055806115e081612856565b915050611526565b5060006001600160a01b0316846001600160a01b0316826001600160a01b0316600080516020612c6b8339815191528686604051611627929190612979565b60405180910390a4604080516020810190915260009052610578565b600380546001600160a01b038381166001600160a01b0319831681179093556040519116919082907f8be0079c531659141344cd1fd0a4f28419497f9722a3daafe3b4186f6b6457e090600090a35050565b6001600160a01b0384166116bb5760405162461bcd60e51b8152600401610441906128d8565b3360006116c785611c1a565b905060006116d485611c1a565b90506116e583600089858589611a79565b6000868152602081815260408083206001600160a01b038b16845290915281208054879290611715908490612961565b909155505060408051878152602081018790526001600160a01b03808a169260009291871691600080516020612cab833981519152910160405180910390a461176383600089898989611c65565b50505050505050565b816001600160a01b0316836001600160a01b031614156117e05760405162461bcd60e51b815260206004820152602960248201527f455243313135353a2073657474696e6720617070726f76616c20737461747573604482015268103337b91039b2b63360b91b6064820152608401610441565b6001600160a01b03838116600081815260016020908152604080832094871680845294825291829020805460ff191686151590811790915591519182527f17307eab39ab6107e8899845ad3d59bd9653f200f220920489ca2b5937696c31910160405180910390a3505050565b6001600160a01b0384166118735760405162461bcd60e51b8152600401610441906129a7565b33600061187f85611c1a565b9050600061188c85611c1a565b905061189c838989858589611a79565b6000868152602081815260408083206001600160a01b038c168452909152902054858110156118dd5760405162461bcd60e51b8152600401610441906129ec565b6000878152602081815260408083206001600160a01b038d8116855292528083208985039055908a1682528120805488929061191a908490612961565b909155505060408051888152602081018890526001600160a01b03808b16928c82169291881691600080516020612cab833981519152910160405180910390a4611968848a8a8a8a8a611c65565b505050505050505050565b6001600160a01b0383166119995760405162461bcd60e51b815260040161044190612a36565b3360006119a584611c1a565b905060006119b284611c1a565b90506119d283876000858560405180602001604052806000815250611a79565b6000858152602081815260408083206001600160a01b038a16845290915290205484811015611a135760405162461bcd60e51b815260040161044190612a79565b6000868152602081815260408083206001600160a01b038b81168086529184528285208a8703905582518b81529384018a9052909290881691600080516020612cab833981519152910160405180910390a4604080516020810190915260009052611763565b61146e868686868686611d36565b611a99846001600160a01b0316611eaf565b1561146e5760405163bc197c8160e01b81526001600160a01b0385169063bc197c8190611ad29089908990889088908890600401612abd565b602060405180830381600087803b158015611aec57600080fd5b505af1925050508015611b1c575060408051601f3d908101601f19168201909252611b1991810190612b1b565b60015b611bc957611b28612b38565b806308c379a01415611b625750611b3d612b54565b80611b485750611b64565b8060405162461bcd60e51b8152600401610441919061203d565b505b60405162461bcd60e51b815260206004820152603460248201527f455243313135353a207472616e7366657220746f206e6f6e20455243313135356044820152732932b1b2b4bb32b91034b6b83632b6b2b73a32b960611b6064820152608401610441565b6001600160e01b0319811663bc197c8160e01b146117635760405162461bcd60e51b815260040161044190612bdd565b80516a636f6e736f6c652e6c6f67602083016000808483855afa5050505050565b60408051600180825281830190925260609160009190602080830190803683370190505090508281600081518110611c5457611c546127bb565b602090810291909101015292915050565b611c77846001600160a01b0316611eaf565b1561146e5760405163f23a6e6160e01b81526001600160a01b0385169063f23a6e6190611cb09089908990889088908890600401612c25565b602060405180830381600087803b158015611cca57600080fd5b505af1925050508015611cfa575060408051601f3d908101601f19168201909252611cf791810190612b1b565b60015b611d0657611b28612b38565b6001600160e01b0319811663f23a6e6160e01b146117635760405162461bcd60e51b815260040161044190612bdd565b6001600160a01b038516611dbd5760005b8351811015611dbb57828181518110611d6257611d626127bb565b602002602001015160046000868481518110611d8057611d806127bb565b602002602001015181526020019081526020016000206000828254611da59190612961565b90915550611db4905081612856565b9050611d47565b505b6001600160a01b03841661146e5760005b8351811015611763576000848281518110611deb57611deb6127bb565b602002602001015190506000848381518110611e0957611e096127bb565b6020026020010151905060006004600084815260200190815260200160002054905081811015611e8c5760405162461bcd60e51b815260206004820152602860248201527f455243313135353a206275726e20616d6f756e74206578636565647320746f74604482015267616c537570706c7960c01b6064820152608401610441565b60009283526004602052604090922091039055611ea881612856565b9050611dce565b6001600160a01b03163b151590565b828054611eca906126c8565b90600052602060002090601f016020900481019282611eec5760008555611f32565b82601f10611f0557805160ff1916838001178555611f32565b82800160010185558215611f32579182015b82811115611f32578251825591602001919060010190611f17565b50611f3e929150611f42565b5090565b5b80821115611f3e5760008155600101611f43565b80356001600160a01b0381168114611f6e57600080fd5b919050565b60008060408385031215611f8657600080fd5b611f8f83611f57565b946020939093013593505050565b6001600160e01b0319811681146110f157600080fd5b600060208284031215611fc557600080fd5b8135611fd081611f9d565b9392505050565b600060208284031215611fe957600080fd5b5035919050565b6000815180845260005b8181101561201657602081850181015186830182015201611ffa565b81811115612028576000602083870101525b50601f01601f19169290920160200192915050565b602081526000611fd06020830184611ff0565b634e487b7160e01b600052604160045260246000fd5b601f8201601f191681016001600160401b038111828210171561208b5761208b612050565b6040525050565b60006001600160401b038211156120ab576120ab612050565b5060051b60200190565b600082601f8301126120c657600080fd5b813560206120d382612092565b6040516120e08282612066565b83815260059390931b850182019282810191508684111561210057600080fd5b8286015b8481101561211b5780358352918301918301612104565b509695505050505050565b60006001600160401b0383111561213f5761213f612050565b604051612156601f8501601f191660200182612066565b80915083815284848401111561216b57600080fd5b83836020830137600060208583010152509392505050565b600082601f83011261219457600080fd5b611fd083833560208501612126565b600080600080608085870312156121b957600080fd5b6121c285611f57565b935060208501356001600160401b03808211156121de57600080fd5b6121ea888389016120b5565b9450604087013591508082111561220057600080fd5b61220c888389016120b5565b9350606087013591508082111561222257600080fd5b5061222f87828801612183565b91505092959194509250565b600080600080600060a0868803121561225357600080fd5b61225c86611f57565b945061226a60208701611f57565b935060408601356001600160401b038082111561228657600080fd5b61229289838a016120b5565b945060608801359150808211156122a857600080fd5b6122b489838a016120b5565b935060808801359150808211156122ca57600080fd5b506122d788828901612183565b9150509295509295909350565b600080602083850312156122f757600080fd5b82356001600160401b038082111561230e57600080fd5b818501915085601f83011261232257600080fd5b81358181111561233157600080fd5b86602082850101111561234357600080fd5b60209290920196919550909350505050565b6000806040838503121561236857600080fd5b82356001600160401b038082111561237f57600080fd5b818501915085601f83011261239357600080fd5b813560206123a082612092565b6040516123ad8282612066565b83815260059390931b85018201928281019150898411156123cd57600080fd5b948201945b838610156123f2576123e386611f57565b825294820194908201906123d2565b9650508601359250508082111561240857600080fd5b50612415858286016120b5565b9150509250929050565b600081518084526020808501945080840160005b8381101561244f57815187529582019590820190600101612433565b509495945050505050565b602081526000611fd0602083018461241f565b6000806040838503121561248057600080fd5b8235915060208301356001600160401b0381111561249d57600080fd5b8301601f810185136124ae57600080fd5b61241585823560208401612126565b6000806000606084860312156124d257600080fd5b6124db84611f57565b925060208401356001600160401b03808211156124f757600080fd5b612503878388016120b5565b9350604086013591508082111561251957600080fd5b50612526868287016120b5565b9150509250925092565b821515815260406020820152600061254b6040830184611ff0565b949350505050565b6000806000806080858703121561256957600080fd5b61257285611f57565b9350602085013592506040850135915060608501356001600160401b0381111561259b57600080fd5b61222f87828801612183565b600080604083850312156125ba57600080fd5b6125c383611f57565b9150602083013580151581146125d857600080fd5b809150509250929050565b600080604083850312156125f657600080fd5b6125ff83611f57565b915061260d60208401611f57565b90509250929050565b600080600080600060a0868803121561262e57600080fd5b61263786611f57565b945061264560208701611f57565b9350604086013592506060860135915060808601356001600160401b0381111561266e57600080fd5b6122d788828901612183565b60006020828403121561268c57600080fd5b611fd082611f57565b6000806000606084860312156126aa57600080fd5b6126b384611f57565b95602085013595506040909401359392505050565b600181811c908216806126dc57607f821691505b602082108114156126fd57634e487b7160e01b600052602260045260246000fd5b50919050565b6020808252602f908201527f455243313135353a2063616c6c6572206973206e6f7420746f6b656e206f776e60408201526e195c881b9bdc88185c1c1c9bdd9959608a1b606082015260800190565b634e487b7160e01b600052601160045260246000fd5b60008282101561277a5761277a612752565b500390565b60008261279c57634e487b7160e01b600052601260045260246000fd5b600160ff1b8214600019841416156127b6576127b6612752565b500590565b634e487b7160e01b600052603260045260246000fd5b60006001600160ff1b03818413828413808216868404861116156127f7576127f7612752565b600160ff1b600087128281168783058912161561281657612816612752565b6000871292508782058712848416161561283257612832612752565b8785058712818416161561284857612848612752565b505050929093029392505050565b600060001982141561286a5761286a612752565b5060010190565b80516001600160501b0381168114611f6e57600080fd5b600080600080600060a086880312156128a057600080fd5b6128a986612871565b94506020860151935060408601519250606086015191506128cc60808701612871565b90509295509295909350565b60208082526021908201527f455243313135353a206d696e7420746f20746865207a65726f206164647265736040820152607360f81b606082015260800190565b60208082526028908201527f455243313135353a2069647320616e6420616d6f756e7473206c656e677468206040820152670dad2e6dac2e8c6d60c31b606082015260800190565b6000821982111561297457612974612752565b500190565b60408152600061298c604083018561241f565b828103602084015261299e818561241f565b95945050505050565b60208082526025908201527f455243313135353a207472616e7366657220746f20746865207a65726f206164604082015264647265737360d81b606082015260800190565b6020808252602a908201527f455243313135353a20696e73756666696369656e742062616c616e636520666f60408201526939103a3930b739b332b960b11b606082015260800190565b60208082526023908201527f455243313135353a206275726e2066726f6d20746865207a65726f206164647260408201526265737360e81b606082015260800190565b60208082526024908201527f455243313135353a206275726e20616d6f756e7420657863656564732062616c604082015263616e636560e01b606082015260800190565b6001600160a01b0386811682528516602082015260a060408201819052600090612ae99083018661241f565b8281036060840152612afb818661241f565b90508281036080840152612b0f8185611ff0565b98975050505050505050565b600060208284031215612b2d57600080fd5b8151611fd081611f9d565b600060033d1115612b515760046000803e5060005160e01c5b90565b600060443d1015612b625790565b6040516003193d81016004833e81513d6001600160401b038083116024840183101715612b9157505050505090565b8285019150815181811115612ba95750505050505090565b843d8701016020828501011115612bc35750505050505090565b612bd260208286010187612066565b509095945050505050565b60208082526028908201527f455243313135353a204552433131353552656365697665722072656a656374656040820152676420746f6b656e7360c01b606082015260800190565b6001600160a01b03868116825285166020820152604081018490526060810183905260a060808201819052600090612c5f90830184611ff0565b97965050505050505056fe4a39dc06d4c0dbc64b70af90fd698a233a518aa5d07e595d983b8c0526c8f7fba856840544dc26124927add067d799967eac11be13e14d82cc281ea46fa39759c3d58168c5ae7397731d063d5bbf3d657854427343f4c083240f7aacaa2d0f62e1eb2b2161a492c07c5a334e48012567cba93ec021043f53c1955516a3c5a841f35035bc2b01d44bd35a1dcdc552315cffb73da35cfd60570b7b777f98036f9fbff4442b8ed600beeb8e26b1279a0f0d14c6edfaec26d968ee13c86f7d4c2ba8bbc70db1b6c7afd11e79c0fb0051300458f1a3acb8ee9789d9b6b26c61ad9bc7a26469706673582212202d2c03faba3bf6d193a1bfe16813b8f40c800031dbd25f0ee90b62eea5b02b5664736f6c6343000809003368747470733a2f2f6c697175696265742e696e667572612d697066732e696f2f697066732f516d65344e74536936417531513338746d324c4a504b316b33444c436f624e314245667465546779674c7445435068747470733a2f2f6c697175696265742e696e667572612d697066732e696f2f697066732f516d654d345a5569684c457152344a6d56363133515634363642594d46414564617651736250794b65396e77663968747470733a2f2f6c697175696265742e696e667572612d697066732e696f2f697066732f516d586670466f7533664a4750576e5033414154444c6a75554579675255394d4d39317662365a34666b7337536368747470733a2f2f6c697175696265742e696e667572612d697066732e696f2f697066732f516d505457637748484c514d4a3162533633673937576934426e6768334e776336346b4762426a7a62466146563968747470733a2f2f6c697175696265742e696e667572612d697066732e696f2f697066732f516d5443444e6d617a325547483565386552786f3575474b31737831534577656876545469486b4d6f4e4d7a466b68747470733a2f2f6c697175696265742e696e667572612d697066732e696f2f697066732f516d566d75566534504778706b48506e6361636974753576634d3243455a48784a4b615243464355755268627936",
  "linkReferences": {},
  "deployedLinkReferences": {}
}